:100000000C9476010C943E140C9417140C94F01379
:100010000C94C9130C949E010C949E010C94A21391
:100020000C949E010C9465140C94B7100C9426113A
:100030000C949E010C949E010C949E010C949E01C4
:100040000C949E010C949E010C949E010C949E01B4
:100050000C949E010C949E010C949E010C945813D8
:100060000C949E010C949E010C949E010C949E0194
:100070000C949E010C949E010C949E010C949E0184
:100080000C949E010C949E010C949E010C949E0174
:100090000C949E010C949E010C949E010C949E0164
:1000A0000C949E010C949E010C949E0100407A10C9
:1000B000F35A00A0724E18090010A5D4E80000E819
:1000C0007648170000E40B54020000CA9A3B000077
:1000D00000E1F505000080969800000040420F0006
:1000E0000000A08601000000102700000000E803C7
:1000F000000000006400000000000A000000000092
:100100000100000000002C76D888DC674F0823DF50
:10011000C1DFAE59E1B1B796E5E3E453C63AE65123
:10012000997696E8E6C28426EB898C9B62ED407C4A
:100130006FFCEFBC9C9F40F2BAA56FA5F490055AE6
:100140002AF75C936B6CF9676DC11BFCE0E40D470B
:10015000FEF520E6B500D0ED902E0300943577052E
:100160000080841E080000204E0A000000C80C33E6
:100170003333330F986E12831141EF8D2114893B75
:10018000E65516CFFEE6DB18D1844B381BF77C1DF5
:10019000901DA4BBE424203284725E228100C9F148
:1001A00024ECA1E53D272064426D005253534920C1
:1001B0003D2000070605040100080A0B0C0D09008C
:1001C000000000240027002A002D0030000000005D
:1001D0000200090F0000030401000C0000000000F1
:1001E000000000000000000000000000080B0002FA
:1001F00002020000090400000102020000052400C0
:100200001001052401010104240206052406000151
:100210000705810310004009040100020A000000E4
:1002200007050202400000070583024000000403A6
:10023000090412010002EF0201404123368000014F
:100240000102030141726475696E6F204C4C4300DA
:1002500041726475696E6F204C656F6E6172646F78
:1002600000000000002300260029002C002F0000C1
:10027000000000250028002B002E0031000404049B
:10028000040403040502020202040302020202063D
:10029000060606060604040202020404040802011B
:1002A00010408040102040804080080204018040BF
:1002B0002010020110801020404020093C2D2D2DDF
:1002C0002000092D2D2D3E20002B4353513A2000B4
:1002D00041542B435351004F4B00464F4E41004673
:1002E0004F4E416E65740000B815801C11241FBE6E
:1002F000CFEFDAE0DEBFCDBF13E0A0E0B1E0E4ED88
:10030000F8E402C005900D92A039B107D9F726E0B4
:10031000A0E9B3E001C01D92A939B207E1F711E0ED
:10032000C5E7D1E004C02197FE010E941822C4371E
:10033000D107C9F70E9465170C945D240C94000046
:10034000FC018091FB03882311F13FB7F89482E010
:100350008093E9002091F200822F90E01816190690
:1003600014F481E090E0882339F0289844E6409323
:10037000FA034091F1004083222339F02091F200EA
:10038000211103C02BE62093E8003FBF08958FEFB3
:100390009FEF08952FB7F89483E08093E900909140
:1003A000E800892F807295FF04C09091F20080E4EC
:1003B000891B2FBF08958091F20381110DC082E047
:1003C0008093EE0384E08093EF031092F103109288
:1003D000F00381E08093F2038EEE93E00895409164
:1003E000E4035091E5032091E2033091E3034217C7
:1003F0005307B4F49091E8009570E1F39091E80010
:1004000092FD19C08093F1008091E4039091E5037F
:1004100001968F739927892B19F48EEF8093E8004A
:100420008091E4039091E50301969093E503809316
:10043000E40381E0089580E00895DF92EF92FF9257
:100440000F931F93CF93DF93D82E8A01EB017B018B
:10045000E40EF51ECE15DF0559F0D7FE12C0FE01E1
:1004600084910E94EF0121968111F4CF0FEF1FEFCD
:10047000C801DF91CF911F910F91FF90EF90DF9016
:1004800008958881EECF0F931F93CF93DF931F9230
:10049000CDB7DEB782E0898342E450E06CEE71E0D4
:1004A00080E80E941D020E94DB01DC0112960D9182
:1004B0001C910115110589F0D801ED91FC91028084
:1004C000F381E02DBE016F5F7F4FC801099597FD55
:1004D00004C0F80100851185ECCF89810F90DF9170
:1004E000CF911F910F910895615030F02091F1004C
:1004F000FC0120830196F8CF289884E68093FA03C4
:100500000895DB0114964D915C9115976D917C9146
:10051000DC01ED91FC910280F381E02D0994EF92D2
:10052000FF920F931F93CF93DF938C017B01D0E059
:10053000C0E0F701EC0FFD1F6491662361F0D80164
:10054000ED91FC910190F081E02DC8010995892B76
:1005500011F02196EECFCE01DF91CF911F910F9137
:10056000FF90EF900895AF92BF92CF92DF92EF92FB
:10057000FF920F931F93CF93DF936C017B018B014D
:10058000040F151FEB015E01AE18BF08C017D1079D
:1005900059F06991D601ED91FC910190F081E02D27
:1005A000C6010995892B79F7C501DF91CF911F917C
:1005B0000F91FF90EF90DF90CF90BF90AF90089594
:1005C000CF93DF931F92CDB7DEB76983DC01ED9146
:1005D000FC910280F381E02D41E050E0BE016F5FAD
:1005E0007F4F09950F90DF91CF91089583E080931D
:1005F000E9008091F200882319F08AE38093E800F3
:1006000008950E94CA0190E00895CF93DF931F924E
:10061000CDB7DEB7FC018485958597FD08C02FEF27
:100620003FEF358724870F90DF91CF910895CE015A
:1006300001960E94A001019719F4898190E0F3CFFF
:100640008FEF9FEFF0CF0F931F93CF93DF931F9206
:10065000CDB7DEB78C01FC018485958597FF0BC073
:10066000CE0101960E94A001019771F4898190E06A
:10067000F80195878487F801848595850F90DF912F
:10068000CF911F910F9108958FEF9FEFF1CFFC0154
:100690008485958597FD0BC09FB7F89482E0809381
:1006A000E9008091F2009FBF90E0019608959FB706
:1006B000F89482E08093E9008091F2009FBF90E07F
:1006C000089581508F3008F047C0E82FF0E0E559D9
:1006D000FC4F0C94182288038C037A038003840354
:1006E000AC03AC03AC038F03950399039D03A303F1
:1006F000AC03A703809180008F77809380000895DA
:10070000809180008F7DF9CF80918000877FF5CF29
:1007100084B58F7784BD089584B58F7DFBCF80919C
:1007200090008F77809390000895809190008F7D46
:10073000F9CF80919000877FF5CF8091C0008F77AF
:100740008093C00008958091C0008F7DF9CF809183
:10075000C200877F8093C2000895CF93DF93282F34
:1007600030E0F901E353FE4F8491F901E456FD4F67
:10077000D491F901E358FD4FC491CC23A1F081112C
:100780000E946103EC2FF0E0EE0FFF1FEF59FD4FC9
:10079000A591B491EC91ED2381E090E009F480E023
:1007A000DF91CF91089580E090E0FACF1F93CF932F
:1007B000DF93282F30E0F901E353FE4F8491F901D4
:1007C000E456FD4FD491F901E358FD4FC491CC2379
:1007D000A9F0162F81110E946103EC2FF0E0EE0FBB
:1007E000FF1FE159FD4FA591B4918FB7F894EC919B
:1007F000111108C0D095DE23DC938FBFDF91CF911C
:100800001F910895DE2BF8CFCF93DF9390E0FC018A
:10081000E456FD4F249183589D4FFC018491882319
:10082000C9F090E0880F991FFC01E154FE4FA5919B
:10083000B491FC01E159FD4FC591D49161110DC0F6
:100840009FB7F8948C91209582238C9388812823DC
:1008500028839FBFDF91CF910895623051F49FB7F5
:10086000F8943C91822F809583238C93E8812E2BE2
:10087000EFCF8FB7F894EC912E2B2C938FBFEACF4C
:10088000823108F08251E82FF0E0ED54FE4FE49100
:1008900090917B008E2F880F880F80729F7D892B0F
:1008A00080937B00E770E064E0937C0080917A00A5
:1008B000806480937A0080917A0086FDFCCF8091DD
:1008C00078009091790008953FB7F8948091DE0305
:1008D0009091DF03A091E003B091E10326B5A89BBE
:1008E00005C02F3F19F00196A11DB11D3FBFBA2FC2
:1008F000A92F982F8827BC01CD01620F711D811D82
:10090000911D42E0660F771F881F991F4A95D1F706
:1009100008958F929F92AF92BF92CF92DF92EF9203
:10092000FF924B015C010E9464046B017C010E94F8
:1009300064046C197D098E099F09683E7340810526
:100940009105A8F321E0821A9108A108B10888EE68
:10095000C80E83E0D81EE11CF11C81149104A1048F
:10096000B10429F7FF90EF90DF90CF90BF90AF9048
:100970009F908F9008958F929F92AF92BF92CF9247
:10098000DF92EF92FF920F931F93CF93DF936C014F
:100990007B018A0180911501882309F45CC0809154
:1009A000FB03882309F457C08091E80380FF05C04A
:1009B0008091E00082608093E000E801B12C8AEF32
:1009C000A82E93E0892E2AE3922E209711F4BB20C3
:1009D000D9F10E94CA0181110AC0AA94AA20D9F1B2
:1009E00061E070E080E090E00E948904EECF8C1717
:1009F0001D0611F00CF08C2F9FB7F8948092E9003F
:100A00002091E80025FD02C09FBFDFCF282F30E0F6
:100A1000C21BD30BF701815020F041914093F100AC
:100A2000FACFE20EF31EBB2021F09092E800B12C29
:100A3000EBCF8091E80085FDE7CF9092E800BB24E2
:100A4000B394209709F3F3CF5D9884E68093E7038E
:100A5000101611063CF081E090E0F601938382834A
:100A600010E000E0C801DF91CF911F910F91FF903E
:100A7000EF90DF90CF90BF90AF909F908F900895B0
:100A80002FB7F8946091DA037091DB038091DC0357
:100A90009091DD032FBF08950895CF93DF93EC016C
:100AA0008A859B85AC85BD858E839F83A887B98702
:100AB0000E9440056A837B838C839D8381E08983C8
:100AC0008883DF91CF910895CF93DF93EC018E81DE
:100AD0009F81A885B9858A839B83AC83BD830E944F
:100AE00040056A877B878C879D8781E0898388831F
:100AF000DF91CF9108952091D7033091D803281723
:100B0000390771F49091D6038091D503981741F07D
:100B1000E091D603F0E0EB56FC4F808190E0089521
:100B20008FEF9FEF08950895EF92FF920F931F9319
:100B3000CF93DF93DC015C96ED90FC905D97E11420
:100B4000F10479F481E090E013969C938E931297D0
:100B500090E080E0DF91CF911F910F91FF90EF9097
:100B600008955196ED91FC91529750968C91509723
:100B7000982F90950FB75E962C915E97122F12705A
:100B800021FD6095F8942081112319F1282B2083F1
:100B9000E7012197F1F728E0462F50E0308160FF10
:100BA0001AC0382B3083E7012197F1F7BA01759508
:100BB0006795215089F7112381F0808189238083F3
:100BC0000FBF5C968D919C910197F1F781E090E0C9
:100BD000C1CF2923DCCF3923E5CF9081892BEFCFFB
:100BE0002091D7033091D8032817390771F48091E9
:100BF000D5032091D60390E0805C9F4F821B910922
:100C000060E470E00E940422089590E080E008957E
:100C10002091D7033091D80328173907B9F4909160
:100C2000D6038091D503981789F0E091D603F0E0C0
:100C3000EB56FC4F80812091D60330E02F5F3F4F71
:100C40002F7333272093D60390E008958FEF9FEF03
:100C50000895E091D703F091D803E817F90769F4F4
:100C6000A389B4899C918589809589238C9310925E
:100C7000D8031092D70381E0089580E00895CF93C0
:100C8000DF93EC018A8D9B8D892B01F18091D70335
:100C90009091D8038C179D07C9F0009711F00E941E
:100CA00029068E8D8E7F8E8F1092D5031092D603DB
:100CB000D093D803C093D703EB89FC8980819D89A9
:100CC000892B808381E0DF91CF91089580E0FBCF75
:100CD000CF93DF93EC019A01AB011B8E1A8E198E14
:100CE000188E1F8A1E8A60E079E08DE390E00E94F2
:100CF0007B20C90103979D8F8C8F8C8568EF680FCF
:100D0000643048F092EF980F943028F096EE980FE8
:100D1000933008F058C0F901F695E795E431F105F4
:100D200008F456C07397FF8BEE8BF9013597F98F56
:100D3000E88FF901EE0FFF1F2E0F3F1F3695279505
:100D4000369527952C5031093B8F2A8F643050F00F
:100D500092EF980F943030F096EE980FF0E0E0E0CC
:100D6000933010F4E8E6F0E09081643048F022EF30
:100D7000280F243028F08A51F0E0E0E0833010F4AE
:100D8000E8E6F0E0916090832C8538EF320F343044
:100D900040F082EF820F843020F086EE820F8330A5
:100DA000D0F48BE690E09C8B8B8B3430B8F42450DD
:100DB000330B81E001C0880F2A95EAF78D8B8C8D6B
:100DC0009D8D0197F1F7CE01DF91CF910C943F06F5
:100DD000E1E0F0E0A8CF90E080E0E5CF88E02E30C1
:100DE00069F382E02F3051F384E0203139F381E060
:100DF000213121F32651330BDCCF885E9E4FDC017D
:100E00008D919C91DC01ED91FC910680F781E02DA4
:100E10000994885E9E4FDC018D919C91DC01ED91DF
:100E2000FC910484F585E02D0994885E9E4FDC01D9
:100E30008D919C91DC01ED91FC910284F385E02D74
:100E40000994885E9E4FDC018D919C91DC01ED91AF
:100E5000FC910190F081E02D0994885E9E4FDC01A9
:100E60008D919C91DC01ED91FC910084F185E02D48
:100E7000099490E080E0089564EF71E080E090E0F4
:100E80000E9489048CEF93E00E944703892B51F064
:100E90008CEF93E00E940503682F85EA95E00E949D
:100EA0009405F0CF85EA95E00E94F005892B51F07A
:100EB00085EA95E00E940806682F8CEF93E00E9477
:100EC000E002F0CF0895CF93C82F61E00E94D603CF
:100ED00064E170E080E090E00E94890460E08C2F83
:100EE000CF910C94D603FB0101900020E9F73197D4
:100EF000AF01461B570BDC01ED91FC910280F381A1
:100F0000E02D09940F931F93CF93DF93EC010E9480
:100F100081028C0163ED72E0CE010E947307800FA5
:100F2000911FDF91CF911F910F9108950F931F9300
:100F3000CF93DF93EC010E948F028C0163ED72E08E
:100F4000CE010E947307800F911FDF91CF911F91F7
:100F50000F9108958F929F92AF92BF920F931F931C
:100F6000CF93DF93CDB7DEB7A1970FB6F894DEBF6E
:100F70000FBECDBF19A2423008F44AE08E010F5DCA
:100F80001F4F842E912CB12CA12CA50194010E94FD
:100F9000E420E62FB901CA01EA3004F5E05DD8018A
:100FA000EE938D01232B242B252B79F790E080E005
:100FB000109729F0BD018CEF93E00E947307A19672
:100FC0000FB6F894DEBF0FBECDBFDF91CF911F915A
:100FD0000F91BF90AF909F908F900895E95CDFCF05
:100FE0000F931F93CF93DF938C01D0E0C0E0611586
:100FF000710519F00E947307EC0163ED72E0C801FE
:101000000E9473078C0F9D1FDF91CF911F910F914D
:1010100008952F923F924F925F926F927F928F929C
:101020009F92AF92BF92CF92DF92EF92FF920F9377
:101030001F93CF93DF93D82FC92F8B010E94F21CEF
:1010400024E630E040E050E00E94E42049019B01AA
:10105000AC0160E876E988E990E00E94F4216B0138
:101060007C01F80191828082ED2FFC2F2191822F4B
:10107000022E000C990BC0970A97C0F32E3239F557
:101080001F0180E8882E86E9982E88E9A82EB12CC9
:101090009AE0492E512C612C712CF101C1911F0154
:1010A0000C2E000CDD0BE097CA30D10580F4C50191
:1010B000B401A30192010E94E42049015A01DE011A
:1010C0000E94A520C60ED71EE81EF91EE6CFA5E099
:1010D000B0E0A70196010E949A206F5F7F4F8F4F6B
:1010E0009F4F23E030E040E050E00E94E420F80110
:1010F00022833383448355831682DF91CF911F91DE
:101100000F91FF90EF90DF90CF90BF90AF909F90A6
:101110008F907F906F905F904F903F902F900895A9
:101120001F93CF93DF93EC0118811D3209F42196B0
:10113000CE010E94F21C9B01AC01A4E6B0E00E942B
:101140009A20AB01BC01FE012991822F022E000CD6
:10115000990BC0970A97B8F32E3231F58181082E8A
:10116000000C990BC0978A309105F0F4AAE0A89F73
:101170009001A99F300D1124C901330FAA0BBB0B9D
:10118000480F591F6A1F7B1F8281082E000C990B84
:10119000C0978A30910540F4092E000CAA0BBB0BB6
:1011A000480F591F6A1F7B1F1D3239F470956095D7
:1011B000509541955F4F6F4F7F4FCB01BA01DF9143
:1011C000CF911F9108950F931F93CF93DF93EC015D
:1011D00088819981009759F02A813B81261737072A
:1011E00030F081E0DF91CF911F910F9108958B0135
:1011F0006F5F7F4F0E945E23009759F09983888329
:101200001B830A832C813D81232B59F7FC0110821B
:10121000E8CF80E0E7CFEF92FF920F931F93CF9339
:10122000DF936115710541F480E0DF91CF911F914B
:101230000F91FF90EF90089541155105B1F07B019A
:10124000EC010C811D81040F151FB8010E94E308F9
:10125000882351F3288139818C819D81B701820FC8
:10126000931F0E942D241D830C8381E0DECFEF921B
:10127000FF920F931F93CF93DF93CDB7DEB76497A1
:101280000FB6F894DEBF0FBECDBF7C01CB01BA0113
:101290008E010F5F1F4F22E044E00E94B61CFC014C
:1012A00001900020E9F73197AF01481B590BBC01B1
:1012B000C7010E940B0964960FB6F894DEBF0FBEFB
:1012C000CDBFDF91CF911F910F91FF90EF900895C7
:1012D000EF92FF920F931F93CF93DF93CDB7DEB7BB
:1012E0002E970FB6F894DEBF0FBECDBF7C01CB01A9
:1012F000BA012AE08E010F5F1F4FA8010E943E1D18
:10130000F80101900020E9F73197AF01401B510B24
:10131000B801C7010E940B092E960FB6F894DEBFE4
:101320000FBECDBFDF91CF911F910F91FF90EF9036
:101330000895EF92FF920F931F93CF93DF93CDB752
:10134000DEB728970FB6F894DEBF0FBECDBF7C0185
:10135000CB014AE08E010F5F1F4FB8010E94331D81
:10136000F80101900020E9F73197AF01401B510BC4
:10137000B801C7010E940B0928960FB6F894DEBF8A
:101380000FBECDBFDF91CF911F910F91FF90EF90D6
:101390000895EF92FF920F931F93CF93DF9300D0A6
:1013A00000D0CDB7DEB77C01862F4AE08E010F5FFB
:1013B0001F4FB80190E00E94331DF80101900020FA
:1013C000E9F73197AF01401B510BB801C7010E94EB
:1013D0000B090F900F900F900F90DF91CF911F91FD
:1013E0000F91FF90EF900895FB0101900020E9F725
:1013F0003197AF01461B570B0C940B09FB0144813D
:101400005581608171810C940B09CF93DF93EC01BE
:1014100088819981009711F00E94D5221982188243
:101420001D821C821B821A82DF91CF910895EF9258
:10143000FF920F931F93CF93DF93EC017B018A01FF
:10144000BA010E94E30881110BC0CE010E94050A77
:10145000CE01DF91CF911F910F91FF90EF900895F2
:101460001D830C83B701888199810E942D24F0CFC0
:10147000FB0101900020E9F73197AF01461B570BA4
:101480000C94170A0F931F93CF93DF93CDB7DEB75A
:1014900062970FB6F894DEBF0FBECDBF8C01CB01B3
:1014A000F8011182108213821282158214824AE09E
:1014B000BE016F5F7F4F0E94331DBE016F5F7F4F84
:1014C000C8010E94380A62960FB6F894DEBF0FBEBC
:1014D000CDBFDF91CF911F910F910895FC01118233
:1014E00010821382128215821482FB010190002067
:1014F000E9F73197AF01461B570B0C94170AEF928F
:10150000FF920F931F93CF93DF93CDB7DEB7A197D1
:101510000FB6F894DEBF0FBECDBF7C01CB01BA0180
:10152000F70111821082138212821582148242E026
:10153000420F8E010F5F1F4F0E94B61C009789F06B
:10154000BC01C7010E94380AA1960FB6F894DEBF0D
:101550000FBECDBFDF91CF911F910F91FF90EF9004
:101560000895C7010E94050AEFCFFC018081918197
:10157000009711F00C94D5220895EF92FF920F93EB
:101580001F93CF93DF93CDB7DEB72C970FB6F894A8
:10159000DEBF0FBECDBF7C010E944005609390036B
:1015A00070939103809392039093930365ED72E09F
:1015B00081E796E00E94380A65ED72E0CE01079659
:1015C0000E946E0A8091750690917606892B81F0B3
:1015D0000091710610917206F70160817181C80156
:1015E0000E944324009721F0801B910B97FFB4C009
:1015F0000E94400500919003109191032091920365
:1016000030919303601B710B820B930B6033754712
:101610008105910508F0A0C065ED72E081E796E0D4
:101620000E94380A8091750690917606892B51F1B7
:1016300064ED72E0CE0101960E946E0A209175065B
:10164000309176064D815E812417350788F18091AF
:10165000710690917206009759F169817A8161153E
:10166000710531F1241B350B820F931F0E94242436
:1016700011E0892B09F410E0CE0101960E94B50A11
:10168000112361F185EA95E00E94F005892B91F024
:1016900085EA95E00E94080689831A8241E050E0BD
:1016A000BE016F5F7F4F81E796E00E940B09EACF92
:1016B00011E0E2CF0E944005009190031091910348
:1016C0002091920330919303601B710B820B930B5B
:1016D000613375478105910508F4A4CF1A821982F8
:1016E0001C821B821E821D826F81788561157105A7
:1016F00031F04B855C85CE0101960E94170A40911E
:101700007506509176066091710670917206CE0151
:1017100001960E940B09811104C0CE0101960E941E
:10172000050A69817A816115710589F04D815E81B3
:10173000CE0107960E94170ACE0101960E94B50AB3
:1017400061E776E08CEF93E00E9482073BCFCE0109
:1017500007960E94050AF0CF8B859C85892BA1F402
:1017600069E571E08CEF93E00E94F00761E08AE0A8
:101770000E94D60368EB7BE080E090E00E94890441
:1017800090E080E00E945D2480917506909176063D
:10179000892B81F00091710610917206F70160812A
:1017A0007181C8010E944324009721F0801B910B96
:1017B00097FF0EC061EA71E08CEF93E00E94F007A2
:1017C000BE01695F7F4F8CEF93E00E948207CECF0E
:1017D000CE0107960E94B50A2C960FB6F894DEBF8C
:1017E0000FBECDBFDF91CF911F910F91FF90EF9072
:1017F00008952F923F924F925F926F927F928F92B5
:101800009F92AF92BF92CF92DF92EF92FF920F938F
:101810001F93CF93DF93CDB7DEB7CC58D1090FB666
:10182000F894DEBF0FBECDBF1092E7058091E805AA
:101830009091E905A091EA05B091EB05CD57DF4FF6
:1018400088839983AA83BB83C358D0401092F5053F
:101850004090F6055090F7056090F8057090F905F6
:1018600010921F068091240690912506A0912606CD
:10187000B0912706C757DF4F88839983AA83BB831C
:10188000C958D04084E00E94AD03C957DF4F998307
:101890008883C758D04085E00E94AD036C0183E186
:1018A0000E9440048C0184E10E9440041C0185E1F7
:1018B0000E9440047C018091C405811124C061EC28
:1018C00071E08CEF93E00E94F0078AE090E00E94C4
:1018D0006307C457DF4F0FB6F894DEBF0FBECDBF0E
:1018E000DF91CF911F910F91FF90EF90DF90CF90FC
:1018F000BF90AF909F908F907F906F905F904F9030
:101900003F902F9008951092C5056091C805709181
:10191000C9058091CA059091CB050E94ED1F28E270
:101920003BE64EE65EE40E9482214B015C01609141
:10193000C6057091C70590E080E00E94ED1F9B01F5
:10194000AC01C501B4010E941621AB01BC0180911C
:10195000CC05811170582AE0CE0189960E947F0A39
:101960001092C5056091CF057091D0058091D10589
:101970009091D2050E94ED1F28E23BE64EE65EE420
:101980000E9482214B015C016091CD057091CE05D2
:1019900090E080E00E94ED1F9B01AC01C501B40105
:1019A0000E941621AB01BC018091D30581117058B2
:1019B0002AE0CE018F960E947F0A10921F06609146
:1019C00024067091250680912606909127060E9494
:1019D000EF1F20E030E048EC52E40E948221AB018E
:1019E000BC012AE0CE01C5960E947F0AC957DF4F8D
:1019F00068817981C758D040CE01CB960E94420AB7
:101A0000B601CE018F5B9F4F0E94420A29961FAEFE
:101A10001EAE29972B961FAE1EAE2B972D961FAE8E
:101A20001EAE2D972AE0AE014F5F5F4F60E070E081
:101A3000CB010E943E1DBE016F5F7F4FCE01895BCF
:101A40009F4F0E94380A22E040E050E0BA01CE01E8
:101A5000835B9F4F0E947F0A70E060E0CE018D5A49
:101A60009F4F0E94420AB701FF0C880B990B52E06E
:101A7000660F771F881F991F5A95D1F72FEF33E014
:101A800040E050E00E947B20B901CE01875A9F4F71
:101A90000E94420A70E060E0CE01815A9F4F0E948E
:101AA000420A65ED72E0CE018B599F4F0E946E0A8B
:101AB00065ED72E0CE0185599F4F0E946E0A65ED7B
:101AC00072E0CE018F589F4F0E946E0A65ED72E062
:101AD000CE0189589F4F0E946E0A65ED72E0CE01DB
:101AE00083589F4F0E946E0A0E944005C090EA03EF
:101AF000D090EB03E090EC03F090ED036C197D09BE
:101B00008E099F0961367A4E8105910508F4DEC27F
:101B10001092F5056091F6057091F7058091F80532
:101B20009091F90520E432E44FE050E00E94E42077
:101B300064E772E02A3010F065ED72E0CE018B5957
:101B40009F4F0E94380A1092F5056091F60570913A
:101B5000F7058091F8059091F90520E137E240E022
:101B600050E00E94E420CA01B90124E630E040E0E0
:101B700050E00E94E4206A3008F0F0C264E772E0AE
:101B8000CE0185599F4F0E94380A1092F505609149
:101B9000F6057091F7058091F8059091F90544E6F6
:101BA000C42ED12CE12CF12CA70196010E94E42037
:101BB000CA01B901A70196010E94E4206A3008F029
:101BC000D0C264E772E0CE018F589F4F0E94380A5E
:101BD0001092E7056091E8057091E9058091EA05AA
:101BE0009091EB0534E6C32ED12CE12CF12CA7010A
:101BF00096010E94E420CA01B901A70196010E9442
:101C0000E4206A3008F0B0C264E772E0CE0189587F
:101C10009F4F0E94380A1092E7056091E805709185
:101C2000E9058091EA059091EB0520E137E240E07B
:101C300050E00E94E42064E772E02A3010F065ED85
:101C400072E0CE0183589F4F0E94380A85EA95E0E2
:101C50000E943F060E9440056093EA037093EB03E5
:101C60008093EC039093ED036BEA71E08CEF93E0CB
:101C70000E948F0260914C0470E090E080E04AE0A6
:101C80000E94AA0769EF71E08CEF93E00E9473074E
:101C900020914C048DE8222331F081E9213019F0A4
:101CA0002F3119F48CEC809394038EEF820F8D31D9
:101CB000B8F430E050E040E02250310941095109C8
:101CC000A8E3B0E00E949A202CE130E040E050E030
:101CD0000E947B202E56310941095109209394031B
:101CE000C09094030C2C000CDD08EE08FF084AE0BD
:101CF000C701B601F7FE0DC06DE28CEF93E00E94C4
:101D0000E00266277727CB016C197D098E099F09B0
:101D10004AE00E94AA0766EA71E08CEF93E00E9415
:101D200096076CEF71E0CE0183960E946E0A69E817
:101D300076E0CE0183960E94FE096DE776E0CE0143
:101D400083960E94FE0960E172E0CE0183960E94B4
:101D5000F40967E172E0CE0183960E94F40967E717
:101D600076E0CE0183960E94FE096AE172E0CE0120
:101D700083960E94F40984E6C82ED12CE12CF12C24
:101D8000CD57DF4F688179818A819B81C358D040CC
:101D9000A70196010E94E42049015A016053784F3F
:101DA000AB0170E060E0CE0183960E9468096CE1AF
:101DB00072E0CE0183960E94F409BE0169587F4FFC
:101DC000CE0183960E94FE09C501B401A7019601C8
:101DD0000E94E420CE0183960E9499096CE172E092
:101DE000CE0183960E94F409BE0163587F4FCE0155
:101DF00083960E94FE0990E1892E97E2992EA12CEC
:101E0000B12CCD57DF4F688179818A819B81C3587E
:101E1000D040A50194010E94E420622F70E0CE0121
:101E200083960E9499096AEF71E0CE0183960E9421
:101E3000F409BE016B597F4FCE0183960E94FE09C3
:101E4000C301B20120E432E44FE050E00E94E420FC
:101E5000622FCE0183960E94C9096CE372E0CE0125
:101E600083960E94F409BE0165597F4FCE01839687
:101E70000E94FE09C301B201A50194010E94E42061
:101E8000CA01B901A70196010E94E420CE01839600
:101E90000E94C9096CE372E0CE0183960E94F409A6
:101EA000BE016F587F4FCE0183960E94FE09C30189
:101EB000B201A70196010E94E420CA01B901A7015D
:101EC00096010E94E420CE0183960E94C9096AE12E
:101ED00072E0CE0183960E94F409BE01675D7F4FD8
:101EE000CE0183960E94FE096AE172E0CE018396DC
:101EF0000E94F409BE01615D7F4FCE0183960E946E
:101F0000FE096AE172E0CE0183960E94F409C75788
:101F1000DF4F688179818A819B81C958D0400E94B6
:101F2000EF1F20E030E048EC52E40E948221AB0138
:101F3000BC01CE0183960E9437096AE172E0CE01AE
:101F400083960E94F40940E050E0BA01CE018396E6
:101F50000E9468096AE172E0CE0183960E94F4094A
:101F600040E050E0BA01CE0183960E9437096AE151
:101F700072E0CE0183960E94F409BE01655C7F4F3A
:101F8000CE0183960E94FE096AE172E0CE0183963B
:101F90000E94F409BE016F5B7F4FCE0183960E94C1
:101FA000FE096AE172E0CE0183960E94F40925E001
:101FB00030E0D8010E941E22CC24CA9423E0D22E05
:101FC000E12CF12CA70196010E947B20BA01A90106
:101FD000CE0183960E9468096AE172E0CE01839681
:101FE0000E94F40925E030E0D1010E941E22A701E1
:101FF00096010E947B20BA01A901CE0183960E941E
:1020000068096AE172E0CE0183960E94F40960914A
:102010004C04CE0183960E94C9096AE172E0CE01A8
:1020200083960E94F409BE01675A7F4FCE018396C2
:102030000E94FE096AE172E0CE0183960E94F409D3
:10204000BE01615A7F4FCE0183960E94FE096FE167
:1020500073E0CE0183960E94F409BE016D5D7F4F4F
:1020600085EA95E00E9482076EE172E0CE0101965A
:102070000E946E0ACE0101960E94BD0ACE01019611
:102080000E94B50A60E08CE00E94D60361E272E033
:1020900085EA95E00E94F00761E372E0CE010196C7
:1020A0000E946E0ACE0101960E94BD0ACE010196E1
:1020B0000E94B50A61E08CE00E94D60386E895E0B4
:1020C0000E943F06CE0183960E94B50ACE01835836
:1020D0009F4F0E94B50ACE0189589F4F0E94B50AB2
:1020E000CE018F589F4F0E94B50ACE0185599F4F50
:1020F0000E94B50ACE018B599F4F0E94B50ACE01AE
:10210000815A9F4F0E94B50ACE01875A9F4F0E9465
:10211000B50ACE018D5A9F4F0E94B50ACE01835B4E
:102120009F4F0E94B50ACE01895B9F4F0E94B50A5E
:10213000CE018F5B9F4F0E94B50ACE01CB960E94C5
:10214000B50ACE01C5960E94B50ACE018F960E94AF
:10215000B50ACE0189960E94B50ABBCB65ED72E047
:102160000FCD65ED72E02FCD65ED72E04FCD1F9282
:102170000F920FB60F9211248F939F938091E100DD
:102180009091E100937F9093E10083FF0FC0109244
:10219000E90091E09093EB001092EC0092E39093B1
:1021A000ED001092FB0398E09093F00082FF22C0B4
:1021B00093E09093E9009091F200992319F09AE34B
:1021C0009093E8009091E703992341F09091E70301
:1021D00091509093E703911101C05D9A9091FA0399
:1021E000992341F09091FA0391509093FA03911141
:1021F00001C0289A84FF18C08091E2008E7E816021
:102200008093E2008091E1008F7E8093E1008091D5
:10221000E8038E7E80618093E8039F918F910F90F9
:102220000FBE0F901F90189580FFF7CF8091E200AE
:102230008E7E80618093E2008091E1008E7E8093AB
:10224000E1008091E8038E7E8160E5CF1F920F92BE
:102250000FB60F921124CF92DF92EF92FF920F935D
:102260001F932F933F934F935F936F937F938F931E
:102270009F93AF93BF93EF93FF93CF93DF93CDB72C
:10228000DEB76C97DEBFCDBF1092E9008091E80009
:1022900083FF25C068E0CE0145960E94740282EF5C
:1022A0008093E8008D8987FF39C09091E80090FF06
:1022B000FCCF982F907609F034C19E894F89588DB4
:1022C0002F89F88C911131C0803861F58091E90334
:1022D0008093F1001092F1008EEF8093E8006C96ED
:1022E0000FB6F894DEBF0FBECDBFDF91CF91FF9147
:1022F000EF91BF91AF919F918F917F916F915F917E
:102300004F913F912F911F910F91FF90EF90DF9090
:10231000CF900F900FBE0F901F9018959EEF909347
:10232000E800C7CF1092F100D5CF913059F4811158
:10233000D3CF4130510581F68091E9038D7F8093A1
:10234000E903CACF933049F48111C6CF413051051A
:1023500019F68091E9038260F2CF953041F48091C3
:10236000E80080FFFCCF20682093E300B5CF9630D3
:1023700009F0A9C00B8D1C8D22E01092E90010928B
:10238000E5031092E403F2122EC01092E3031092C0
:10239000E2030E9443021F8299E09983FA8291E04E
:1023A0009E8390EA98879AEF99872091E403309171
:1023B000E503275F3F4F3C832B838D831092E90019
:1023C0001092E5031092E4031093E3030093E203F9
:1023D00049E050E0BE016F5F7F4F80E00E941D0228
:1023E0000E94430279CF1093E3030093E2030E941B
:1023F000DB01DC0112960D911C910115110509F408
:1024000051C1D801ED91FC910480F581E02DBE0110
:102410006B5E7F4FC8010995009709F03EC1F80136
:1024200000851185EACFF3E0FF120EC08F89882363
:1024300009F440C0823061F440E860E180E592E058
:102440000E94DD14811148CF81E28093EB0047CFD9
:10245000813029F440E86BE084E492E0F1CF8330EE
:1024600099F70E94DB01DC011296ED90FC908E0141
:102470000F5F1F4F6801E114F10479F0D701ED916E
:10248000FC910680F781E02DB801C7010995080F7E
:10249000111DF701E084F184EECFD8011C92F60102
:1024A00001900020E9F73197BF016C197D0940E0E8
:1024B000C601C6CF6EE272E0FB01449150E080E8B5
:1024C0000E941D0209CF973009F4BECF983021F445
:1024D00081E08093F10000CF993009F0FDCE837048
:1024E00009F0B2CFEDE1F1E081E031E096E3219136
:1024F000222371F08093E9003093EB00DF01119704
:102500002C912093EC009093ED008F5F873079F74A
:102510008EE78093EA001092EA008F898093FB0394
:10252000DBCE8B8D9C8D1092E9001092E50310920A
:10253000E4039093E3038093E203898D811192C0B9
:102540008E899D89913A49F4813209F07DCF47E027
:1025500050E06EE071E080E0B3CF913209F074CFCB
:10256000833269F48F89988DB0E0A0E080930A01EE
:1025700090930B01A0930C01B0930D01ADCE80326E
:1025800069F48091E80082FFFCCF67E08EE091E083
:102590000E9474028BEF8093E8009ECE823209F095
:1025A0009BCE8F8980931501EEEFFFE78591949183
:1025B0008B3F9C4D51F1E0E0F8E080910E0190914D
:1025C0000F01A0911001B0911101803B9440A10531
:1025D000B105F1F48091150180FD1AC0EE3F8AE04B
:1025E000F80789F587E797E79183808380916000FA
:1025F0008093E60388E19BE00FB6F894A89580935A
:1026000060000FBE9093600067CEEEEFFAE0D5CF8A
:10261000808191818737974709F05ECEA895809198
:1026200060008861809360008091E6038093600081
:10263000EE3F2AE0F20789F08091FE0A9091FF0AAE
:102640009183808349CE808191818737980751F2A9
:102650009093FF0A8093FE0AC5CF1092FF0A109252
:10266000FE0A3ACE0E94DB01DC0112960D911C910C
:102670000115110509F4E8CED801ED91FC91019006
:10268000F081E02DBE016B5E7F4FC801099581117D
:1026900023CEF80100851185EBCF181619060CF42E
:1026A0001BCED2CEF1E0FF12BECE62E372E004CFC9
:1026B0001F920F920FB60F9211242F933F938F9377
:1026C0009F93AF93BF938091DA039091DB03A09126
:1026D000DC03B091DD033091D90323E0230F2D37C4
:1026E00058F50196A11DB11D2093D9038093DA03FB
:1026F0009093DB03A093DC03B093DD038091DE03B2
:102700009091DF03A091E003B091E1030196A11D38
:10271000B11D8093DE039093DF03A093E003B09399
:10272000E103BF91AF919F918F913F912F910F90B6
:102730000FBE0F901F90189526E8230F0296A11D3B
:10274000B11DD2CF1F920F920FB60F9211242F936B
:102750003F934F935F936F937F938F939F93AF9329
:10276000BF93EF93FF93E0910801F0910901099560
:10277000FF91EF91BF91AF919F918F917F916F9159
:102780005F914F913F912F910F900FBE0F901F902F
:1027900018951F920F920FB60F9211242F933F930B
:1027A0004F935F936F937F938F939F93AF93BF9359
:1027B000EF93FF93E0910601F09107010995FF91D6
:1027C000EF91BF91AF919F918F917F916F915F91A9
:1027D0004F913F912F910F900FBE0F901F90189522
:1027E0001F920F920FB60F9211242F933F934F9386
:1027F0005F936F937F938F939F93AF93BF93EF9369
:10280000FF93E0910401F09105010995FF91EF918B
:10281000BF91AF919F918F917F916F915F914F91F8
:102820003F912F910F900FBE0F901F9018951F9200
:102830000F920FB60F9211242F933F934F935F93F4
:102840006F937F938F939F93AF93BF93EF93FF9378
:10285000E0910201F09103010995FF91EF91BF9181
:10286000AF919F918F917F916F915F914F913F9128
:102870002F910F900FBE0F901F9018951F920F92DF
:102880000FB60F9211242F933F934F935F936F9343
:102890007F938F939F93AF93BF93EF93FF93E091B9
:1028A0000001F09101010995FF91EF91BF91AF9166
:1028B0009F918F917F916F915F914F913F912F9158
:1028C0000F900FBE0F901F9018951F920F920FB68A
:1028D0000F9211242F933F934F935F936F937F93A6
:1028E0008F939F93AF93BF93EF93FF93E091D703A1
:1028F000F091D803309749F0A685B7858585968DE8
:1029000091FF14C09C918923A1F4FF91EF91BF9195
:10291000AF919F918F917F916F915F914F913F9177
:102920002F910F900FBE0F901F9018959C918923A7
:1029300061F7A389B4899C918589809589238C93BB
:10294000868997890197F1F7608D718DA685B78586
:10295000558538E020E0CB010197F1F7822F90E018
:1029600095958795282F4C91452309F02068315083
:1029700091F7868D81FD20958091D50390E0019699
:102980008F7399273091D603381799F0A091D5030A
:10299000B0E0AB56BC4F2C938093D503828D938DC2
:1029A0000197F1F7A389B4898C919589892B8C9330
:1029B000ACCF868D8160868FF1CFEF92FF920F931F
:1029C0001F93CF93DF93F82E192FE62E042F81E06B
:1029D000860F880F0E94EF0183E00E94EF01CF2D48
:1029E000D12FEC0EFD2EF11CCE15DF05B9F007FF3F
:1029F00013C0FE0184910E94EF01182F80E00E9415
:102A0000EF01812321968111EFCFDF91CF911F91AB
:102A10000F91FF90EF9008958881EDCF81E0F5CF81
:102A20000F931F93CF93DF93EC01162F042F1B827C
:102A30001A8288EE93E0A0E0B0E08C839D83AE83A1
:102A4000BF8387E291E0998388831F8A1E8A198E4B
:102A5000188E1B8E1A8E1D8E1C8E6E8D6E7F6D7F56
:102A60006E8F6695617081E06827842F0E94D6037F
:102A700061E0802F0E940404802F90E0FC01E45666
:102A8000FD4FE491E88BFC01E358FD4FE491F0E049
:102A9000EE0FFF1FE159FD4F859194919A8B898B21
:102AA00060E0812F0E9404048E8D81FD04C061E0EE
:102AB000812F0E94D6031C87812F90E0FC01E456F1
:102AC000FD4FE491ED87FC01E358FD4FE491F0E008
:102AD000EE0FFF1FEF59FD4F859194919F878E87D1
:102AE000DF91CF911F910F9108950F931F93CF9373
:102AF000DF9304EF11E0D0E0C0E080916505909194
:102B00006605DC01ED91FC910084F185E02D0995CD
:102B1000892B09F18091650590916605DC01ED91A5
:102B2000FC910284F385E02D09958D3031F38A30D4
:102B300061F4209711F3FE01E35BFB4F16868C2FA7
:102B4000DF91CF911F910F910895FE01E35BFB4F41
:102B500086872196D2CF0150110969F361E070E0B8
:102B600080E090E00E948904CE3FD10530F2E3CFAF
:102B7000CF92DF92EF92FF92CF93DF931092FF03F9
:102B80001092FE0388EEC82E83E0D82EE12CF12CA3
:102B9000C0920004D0920104E0920204F092030477
:102BA00089E391E09093FD038093FC038FEF9FEF07
:102BB00090930904809308046EE372E08FE896E036
:102BC0000E946E0A61E472E089E896E00E946E0A53
:102BD00065ED72E083E896E00E946E0A69E472E0B7
:102BE0008DE796E00E946E0A6AE572E087E796E05C
:102BF0000E946E0A65ED72E081E796E00E946E0A1F
:102C00001092C4051092C5051092C7051092C60512
:102C10001092C8051092C9051092CA051092CB05F2
:102C20001092CC051092CE051092CD051092CF05D2
:102C30001092D0051092D1051092D2051092D305B2
:102C40001092D5051092D4051092D6051092D70592
:102C50001092D8051092D9051092DA051092DC0571
:102C60001092DB051092DD051092DE051092DF0553
:102C70001092E0051092E1051092E6051092E7052A
:102C80001092E8051092E9051092EA051092EB0502
:102C90001092F4051092F5051092F6051092F705C2
:102CA0001092F8051092F905109202061092030690
:102CB000109208061092090610920A0610920B064E
:102CC0001092100610921106109216061092170616
:102CD000109218061092190610921E0610921F06E6
:102CE00010922406109225061092260610922706AE
:102CF00010922C0610922D06109232061092330676
:102D0000109234061092350610923A0610923B0645
:102D1000109240061092410610924206109243060D
:102D2000109248061092490682E08093590610924C
:102D30005A0610925B0610925C0610925E06109284
:102D40005D061092600610925F0610926106109266
:102D50006206109263061092640610926506109245
:102D60006606109267061092680610926906109225
:102D70006A0610926B0610926C0610926D06109205
:102D80006E0610926F061092700610924A064EE080
:102D90006FE085EA95E00E94101548E069E086E85A
:102DA00095E00E9410154EE06FE087E695E00E94E6
:102DB00010151092500410924F04C0925104D092FA
:102DC0005204E0925304F09254048BE491E0909307
:102DD0004E0480934D048AE0809359048FED92E075
:102DE00090935B0580935A0510925D0510925C05E7
:102DF00010925F0510925E051092660510926505AF
:102E0000109260058AED92E09093620580936105CF
:102E100087ED92E0909364058093630590E080E0F5
:102E2000EC0121968897A8F48DE494E00E942D0788
:102E3000892B39F08DE494E00E941507D0E0C0E0C2
:102E4000F3CF61E070E080E090E00E948904CE0161
:102E5000E7CF62EC72E08CEF93E00E948F0260EDAE
:102E600072E08CEF93E00E94960760ED72E0809133
:102E70006505909166050E9496070E9475156BEB9B
:102E800072E08CEF93E00E948F026BE574E08CEFB0
:102E900093E00E94F00769EC72E08BE594E00E94F9
:102EA000191D009781F006960E94D41CC82F0E941D
:102EB00075158C2F80934C04DF91CF91FF90EF908C
:102EC000DF90CF90089580E0F5CFCF93DF9300D0CF
:102ED00000D000D0CDB7DEB7789484B5826084BDD1
:102EE00084B5816084BD85B5826085BD85B581600E
:102EF00085BD80916E00816080936E00109281008C
:102F00008091810082608093810080918100816046
:102F10008093810080918000816080938000809107
:102F200091008260809391008091910081608093F4
:102F30009100809190008160809390008091C10009
:102F400084608093C1008091C10082608093C10041
:102F50008091C10081608093C1008091C300816035
:102F60008093C3008091C00082608093C0008091F4
:102F7000C20081608093C20080917A008460809357
:102F80007A0080917A00826080937A0080917A0042
:102F9000816080937A0080917A00806880937A00C3
:102FA0001092FB031092E9031092E8038091D7007E
:102FB00081608093D70080EA8093D80089B58061D2
:102FC00089BD89B5826089BD09B400FEFDCF61E08D
:102FD00070E080E090E00E9489048091D8008F7CAE
:102FE00080618093D8008091E000807F8093E00032
:102FF0008091E1008E7E8093E1008DE08093E2007D
:10300000559A209A62E084E00E94040462E085E020
:103010000E94040461E08AE00E94040461E08CE004
:103020000E94040460E08AE00E94D60360E08CE025
:103030000E94D60340E855E260E070E086E895E043
:103040000E94680640E052EC61E070E085EA95E09D
:103050000E9468066AE672E085EA95E00E94F00741
:1030600064E670E080E090E00E94890485EA95E0E3
:103070000E94290664E670E080E090E00E948904E6
:1030800040E855E260E070E085EA95E00E9468065D
:103090008FEF9FEF909309048093080468E873E131
:1030A00080E090E00E94890466E772E08CEF93E094
:1030B0000E94F00765EB72E085EA95E00E94F00758
:1030C0006EE172E0CE0101960E946E0ACE01019679
:1030D0000E94BD0ACE0101960E94B50A8CE090E0E4
:1030E0000E9463070E943C0768EB72E085EA95E066
:1030F0000E94F0076EE172E0CE0101960E946E0A16
:10310000CE0101960E94BD0ACE0101960E94B50A29
:103110008CE090E00E9463070E943C0762EC72E042
:1031200085EA95E00E9473076FE876E085EA95E00E
:103130000E9481026CEC72E085EA95E00E947307C0
:103140006EE172E0CE0101960E946E0ACE010196F8
:103150000E94BD0ACE0101960E94B50A8CE090E063
:103160000E9463070E943C0766ED72E085EA95E0E5
:103170000E94F0076EE172E0CE0101960E946E0A95
:10318000CE0101960E94BD0ACE0101960E94B50AA9
:103190008CE090E00E9463070E943C076FED72E0B4
:1031A00085EA95E00E9473076FE876E085EA95E08E
:1031B0000E94810262ED72E085EA95E00E94730749
:1031C0006EE172E0CE0101960E946E0ACE01019678
:1031D0000E94BD0ACE0101960E94B50A8CE090E0E3
:1031E0000E9463070E943C0764EF72E085EA95E065
:1031F0000E94F0076EE172E0CE0101960E946E0A15
:10320000CE0101960E94BD0ACE0101960E94B50A28
:103210008CE090E00E9463070E943C076BE073E043
:1032200085EA95E00E94F0076EE172E0CE0101961A
:103230000E946E0ACE0101960E94BD0ACE0101963F
:103240000E94B50A8CE090E00E9463070E943C0750
:1032500061E273E085EA95E00E94F0076EE172E0BA
:10326000CE0101960E946E0ACE0101960E94BD0A0F
:10327000CE0101960E94B50A8CE090E00E9463079F
:103280000E943C076EE273E085EA95E00E94F00739
:103290006EE172E0CE0101960E946E0ACE010196A7
:1032A0000E94BD0ACE0101960E94B50A61E08CE041
:1032B0000E94D6030E943C0786E895E00E943F06E4
:1032C0000E9440056093EA037093EB038093EC0344
:1032D0009093ED036AE373E08CEF93E00E94F007B4
:1032E0000E94F90B01E080E0682E80E0782E92E0E9
:1032F000C92EEE24E39486E895E00E94F0051816A6
:1033000019060CF0B6C286E895E00E940806182F50
:103310008091610690916206A0916306B091640667
:103320000196A11DB11D8093610690936206A09342
:103330006306B0936406143209F479C2E0915B0627
:1033400015320CF0BEC01A3019F01D3009F07CC2E5
:10335000EF3008F033C1F0E0E65BF94F1082909057
:103360004906992009F42CC120914A06822F022E89
:10337000000C990B3FEB320F363008F0AEC0C79708
:103380008295807F90914B06292F092E000C330BDC
:103390004FEB490F463008F0A8C027533109820F80
:1033A000909148068913F7C080916D0690916E0642
:1033B000A0916F06B09170060196A11DB11D80937A
:1033C0006D0690936E06A0936F06B0937006809181
:1033D0005C06882399F08091650690916606A0911D
:1033E0006706B09168060196A11DB11D8093650620
:1033F00090936606A0936706B0936806B09059064E
:10340000BB2009F47BC021E0B21234C086EE95E007
:103410000E94640584EF95E00E94640580915C063B
:10342000882341F187E0E4EDF5E0A6ECB5E00190FA
:103430000D928A95E1F787E0EBEDF5E0ADECB5E0B4
:1034400001900D928A95E1F70E9440056093E20594
:103450007093E3058093E4059093E505B092C5056C
:10346000B092C40582E096E00E944D0580E196E0AE
:103470000E944D05A0905F06B0906006A114B104B3
:1034800009F42BC2E0915F06F091600666A177A176
:10349000F50186A197A10E942424892B09F01DC261
:1034A000B501C50140960E942D240E944005F501FA
:1034B00060A371A382A393A305A304A3A2A4B3A4AE
:1034C000DDCF1A3209F444CF1C3209F0BDC180911E
:1034D00048068127809348063BCF2156263018F4B2
:1034E000875591094DCFC0974BCF9156963018F420
:1034F0002755310954CF2053310951CF84EF95E03E
:103500000E94640580915C06882321F187E0E4ED48
:10351000F5E0A6ECB5E001900D928A95E1F787E021
:10352000EBEDF5E0ADECB5E001900D928A95E1F799
:103530000E9440056093E2057093E3058093E405E3
:103540009093E505E092C505E092C4058EE196E012
:103550000E944D058091360690913706A09138065D
:10356000B09139068093320690933306A0933406C7
:10357000B09335060E94400560932E0670932F0687
:103580008093300690933106E0922D06E0922C064F
:103590008AE396E06DCF8091690690916A06A091CA
:1035A0006B06B0916C060196A11DB11D8093690652
:1035B00090936A06A0936B06B0936C06912C8DC114
:1035C00090915A06911144C06CE573E08AE496E04C
:1035D0000E942424892B41F062E673E08AE496E09D
:1035E0000E942424892BF1F4E092590680915D0613
:1035F00090915E069093600680935F06A0905F06B0
:10360000B0906006A114B104C9F26AE476E0F50155
:1036100086A197A10E94242497FF58C1F50182A595
:1036200093A5E8CF68E673E08AE496E00E9424243C
:10363000892B41F06EE673E08AE496E00E94242430
:10364000892B19F410925906D1CFC0925906CECFCA
:10365000E0915906E23009F448C080914A06882377
:1036600009F443C020E2E29FF0011124E92B3197D5
:10367000E932F10508F039C0E05CF44E0C941822F0
:10368000691BAA1BB11BB81BBB1BE91BF01BFD1B55
:103690000A1C751B751B751B751B751B751B751B14
:1036A000751B751B751B751B751B751B751B751B9A
:1036B000751B751B751B751B751B751B751B751B8A
:1036C000691BA41BAA1BB11BB81BBB1BC21BCF1BB6
:1036D000DC1B8AE496E00E9490086093FA057093E0
:1036E000FB058093FC059093FD05A0905F06B090CC
:1036F000600690905A06A114B10409F45FCFE091DE
:103700005F06F091600666A177A1F50186A197A1F9
:103710000E942424892B09F051CFF50120A531A561
:10372000892D90E0821793070CF448CF28173907AA
:1037300039F440E150E06AE476E0C5010E943424A7
:10374000F501A2A4B3A4D5CF91E0813409F445C01A
:1037500090E043C064ED75E08AE496E00E940908B9
:10376000C4CF91E0833509F090E09093DA05BDCFA6
:103770006BED75E0F1CF91E0873509F090E0909323
:10378000E105B3CF8AE496E00E94900860930C06AE
:1037900070930D0680930E0690930F06A6CF8AE4D1
:1037A00096E00E94900860931A0670931B0680931F
:1037B0001C0690931D0699CF8AE496E00E94F21CA5
:1037C0006093EC057093ED058093EE059093EF0503
:1037D0008CCF91E081330CF4BBCF90935C0685CF06
:1037E0008AE496E00E94F21C6093360670933706D6
:1037F000809338069093390678CF8AE496E00E9449
:103800009008609344067093450680934606909313
:1038100047066BCF8AE496E00E94900860932806E2
:103820007093290680932A0690932B065ECF109200
:103830005B0610925A0610924806C09259061092E2
:10384000490610925C0657CDEE3040F481E08E0FB1
:1038500080935B06F0E0E65BF94F108380914906A8
:10386000811149CD80914806F82EF126F092480644
:1038700042CD0E9440058090EA039090EB03A09017
:10388000EC03B090ED03681979098A099B0961314D
:1038900077428105910598F08091610690916206CA
:1038A000A0916306B09164060A97A105B10538F4AA
:1038B00064E773E08CEF93E00E94F007FFCF6114A0
:1038C000710409F418CD0E94000015CD892B09F46C
:1038D00075CE1092600610925F0680915A068F5F37
:1038E00080935A0610925B0681E01A3209F080E05C
:1038F00080934906992009F4FECC0E94F90BFBCC79
:10390000CF93DF93C7E2D1E0D0936805C0936705FA
:1039100087E695E00E942906D0938705C093860527
:1039200086E895E00E942906D093A605C093A505D8
:1039300085EA95E00E94290681E796E00E94B50A93
:1039400087E796E00E94B50A8DE796E00E94B50AE7
:1039500083E896E00E94B50A89E896E00E94B50ADD
:103960008FE896E0DF91CF910C94B50AEF920F9318
:103970001F93CF93DF93E80134E047FD34E1042E39
:10398000000C550B57FF03C0519541955109E32E8B
:10399000022F242FAE010E94A61DCE01DF91CF91F0
:1039A0001F910F91EF900895FC0188279927E894C3
:1039B00021912032E9F3293010F02E30C8F32B3258
:1039C00041F02D3239F4689404C00E94621D820FC8
:1039D000911D219120532A30C0F31EF490958195BA
:1039E0009F4F08951F93FC0199278827BC01E894F5
:1039F00011911032E9F3193010F01E30C8F31B3268
:103A000051F01D3249F4689406C00E944D1D610FAB
:103A1000711D811D911D119110531A30B0F33EF4A8
:103A200090958095709561957F4F8F4F9F4F1F9117
:103A30000895FB0155915523A9F0BF01DC014D917B
:103A400045174111E1F759F4CD010590002049F0E7
:103A50004D9140154111C9F3FB014111EFCF81E0B8
:103A600090E001970895BB274A3031F4992322F45E
:103A7000BDE2909581959F4F0C948D1DBB272A30F8
:103A800051F4992342F4BDE290958095709561952B
:103A90007F4F8F4F9F4F0C946B1D592F482F372FFF
:103AA000262F660F771F881F991F660F771F881FA5
:103AB000991F620F731F841F951F660F771F881F42
:103AC000991F08957AE0979F902D879F802D910DE3
:103AD00011240895BB27FA01A62F621771058105ED
:103AE0009105330B30FB66F0AA27660F771F881FFE
:103AF000991FAA1FA21710F0A21B63953850A9F7AF
:103B0000A05DAA3308F0A95DA19336F7B111B19376
:103B10001082CA010C94DD1FBB27FB015527AA2781
:103B2000880F991FAA1FA41710F0A41B839550514A
:103B3000B9F7A05DAA3308F0A95DA193009779F7C2
:103B4000B111B1931192CB010C94DD1FA9E0B0E04B
:103B5000ECEAFDE10C94B3206A01F22EB02E102F96
:103B6000FBE3AF2EA01608F41BE31F5F012F27E035
:103B7000AE014F5F5F4F0E94051FBC018981982FE6
:103B80009970913009F43FC09BE2E1FC04C09E2D86
:103B90009170E0FC3AC05E2D5071E82FE87083FF11
:103BA00046C084E0911101C083E0EF2DE81B8F1522
:103BB00008F0E0E0D6018E2F20E2552351F1992341
:103BC00029F0D6019C93C60101966C0196012D5FE8
:103BD0003F4FE2FE24C08EE4D6018C9391E411960F
:103BE0009C93119712968C93D9018E2F90E281119C
:103BF0001BC0E20FF32FF11D10828EEF9FEF29966D
:103C0000ECE00C94CF209DE2C6CF90E2C4CF2D9380
:103C100081508111FCCFCE0ED11CE0E0D0CF8EE6DA
:103C2000D6018C9391E6DBCF9D938150E0CF482F56
:103C3000447082FF3DC084E0911101C083E08F1584
:103C400010F4EF2DE81BD6018E2F20E2552309F149
:103C5000992329F0D6019C93C60101966C01960127
:103C60002D5F3F4FE2FE1BC089E4D6018C938EE4AA
:103C700011968C93119786E412968C93D9018E2F0E
:103C800090E2882309F4B5CF9D938150FACF2D930C
:103C900081508111FCCFCE0ED11CE0E0D9CF89E656
:103CA000D6018C938EE611968C93119786E6E4CF1D
:103CB0009B0177FF02C030E020E0A1E0B0E091116D
:103CC00002C0B0E0A0E0F9013196AE0FBF1F8B2C0F
:103CD000912CBB2009F461C05401EFEFAE1ABE0A6B
:103CE000AA0DBB1DFA161B0619F014F04F2D4A1B26
:103CF000511188C0E3FC59C07601A42FB0E2A11194
:103D00004FC0C40ED11C992309F45BC040E0D6011A
:103D10001196F60190836D01552309F448C0012FD7
:103D2000060F9A81582F507184FF03C0913309F414
:103D3000015010160CF047C0093008F008E0EEE220
:103D4000FE2E5B01A01AB10885019194819491081F
:103D50002F3F320729F4D601FC92F60131966F010C
:103D60006217730794F1021713077CF5DB01A21B9E
:103D7000B30BAA24A394B12CAC0EBD1EAA0DBB1D7F
:103D800011968C9121503109D601119628153905CB
:103D9000F4F0F60180836D01DBCFB12CA12CA0CF14
:103DA000F701B1937F01A150AACF9111B0CFD601F5
:103DB000942F50E302C05D9391509111FCCFC40E3B
:103DC000D11C40E0ACCF01E0BACF80E3DBCF62177B
:103DD000730731F4963388F4953311F4552369F061
:103DE000F6018083FD01842F90E2811108C0A40FA9
:103DF000B11D1C9290E080E002CF81E3F1CF91935E
:103E00008150F3CF911183CF8ACF283008F027E07B
:103E10003327DA01990F311D87FD91600096610506
:103E2000710539F432602E5F3D9330E32A95E1F756
:103E300008959F3F30F080387105610509F03C5FBF
:103E40003C5F3D93913008F08068911DDF93CF93E4
:103E50001F930F93FF92EF92192F987F9695E92F5A
:103E600096959695E90FFF27EA5FFE4F992733272E
:103E7000EE24FF24A701E70105900894079428F495
:103E8000360FE71EF81E491F511D660F771F881F4A
:103E9000991F0694A1F70590079428F4E70EF81EE1
:103EA000491F561FC11D770F881F991F661F069453
:103EB000A1F70590079428F4F80E491F561FC71F55
:103EC000D11D880F991F661F771F0694A1F70590D3
:103ED000079420F4490F561FC71FD81F990F661F5C
:103EE000771F881F0694A9F784911095177041F0E9
:103EF000D695C79557954795F794E7941A95C1F7C6
:103F0000ECEAF0E0689415901591359165919591E2
:103F100005907FE27395E118F10A430B560BC90B2C
:103F2000D009C0F7E10CF11E431F561FC91FD01D59
:103F30007EF4703311F48A95E6CFE894015030F0A6
:103F4000080F0AF40027021708F4202F2395022FE8
:103F50007A3328F079E37D932A95E9F710C07D93B1
:103F60002A9589F60694979567953795179517942E
:103F7000E118F10A430B560BC90BD00998F02395B1
:103F80007E9173957A3308F070E37C932013B8F731
:103F90007E9170617D9330F0839571E37D9370E342
:103FA0002A95E1F71124EF90FF900F911F91CF9187
:103FB000DF91992787FD90950895DC01FC01672F1B
:103FC00071917723E1F7329704C07C916D937083F0
:103FD0006291AE17BF07C8F30895E89409C097FB34
:103FE0003EF490958095709561957F4F8F4F9F4FD0
:103FF0009923A9F0F92F96E9BB279395F695879514
:1040000077956795B795F111F8CFFAF4BB0F11F4D6
:1040100060FF1BC06F5F7F4F8F4F9F4F16C088237D
:1040200011F096E911C0772321F09EE8872F762FB3
:1040300005C0662371F096E8862F70E060E02AF0F4
:104040009A95660F771F881FDAF7880F96958795E0
:1040500097F9089597F99F6780E870E060E0089508
:104060009FEF80EC089500240A9416161706180690
:104070000906089500240A9412161306140605066C
:104080000895092E0394000C11F4882352F0BB0FFD
:1040900040F4BF2B11F460FF04C06F5F7F4F8F4F60
:1040A0009F4F089557FD9058440F551F59F05F3F9B
:1040B00071F04795880F97FB991F61F09F3F79F04A
:1040C00087950895121613061406551FF2CF4695CC
:1040D000F1DF08C0161617061806991FF1CF86954E
:1040E0007105610508940895E894BB276627772732
:1040F000CB0197F90895052E97FB1EF400940E94BA
:10410000922057FD07D00E94E42007FC03D04EF414
:104110000C94922050954095309521953F4F4F4FEC
:104120005F4F089590958095709561957F4F8F4F63
:104130009F4F08950E940621A59F900DB49F900D5A
:10414000A49F800D911D11240895B7FF0C949A200F
:104150000E949A20821B930B08952F923F924F92B8
:104160005F926F927F928F929F92AF92BF92CF9207
:10417000DF92EF92FF920F931F93CF93DF93CDB710
:10418000DEB7CA1BDB0B0FB6F894DEBF0FBECDBF88
:1041900009942A88398848885F846E847D848C8459
:1041A0009B84AA84B984C884DF80EE80FD800C8162
:1041B0001B81AA81B981CE0FD11D0FB6F894DEBF45
:1041C0000FBECDBFED010895A1E21A2EAA1BBB1BA5
:1041D000FD010DC0AA1FBB1FEE1FFF1FA217B307D3
:1041E000E407F50720F0A21BB30BE40BF50B661FE9
:1041F000771F881F991F1A9469F7609570958095AD
:1042000090959B01AC01BD01CF010895A29FB00123
:10421000B39FC001A39F700D811D1124911DB29FFA
:10422000700D811D1124911D08955058BB27AA2798
:104230000E942D210C9441200E94332038F00E94CE
:104240003A2020F039F49F3F19F426F40C943020E2
:104250000EF4E095E7FB0C942A20E92F0E945220EF
:1042600058F3BA17620773078407950720F079F4AB
:10427000A6F50C9474200EF4E0950B2EBA2FA02D09
:104280000B01B90190010C01CA01A0011124FF2703
:10429000591B99F0593F50F4503E68F11A16F040FE
:1042A000A22F232F342F4427585FF3CF46953795FD
:1042B0002795A795F0405395C9F77EF41F16BA0BC2
:1042C000620B730B840BBAF09150A1F0FF0FBB1F70
:1042D000661F771F881FC2F70EC0BA0F621F731FB9
:1042E000841F48F4879577956795B795F7959E3F16
:1042F00008F0B0CF9395880F08F09927EE0F9795A7
:10430000879508950E9496210C9441200E943A209E
:1043100058F00E94332040F029F45F3F29F00C94BC
:104320002A2051110C9475200C9430200E945220A8
:1043300068F39923B1F3552391F3951B550BBB27D4
:10434000AA2762177307840738F09F5F5F4F220F19
:10435000331F441FAA1FA9F335D00E2E3AF0E0E810
:1043600032D091505040E695001CCAF72BD0FE2F5A
:1043700029D0660F771F881FBB1F261737074807EE
:10438000AB07B0E809F0BB0B802DBF01FF279358A6
:104390005F4F3AF09E3F510578F00C942A200C9420
:1043A00075205F3FE4F3983ED4F386957795679543
:1043B000B795F7959F5FC9F7880F911D96958795DB
:1043C00097F90895E1E0660F771F881FBB1F6217FA
:1043D00073078407BA0720F0621B730B840BBA0BB8
:1043E000EE1F88F7E0950895DB018F939F930E945D
:1043F0009A20BF91AF91A29F800D911DA39F900D18
:10440000B29F900D1124089597FB072E16F4009487
:1044100007D077FD09D00E94252207FC05D03EF485
:10442000909581959F4F0895709561957F4F089560
:10443000EE0FFF1F0590F491E02D09940E940621D4
:10444000B7FF0895821B930B0895AA1BBB1B51E174
:1044500007C0AA1FBB1FA617B70710F0A61BB70BF4
:10446000881F991F5A95A9F780959095BC01CD0199
:1044700008950F931F93CF93DF938230910510F42B
:1044800082E090E0E0919706F091980630E020E01D
:10449000B0E0A0E0309799F42115310509F44AC045
:1044A000281B390B24303105D8F58A819B81611591
:1044B000710589F1FB0193838283FE0111C0408164
:1044C00051810281138148175907E0F048175907B5
:1044D00099F4109761F012960C93129713961C930F
:1044E0003296CF01DF91CF911F910F9108950093E4
:1044F000970610939806F4CF2115310551F0421715
:10450000530738F0A901DB019A01BD01DF01F80171
:10451000C1CFEF01F9CF9093980680939706CDCF46
:10452000FE01E20FF31F81939193225031093983E9
:104530002883D7CF2091950630919606232B41F4FE
:104540002091180130911901309396062093950619
:1045500020911601309117012115310541F42DB735
:104560003EB740911A0150911B01241B350BE0917D
:104570009506F0919606E217F307A0F42E1B3F0B69
:104580002817390778F0AC014E5F5F4F24173507C5
:1045900048F04E0F5F1F5093960640939506819307
:1045A00091939FCFF0E0E0E09CCFCF93DF93009713
:1045B000E9F0FC01329713821282A0919706B09124
:1045C0009806ED0130E020E01097A1F420813181C0
:1045D000820F931F20919506309196062817390770
:1045E00009F061C0F0939606E0939506DF91CF91B4
:1045F0000895EA01CE17DF07E8F54A815B819E0145
:1046000041155105B1F7E901FB83EA8349915991BD
:10461000C40FD51FEC17FD0761F4808191810296CC
:10462000840F951FE90199838883828193819B83FD
:104630008A83F0E0E0E012968D919C9113970097A9
:10464000B9F52D913C911197CD010296820F931FE0
:1046500020919506309196062817390739F630973C
:1046600051F51092980610929706B0939606A09373
:104670009506BCCFD383C28340815181840F951F9F
:10468000C817D90761F44E5F5F4F88819981480F41
:10469000591F518340838A819B8193838283211593
:1046A000310509F0B0CFF0939806E09397069ECFBE
:1046B000FD01DC01C0CF13821282D7CFB0E0A0E0B1
:1046C000E4E6F3E20C94AF208C01009751F4CB01A7
:1046D0000E9439228C01C801CDB7DEB7E0E10C940D
:1046E000CB20FC01E60FF71F9C0122503109E21795
:1046F000F30708F49DC0D901CD91DC911197C6173D
:10470000D70798F0C530D10530F3CE01049786174E
:10471000970708F3C61BD70B2297C193D1936D93CC
:104720007C93CF010E94D522D6CF5B01AC1ABD0A83
:104730004C018C0E9D1EA0919706B0919806512CAD
:10474000412CF12CE12C109731F580919506909138
:1047500096068815990509F05CC04616570608F0BC
:1047600058C08091160190911701009741F48DB7C0
:104770009EB740911A0150911B01841B950BE817BD
:10478000F90708F055C0F0939606E0939506F901F5
:1047900071836083A0CF8D919C91119712966C903C
:1047A000129713967C901397A815B90559F56C01CB
:1047B00042E0C40ED11CCA14DB0420F1AC014A193A
:1047C0005B09DA011296159780F062827382518339
:1047D0004083D9016D937C93E114F10471F0D7010A
:1047E0001396FC93EE93129776CF22968C0F9D1F13
:1047F000F90191838083F301EFCFF0939806E09362
:10480000970669CF4816590608F42C017D01D3019B
:104810009ACFCB010E9439227C01009749F0AE016A
:10482000B8010E941B24C8010E94D522870153CFE2
:1048300010E000E050CFFB01DC0102C001900D92BE
:1048400041505040D8F70895FB01DC018D91019053
:1048500080190110D9F3990B0895FB01DC01019037
:104860000D920020E1F70895FB01DC01415050401A
:1048700048F001900D920020C9F701C01D924150EF
:104880005040E0F70895FB0151915523A9F0BF0175
:10489000DC014D9145174111E1F759F4CD0101902B
:1048A000002049F04D9140154111C9F3FB01411120
:1048B000EFCF81E090E00197089511E0C5E7D1E0E6
:1048C00004C0FE010E9418222196C637D107C9F7FD
:0448D000F894FFCF8A
:1048D4004C054C054C054C054C05FFFFFFFF00E162
:1048E40000000000000000009906800000C18081E3
:1048F400000000000000009405B30239079305F09E
:104904000508067B0500000000E002BB040103F675
:1049140002470305032303000000002107B3023903
:1049240007FD062D07150709074E6F2068617920DA
:104934007265737075657374612064656C206D6F46
:1049440064756C6F2E205265766973617220636F93
:104954006E6578696F6E65732C207461726A657414
:10496400612053494D207920766F6C74616A65210A
:104974000052657370756573746120696E65737038
:1049840065726164612064656C206D6F64756C6F21
:104994000055626963616369C3B36E20696E7661B1
:1049A4006C6964612E206573706572616E646F203A
:1049B400706F7220636F6E657869C3B36E20736124
:1049C40074656C6974616C2E003A200041542B4864
:1049D400545450504152413D2255524C222C2200F5
:1049E4003A3131393034002F3F002C002D004F4B29
:1049F4000041542B48545450414354494F4E3D3088
:104A0400002B48545450414354494F4E3A00656D6D
:104A140000687474703A2F2F006770732E6F72756C
:104A240073732E636F6D2E6D7800383632363433DF
:104A34003033333137363735350041542B495052F2
:104A44003D3936303000496E696369616E646F2E9A
:104A54002E2E206573706572616E646F20686173B9
:104A640074612071756520656C206D6F64756C6F61
:104A740020736520636F6E656374652061206C61CB
:104A8400207265640041540041542B4346554E3D09
:104A9400310041542B435354543D2200222C2222F2
:104AA4002C22220D0A0041542B4349494352004110
:104AB400542B53415042523D332C312C2241504E01
:104AC400222C220041542B53415042523D332C316D
:104AD4002C2255534552222C22220041542B53415F
:104AE4005042523D332C312C22505744222C222246
:104AF4000041542B53415042523D312C310041541A
:104B04002B48545450494E495400496E69636961B5
:104B14006E646F20436F6D756E6963616369C3B3BF
:104B24006E20536174656C6974616C004750524D1A
:104B34004300474E524D4300475047474100474EBC
:104B4400474741006572726F7220646520636F6E1F
:104B5400656369C3B36E2064652047505321000028
:00000001FF
