:100000000C94FD000C94B20F0C948B0F0C94D90F30
:100010000C94D90F0C94D90F0C9425010C94250144
:100020000C9425010C9425010C9425010C942501B8
:100030000C9425010C9425010C9425010C942501A8
:100040000C94410F0C9425010C940F0F0C94E90EA5
:100050000C9425010C9425010C9425010C94250188
:100060000C9425010C94250100407A10F35A00A04D
:10007000724E18090010A5D4E80000E87648170071
:1000800000E40B54020000CA9A3B000000E1F505B1
:10009000000080969800000040420F000000A086FB
:1000A00001000000102700000000E803000000002D
:1000B0006400000000000A000000000001000000D1
:1000C00000002C76D888DC674F0823DFC1DFAE59EB
:1000D000E1B1B796E5E3E453C63AE651997696E87E
:1000E000E6C28426EB898C9B62ED407C6FFCEFBC02
:1000F0009C9F40F2BAA56FA5F490055A2AF75C932D
:100100006B6CF9676DC11BFCE0E40D47FEF520E662
:10011000B500D0ED902E0300943577050080841E45
:10012000080000204E0A000000C80C333333330FA0
:10013000986E12831141EF8D2114893BE65516CF3D
:10014000FEE6DB18D1844B381BF77C1D901DA4BB49
:10015000E424203284725E228100C9F124ECA1E5FE
:100160003D272064426D0052535349203D2000003A
:10017000000000240027002A0000000008000201FF
:100180000000030407000000000000000000000061
:100190000023002600290000000000250028002B75
:1001A0000004040404040404040202020202020320
:1001B000030303030301020408102040800102042A
:1001C000081020010204081020093C2D2D2D2000CC
:1001D000092D2D2D3E20002B4353513A2000415430
:1001E0002B435351004F4B00464F4E4100464F4E5C
:1001F000416E65740000F910C81711241FBECFEFBF
:10020000D8E0DEBFCDBF13E0A0E0B1E0E4E6FFE35D
:1002100002C005900D92A637B107D9F726E0A6E7F0
:10022000B3E001C01D92A63BB207E1F710E0CCEFAE
:10023000D0E004C02197FE010E94601DCB3FD10792
:10024000C9F70E94CC120C94A51F0C940000DB018E
:1002500014964D915C9115976D917C91DC01ED9117
:10026000FC910280F381E02D0994EF92FF920F93AD
:100270001F93CF93DF938C017B01D0E0C0E0F701A7
:10028000EC0FFD1F6491662361F0D801ED91FC91A4
:100290000190F081E02DC8010995892B11F021967C
:1002A000EECFCE01DF91CF911F910F91FF90EF9094
:1002B0000895AF92BF92CF92DF92EF92FF920F9389
:1002C0001F93CF93DF936C017B018B01040F151FEC
:1002D000EB015E01AE18BF08C017D10759F0699154
:1002E000D601ED91FC910190F081E02DC6010995B8
:1002F000892B79F7C501DF91CF911F910F91FF9065
:10030000EF90DF90CF90BF90AF900895FC01538D98
:10031000448D252F30E0842F90E0821B930B5417DF
:1003200010F0CF96089501970895FC01918D828D6C
:10033000981761F0A28DAE0FBF2FB11D5D968C9105
:10034000928D9F5F9F73928F90E008958FEF9FEF44
:100350000895FC01918D828D981731F0828DE80F00
:10036000F11D858D90E008958FEF9FEF0895FC01BA
:10037000918D228D892F90E0805C9F4F821B910987
:100380008F73992708958CEC93E00E94B70121E0C8
:10039000892B09F420E0822F089580E090E0892BDA
:1003A00029F00E94C30181110C9400000895FC0102
:1003B000A48DA80FB92FB11DA35ABF4F2C91848DC6
:1003C00090E001968F739927848FA689B7892C9323
:1003D000A089B1898C91837080648C93938D848D76
:1003E000981306C00288F389E02D80818F7D808379
:1003F0000895EF92FF920F931F93CF93DF93EC0139
:1004000081E0888F9B8D8C8D98131AC0E889F989BB
:10041000808185FF15C09FB7F894EE89FF896083BE
:10042000E889F98980818370806480839FBF81E03F
:1004300090E0DF91CF911F910F91FF90EF90089581
:10044000F62E0B8D10E00F5F1F4F0F731127E02E5C
:100450008C8D8E110CC00FB607FCFACFE889F98994
:10046000808185FFF5CFCE010E94D701F1CFEB8DC2
:10047000EC0FFD2FF11DE35AFF4FF0829FB7F89468
:100480000B8FEA89FB8980818062CFCFCF93DF9386
:10049000EC01888D8823B9F0AA89BB89E889F9899C
:1004A0008C9185FD03C0808186FD0DC00FB607FCD1
:1004B000F7CF8C9185FFF2CF808185FFEDCFCE0104
:1004C0000E94D701E9CFDF91CF910895833081F069
:1004D00028F4813099F08230A9F008958730A9F08E
:1004E0008830C9F08430B1F4809180008F7D03C0E2
:1004F000809180008F7780938000089584B58F77F6
:1005000084BD089584B58F7DFBCF8091B0008F7737
:100510008093B00008958091B0008F7DF9CFCF9384
:10052000DF93282F30E0F901E758FE4F8491F9015D
:10053000EB54FE4FD491F901EF55FE4FC491CC23FB
:10054000A1F081110E946602EC2FF0E0EE0FFF1F78
:10055000E357FE4FA591B491EC91ED2381E090E03B
:1005600009F480E0DF91CF91089580E090E0FACF28
:100570001F93CF93DF93282F30E0F901E758FE4F08
:100580008491F901EB54FE4FD491F901EF55FE4FE0
:10059000C491CC23A9F0162F81110E946602EC2F82
:1005A000F0E0EE0FFF1FE956FE4FA591B4918FB713
:1005B000F894EC91111108C0D095DE23DC938FBF25
:1005C000DF91CF911F910895DE2BF8CFCF93DF936A
:1005D00090E0FC01EB54FE4F24918F559E4FFC019F
:1005E00084918823C9F090E0880F991FFC01E1599C
:1005F000FE4FA591B491FC01E956FE4FC591D491EF
:1006000061110DC09FB7F8948C91209582238C9333
:100610008881282328839FBFDF91CF91089562307E
:1006200051F49FB7F8943C91822F809583238C934B
:10063000E8812E2BEFCF8FB7F894EC912E2B2C93D3
:100640008FBFEACF8E3008F08E5087708064809321
:100650007C0080917A00806480937A0080917A0097
:1006600086FDFCCF809178009091790008953FB786
:10067000F8948091C4039091C503A091C603B091F2
:10068000C70326B5A89B05C02F3F19F00196A11DF1
:10069000B11D3FBFBA2FA92F982F8827BC01CD01CC
:1006A000620F711D811D911D42E0660F771F881F2B
:1006B000991F4A95D1F708958F929F92AF92BF925A
:1006C000CF92DF92EF92FF924B015C010E943703C1
:1006D0006B017C010E9437036C197D098E099F090B
:1006E000683E734081059105A8F321E0821A9108C4
:1006F000A108B10888EEC80E83E0D81EE11CF11CE9
:1007000081149104A104B10429F7FF90EF90DF90C8
:10071000CF90BF90AF909F908F9008952FB7F8948F
:100720006091C0037091C1038091C2039091C30393
:100730002FBF08950895CF93DF93EC018A859B85A1
:10074000AC85BD858E839F83A887B9870E948E0361
:100750006A837B838C839D8381E089838883DF9197
:10076000CF910895CF93DF93EC018E819F81A8856F
:10077000B9858A839B83AC83BD830E948E036A877D
:100780007B878C879D8781E089838883DF91CF91E8
:1007900008952091BD033091BE032817390771F4E5
:1007A0009091BC038091BB03981741F0E091BC038A
:1007B000F0E0E558FC4F808190E008958FEF9FEFC7
:1007C00008950895EF92FF920F931F93CF93DF93B5
:1007D000DC015C96ED90FC905D97E114F10479F4F6
:1007E00081E090E013969C938E93129790E080E0C6
:1007F000DF91CF911F910F91FF90EF900895519647
:10080000ED91FC91529750968C915097982F90951E
:100810000FB75E962C915E97122F127021FD609596
:10082000F8942081112319F1282B2083E7012197C7
:10083000F1F728E0462F50E0308160FF1AC0382BD6
:100840003083E7012197F1F7BA017595679521503B
:1008500089F7112381F08081892380830FBF5C9603
:100860008D919C910197F1F781E090E0C1CF292310
:10087000DCCF3923E5CF9081892BEFCF2091BD03C9
:100880003091BE032817390771F48091BB03209182
:10089000BC0390E0805C9F4F821B910960E470E094
:1008A0000E944C1D089590E080E008952091BD03C2
:1008B0003091BE0328173907B9F49091BC03809199
:1008C000BB03981789F0E091BC03F0E0E558FC4FBA
:1008D00080812091BC0330E02F5F3F4F2F7333277F
:1008E0002093BC0390E008958FEF9FEF0895E0916F
:1008F000BD03F091BE03E817F90769F4A389B48931
:100900009C918589809589238C931092BE031092C7
:10091000BD0381E0089580E00895CF93DF93EC015B
:100920008A8D9B8D892B01F18091BD039091BE032F
:100930008C179D07C9F0009711F00E9477048E8DE7
:100940008E7F8E8F1092BB031092BC03D093BE0398
:10095000C093BD03EB89FC8980819D89892B8083AD
:1009600081E0DF91CF91089580E0FBCFCF93DF93BB
:10097000EC019A01AB011B8E1A8E198E188E1F8AFC
:100980001E8A60E079E08DE390E00E94C31BC901FC
:1009900003979D8F8C8F6C85663108F04BC0C90121
:1009A000969587958431910508F449C043979F8BAC
:1009B0008E8BC9010597998F888FC901880F991F60
:1009C000280F391F36952795369527952C503109D4
:1009D0003B8F2A8F9091680084E0683048F021E0D6
:1009E0006E3008F420E081E001C0880F2A95EAF714
:1009F000892B809368009C852DE630E0983050F07C
:100A00002BE630E09E3030F02CE630E0963110F0EE
:100A100030E020E03C8B2B8B292F30E0983090F495
:100A200081E001C0880F9A95EAF78D8B8C8D9D8DA2
:100A30000197F1F7CE01DF91CF910C948D0481E005
:100A400090E0B5CF9E3040F42850310981E001C0DC
:100A5000880F2A95EAF7E9CF2E503109F7CF885E43
:100A60009E4FDC018D919C91DC01ED91FC91068003
:100A7000F781E02D0994885E9E4FDC018D919C9159
:100A8000DC01ED91FC910484F585E02D0994885EEC
:100A90009E4FDC018D919C91DC01ED91FC910284D3
:100AA000F385E02D0994885E9E4FDC018D919C9129
:100AB000DC01ED91FC910190F081E02D0994885EBC
:100AC0009E4FDC018D919C91DC01ED91FC910084A5
:100AD000F185E02D099490E080E0089564EF71E0E5
:100AE00080E090E00E945C038CEC93E00E94B701F0
:100AF000892B51F08CEC93E00E949501682F82ECD9
:100B000095E00E94E203F0CF82EC95E00E943E0463
:100B1000892B51F082EC95E00E945604682F8CECF2
:100B200093E00E94F901F0CF0895CF93C82F61E0C0
:100B30000E94B80264E170E080E090E00E945C03F3
:100B400060E08C2FCF910C94B802FB010190002043
:100B5000E9F73197AF01461B570BDC01ED91FC9192
:100B60000280F381E02D09940F931F93CF93DF93BD
:100B7000EC010E9427018C016AEB72E0CE010E9419
:100B8000A505800F911FDF91CF911F910F910895BF
:100B90000F931F93CF93DF93EC010E9435018C01DB
:100BA0006AEB72E0CE010E94A505800F911FDF91D4
:100BB000CF911F910F9108958F929F92AF92BF9204
:100BC0000F931F93CF93DF93CDB7DEB7A1970FB6E7
:100BD000F894DEBF0FBECDBF19A2423008F44AE040
:100BE0008E010F5D1F4F842E912CB12CA12CA501DD
:100BF00094010E942C1CE62FB901CA01EA3004F5C9
:100C0000E05DD801EE938D01232B242B252B79F762
:100C100090E080E0109729F0BD018CEC93E00E94F9
:100C2000A505A1960FB6F894DEBF0FBECDBFDF912C
:100C3000CF911F910F91BF90AF909F908F9008958B
:100C4000E95CDFCF0F931F93CF93DF938C01D0E04C
:100C5000C0E06115710519F00E94A505EC016AEB71
:100C600072E0C8010E94A5058C0F9D1FDF91CF91F6
:100C70001F910F9108952F923F924F925F926F9222
:100C80007F928F929F92AF92BF92CF92DF92EF921C
:100C9000FF920F931F93CF93DF93D82FC92F8B0110
:100CA0000E943A1824E630E040E050E00E942C1CFC
:100CB00049019B01AC0160E876E988E990E00E9477
:100CC0003C1D6B017C01F80191828082ED2FFC2F8D
:100CD0002191822F022E000C990BC0970A97C0F326
:100CE0002E3239F51F0180E8882E86E9982E88E992
:100CF000A82EB12C9AE0492E512C612C712CF101B7
:100D0000C1911F010C2E000CDD0BE097CA30D105FC
:100D100080F4C501B401A30192010E942C1C490179
:100D20005A01DE010E94ED1BC60ED71EE81EF91EF9
:100D3000E6CFA5E0B0E0A70196010E94E21B6F5F3D
:100D40007F4F8F4F9F4F23E030E040E050E00E9404
:100D50002C1CF80122833383448355831682DF9150
:100D6000CF911F910F91FF90EF90DF90CF90BF90A8
:100D7000AF909F908F907F906F905F904F903F903B
:100D80002F9008951F93CF93DF93EC0118811D32AC
:100D900009F42196CE010E943A189B01AC01A4E609
:100DA000B0E00E94E21BAB01BC01FE012991822F41
:100DB000022E000C990BC0970A97B8F32E3231F52A
:100DC0008181082E000C990BC0978A309105F0F4B0
:100DD000AAE0A89F9001A99F300D1124C901330FEB
:100DE000AA0BBB0B480F591F6A1F7B1F8281082E5D
:100DF000000C990BC0978A30910540F4092E000C25
:100E0000AA0BBB0B480F591F6A1F7B1F1D3239F4F9
:100E100070956095509541955F4F6F4F7F4FCB0117
:100E2000BA01DF91CF911F9108950F931F93CF9334
:100E3000DF93EC0188819981009759F02A813B81E9
:100E40002617370730F081E0DF91CF911F910F9186
:100E500008958B016F5F7F4F0E94A61E009759F087
:100E6000998388831B830A832C813D81232B59F727
:100E7000FC011082E8CF80E0E7CFEF92FF920F9362
:100E80001F93CF93DF936115710541F480E0DF91EB
:100E9000CF911F910F91FF90EF900895411551054B
:100EA000B1F07B01EC010C811D81040F151FB8010D
:100EB0000E941507882351F3288139818C819D81F7
:100EC000B701820F931F0E94751F1D830C8381E061
:100ED000DECFEF92FF920F931F93CF93DF93CDB7A7
:100EE000DEB764970FB6F894DEBF0FBECDBF7C01AE
:100EF000CB01BA018E010F5F1F4F22E044E00E9438
:100F0000FE17FC0101900020E9F73197AF01481B63
:100F1000590BBC01C7010E943D0764960FB6F894B7
:100F2000DEBF0FBECDBFDF91CF911F910F91FF901C
:100F3000EF900895EF92FF920F931F93CF93DF935B
:100F4000CDB7DEB72E970FB6F894DEBF0FBECDBF7C
:100F50007C01CB01BA012AE08E010F5F1F4FA8016F
:100F60000E948618F80101900020E9F73197AF013F
:100F7000401B510BB801C7010E943D072E960FB6CA
:100F8000F894DEBF0FBECDBFDF91CF911F910F91BF
:100F9000FF90EF900895EF92FF920F931F93CF93DE
:100FA000DF93CDB7DEB728970FB6F894DEBF0FBE3C
:100FB000CDBF7C01CB014AE08E010F5F1F4FB8010E
:100FC0000E947B18F80101900020E9F73197AF01EA
:100FD000401B510BB801C7010E943D0728960FB670
:100FE000F894DEBF0FBECDBFDF91CF911F910F915F
:100FF000FF90EF900895EF92FF920F931F93CF937E
:10100000DF9300D000D0CDB7DEB77C01862F4AE059
:101010008E010F5F1F4FB80190E00E947B18F8010E
:1010200001900020E9F73197AF01401B510BB80147
:10103000C7010E943D070F900F900F900F90DF9116
:10104000CF911F910F91FF90EF900895FB010190B8
:101050000020E9F73197AF01461B570B0C943D0771
:10106000FB0144815581608171810C943D07CF93D0
:10107000DF93EC0188819981009711F00E941D1E79
:10108000198218821D821C821B821A82DF91CF91E5
:101090000895EF92FF920F931F93CF93DF93EC018C
:1010A0007B018A01BA010E94150781110BC0CE0194
:1010B0000E943708CE01DF91CF911F910F91FF90D1
:1010C000EF9008951D830C83B701888199810E9458
:1010D000751FF0CFFB0101900020E9F73197AF01B8
:1010E000461B570B0C9449080F931F93CF93DF9324
:1010F000CDB7DEB762970FB6F894DEBF0FBECDBF97
:101100008C01CB01F80111821082138212821582A8
:1011100014824AE0BE016F5F7F4F0E947B18BE01C0
:101120006F5F7F4FC8010E946A0862960FB6F894FD
:10113000DEBF0FBECDBFDF91CF911F910F910895FC
:10114000FC01118210821382128215821482FB012B
:1011500001900020E9F73197AF01461B570B0C9423
:101160004908EF92FF920F931F93CF93DF93CDB770
:10117000DEB7A1970FB6F894DEBF0FBECDBF7C01DE
:10118000CB01BA01F70111821082138212821582FB
:10119000148242E0420F8E010F5F1F4F0E94FE1724
:1011A000009789F0BC01C7010E946A08A1960FB69A
:1011B000F894DEBF0FBECDBFDF91CF911F910F918D
:1011C000FF90EF900895C7010E943708EFCFFC0110
:1011D00080819181009711F00C941D1E0895EF926B
:1011E000FF920F931F93CF93DF93CDB7DEB72C976A
:1011F0000FB6F894DEBF0FBECDBF7C010E948E03F8
:1012000060937603709377038093780390937903C8
:101210006CEB72E08EE896E00E946A086CEB72E07C
:10122000CE0107960E94A0088091920690919306A5
:10123000892B81F000918E0610918F06F701608155
:101240007181C8010E948B1F009721F0801B910BB8
:1012500097FFB4C00E948E0300917603109177032C
:101260002091780330917903601B710B820B930BF3
:10127000603375478105910508F0A0C06CEB72E002
:101280008EE896E00E946A088091920690919306FB
:10129000892B51F16BEB72E0CE0101960E94A00800
:1012A00020919206309193064D815E812417350777
:1012B00088F180918E0690918F06009759F169818F
:1012C0007A816115710531F1241B350B820F931F53
:1012D0000E946C1F11E0892B09F410E0CE010196E9
:1012E0000E94E708112361F182EC95E00E943E0420
:1012F000892B91F082EC95E00E94560489831A8232
:1013000041E050E0BE016F5F7F4F8EE896E00E94A3
:101310003D07EACF11E0E2CF0E948E0300917603F1
:10132000109177032091780330917903601B710B42
:10133000820B930B613375478105910508F4A4CFA7
:101340001A8219821C821B821E821D826F817885FF
:101350006115710531F04B855C85CE0101960E94C7
:101360004908409192065091930660918E067091C3
:101370008F06CE0101960E943D07811104C0CE0167
:1013800001960E94370869817A816115710589F09B
:101390004D815E81CE0107960E944908CE010196DB
:1013A0000E94E7086EE876E08CEC93E00E94B405BA
:1013B0003BCFCE0107960E943708F0CF8B859C85E6
:1013C000892BA1F460E471E08CEC93E00E9422068A
:1013D00061E08AE00E94B80268EB7BE080E090E088
:1013E0000E945C0390E080E00E94A51F809192061D
:1013F00090919306892B81F000918E0610918F06B3
:10140000F70160817181C8010E948B1F009721F054
:10141000801B910B97FF0EC068E871E08CEC93E0A5
:101420000E942206BE01695F7F4F8CEC93E00E9410
:10143000B405CECFCE0107960E94E7082C960FB6D2
:10144000F894DEBF0FBECDBFDF91CF911F910F91FA
:10145000FF90EF9008952F923F924F925F926F927C
:101460007F928F929F92AF92BF92CF92DF92EF9234
:10147000FF920F931F93CF93DF93CDB7DEB7CC5876
:10148000D1090FB6F894DEBF0FBECDBF109204068F
:101490008091050690910606A0910706B091080676
:1014A000CD57DF4F88839983AA83BB83C358D0402D
:1014B0001092120640901306509014066090150684
:1014C0007090160610923C0680914106909142065B
:1014D000A0914306B0914406C757DF4F8883998394
:1014E000AA83BB83C958D04084E00E948F02C957A9
:1014F000DF4F99838883C758D04085E00E948F02D0
:101500006C018FE00E9422038C0180E10E94220383
:101510001C0181E10E9422037C018091E10581117F
:1015200024C068EA71E08CEC93E00E9422068AE015
:1015300090E00E949505C457DF4F0FB6F894DEBFC8
:101540000FBECDBFDF91CF911F910F91FF90EF9014
:10155000DF90CF90BF90AF909F908F907F906F90D3
:101560005F904F903F902F9008951092E205609108
:10157000E5057091E6058091E7059091E8050E94E8
:10158000351B28E23BE64EE65EE40E94CA1C4B0196
:101590005C016091E3057091E40590E080E00E94B9
:1015A000351B9B01AC01C501B4010E945E1CAB015F
:1015B000BC018091E905811170582AE0CE0189961D
:1015C0000E94B1081092E2056091EC057091ED0562
:1015D0008091EE059091EF050E94351B28E23BE6D5
:1015E0004EE65EE40E94CA1C4B015C016091EA0574
:1015F0007091EB0590E080E00E94351B9B01AC01EF
:10160000C501B4010E945E1CAB01BC018091F005D4
:10161000811170582AE0CE018F960E94B108109275
:101620003C0660914106709142068091430690917C
:1016300044060E94371B20E030E048EC52E40E9450
:10164000CA1CAB01BC012AE0CE01C5960E94B108BC
:10165000C957DF4F68817981C758D040CE01CB96FA
:101660000E947408B601CE018F5B9F4F0E947408E0
:1016700029961FAE1EAE29972B961FAE1EAE2B9736
:101680002D961FAE1EAE2D972AE0AE014F5F5F4F25
:1016900060E070E0CB010E948618BE016F5F7F4F53
:1016A000CE01895B9F4F0E946A0822E040E050E033
:1016B000BA01CE01835B9F4F0E94B10870E060E0E9
:1016C000CE018D5A9F4F0E947408B701FF0C880B02
:1016D000990B52E0660F771F881F991F5A95D1F713
:1016E0002FEF33E040E050E00E94C31BB901CE0170
:1016F000875A9F4F0E94740870E060E0CE01815AC3
:101700009F4F0E9474086CEB72E0CE018B599F4F83
:101710000E94A0086CEB72E0CE0185599F4F0E9499
:10172000A0086CEB72E0CE018F589F4F0E94A0087A
:101730006CEB72E0CE0189589F4F0E94A0086CEBC1
:1017400072E0CE0183589F4F0E94A0080E948E0332
:10175000C090C803D090C903E090CA03F090CB03B7
:101760006C197D098E099F0961367A4E81059105B4
:1017700008F4DEC2109212066091130670911406EE
:10178000809115069091160620E432E44FE050E077
:101790000E942C1C6BE572E02A3010F06CEB72E0BA
:1017A000CE018B599F4F0E946A08109212066091D9
:1017B000130670911406809115069091160620E18B
:1017C00037E240E050E00E942C1CCA01B90124E637
:1017D00030E040E050E00E942C1C6A3008F0F0C27B
:1017E0006BE572E0CE0185599F4F0E946A08109206
:1017F000120660911306709114068091150690915F
:10180000160644E6C42ED12CE12CF12CA70196013A
:101810000E942C1CCA01B901A70196010E942C1C30
:101820006A3008F0D0C26BE572E0CE018F589F4F4E
:101830000E946A08109204066091050670910606DF
:10184000809107069091080634E6C32ED12CE12C36
:10185000F12CA70196010E942C1CCA01B901A70115
:1018600096010E942C1C6A3008F0B0C26BE572E051
:10187000CE0189589F4F0E946A0810920406609119
:10188000050670910606809107069091080620E1F2
:1018900037E240E050E00E942C1C6BE572E02A30F9
:1018A00010F06CEB72E0CE0183589F4F0E946A08E3
:1018B00082EC95E00E948D040E948E036093C80321
:1018C0007093C9038093CA039093CB0367E671E0DA
:1018D0008CEC93E00E9435016091690470E090E027
:1018E00080E04AE00E94DC0560EE71E08CEC93E061
:1018F0000E94A505209169048DE8222331F081E939
:10190000213019F02F3119F48CEC80937A038EEF8B
:10191000820F8D31B8F430E050E040E022503109C0
:1019200041095109A8E3B0E00E94E21B2CE130E03C
:1019300040E050E00E94C31B2E5631094109510975
:1019400020937A03C0907A030C2C000CDD08EE087B
:10195000FF084AE0C701B601F7FE0DC06DE28CEC4E
:1019600093E00E94F90166277727CB016C197D0966
:101970008E099F094AE00E94DC0562E671E08CEC6A
:1019800093E00E94C80563EE71E0CE0183960E9449
:10199000A00866EA76E0CE0183960E9430086AE9E4
:1019A00076E0CE0183960E94300867EF71E0CE01A9
:1019B00083960E9426086EEF71E0CE0183960E9406
:1019C000260864E976E0CE0183960E94300861E043
:1019D00072E0CE0183960E94260884E6C82ED12CA0
:1019E000E12CF12CCD57DF4F688179818A819B8171
:1019F000C358D040A70196010E942C1C49015A01EE
:101A00006053784FAB0170E060E0CE0183960E9496
:101A10009A0763E072E0CE0183960E942608BE0119
:101A200069587F4FCE0183960E943008C501B401EA
:101A3000A70196010E942C1CCE0183960E94CB0721
:101A400063E072E0CE0183960E942608BE016358CF
:101A50007F4FCE0183960E94300890E1892E97E255
:101A6000992EA12CB12CCD57DF4F688179818A81C5
:101A70009B81C358D040A50194010E942C1C622F69
:101A800070E0CE0183960E94CB0761EE71E0CE013B
:101A900083960E942608BE016B597F4FCE01839624
:101AA0000E943008C301B20120E432E44FE050E06C
:101AB0000E942C1C622FCE0183960E94FB0763E2DA
:101AC00072E0CE0183960E942608BE0165597F4FC1
:101AD000CE0183960E943008C301B201A501940192
:101AE0000E942C1CCA01B901A70196010E942C1C5E
:101AF000CE0183960E94FB0763E272E0CE018396DB
:101B00000E942608BE016F587F4FCE0183960E9427
:101B10003008C301B201A70196010E942C1CCA0122
:101B2000B901A70196010E942C1CCE0183960E9448
:101B3000FB0761E072E0CE0183960E942608BE0199
:101B4000675D7F4FCE0183960E94300861E072E0AE
:101B5000CE0183960E942608BE01615D7F4FCE01B3
:101B600083960E94300861E072E0CE0183960E9465
:101B70002608C757DF4F688179818A819B81C958C0
:101B8000D0400E94371B20E030E048EC52E40E9435
:101B9000CA1CAB01BC01CE0183960E94690761E0BB
:101BA00072E0CE0183960E94260840E050E0BA0120
:101BB000CE0183960E949A0761E072E0CE0183967F
:101BC0000E94260840E050E0BA01CE0183960E94B0
:101BD000690761E072E0CE0183960E942608BE018B
:101BE000655C7F4FCE0183960E94300861E072E011
:101BF000CE0183960E942608BE016F5B7F4FCE0107
:101C000083960E94300861E072E0CE0183960E94C4
:101C1000260825E030E0D8010E94661DCC24CA9435
:101C200023E0D22EE12CF12CA70196010E94C31BC8
:101C3000BA01A901CE0183960E949A0761E072E081
:101C4000CE0183960E94260825E030E0D1010E9453
:101C5000661DA70196010E94C31BBA01A901CE010E
:101C600083960E949A0761E072E0CE0183960E94FB
:101C7000260860916904CE0183960E94FB0761E00B
:101C800072E0CE0183960E942608BE01675A7F4FFC
:101C9000CE0183960E94300861E072E0CE01839607
:101CA0000E942608BE01615A7F4FCE0183960E9492
:101CB000300866E073E0CE0183960E942608BE01DC
:101CC0006D5D7F4F82EC95E00E94B40565E072E0A7
:101CD000CE0101960E94A008CE0101960E94EF0855
:101CE000CE0101960E94E70860E08CE00E94B802F5
:101CF00068E072E082EC95E00E94220668E172E002
:101D0000CE0101960E94A008CE0101960E94EF0824
:101D1000CE0101960E94E70861E08CE00E94B802C3
:101D200083EA95E00E948D04CE0183960E94E70825
:101D3000CE0183589F4F0E94E708CE0189589F4FDC
:101D40000E94E708CE018F589F4F0E94E708CE01FE
:101D500085599F4F0E94E708CE018B599F4F0E94E3
:101D6000E708CE01815A9F4F0E94E708CE01875AAB
:101D70009F4F0E94E708CE018D5A9F4F0E94E708AF
:101D8000CE01835B9F4F0E94E708CE01895B9F4F86
:101D90000E94E708CE018F5B9F4F0E94E708CE01AB
:101DA000CB960E94E708CE01C5960E94E708CE01B7
:101DB0008F960E94E708CE0189960E94E708BBCB68
:101DC0006CEB72E00FCD6CEB72E02FCD6CEB72E040
:101DD0004FCD1F920F920FB60F9211242F933F9366
:101DE0004F935F936F937F938F939F93AF93BF9323
:101DF000EF93FF938CEC93E00E94D701FF91EF915A
:101E0000BF91AF919F918F917F916F915F914F9112
:101E10003F912F910F900FBE0F901F9018951F921A
:101E20000F920FB60F9211242F938F939F93EF93DE
:101E3000FF93E091DC03F091DD038081E091E20308
:101E4000F091E30382FD1BC090818091E5038F5FD9
:101E50008F732091E603821741F0E091E503F0E0F3
:101E6000E453FC4F958F8093E503FF91EF919F9191
:101E70008F912F910F900FBE0F901F90189580811A
:101E8000F4CF1F920F920FB60F9211242F933F930E
:101E90008F939F93AF93BF938091C0039091C103A1
:101EA000A091C203B091C3033091BF0323E0230F7D
:101EB0002D3758F50196A11DB11D2093BF038093C6
:101EC000C0039093C103A093C203B093C303809156
:101ED000C4039091C503A091C603B091C7030196B6
:101EE000A11DB11D8093C4039093C503A093C603A5
:101EF000B093C703BF91AF919F918F913F912F9165
:101F00000F900FBE0F901F90189526E8230F029692
:101F1000A11DB11DD2CF1F920F920FB60F921124A7
:101F20002F933F934F935F936F937F938F939F93E1
:101F3000AF93BF93EF93FF93E0910201F091030100
:101F40000995FF91EF91BF91AF919F918F917F91F3
:101F50006F915F914F913F912F910F900FBE0F9016
:101F60001F9018951F920F920FB60F9211242F9366
:101F70003F934F935F936F937F938F939F93AF9311
:101F8000BF93EF93FF93E0910001F0910101099558
:101F9000FF91EF91BF91AF919F918F917F916F9141
:101FA0005F914F913F912F910F900FBE0F901F9017
:101FB00018951F920F920FB60F9211242F933F93F3
:101FC0004F935F936F937F938F939F93AF93BF9341
:101FD000EF93FF93E091BD03F091BE03309749F07A
:101FE000A685B7858585968D91FF14C09C91892320
:101FF000A1F4FF91EF91BF91AF919F918F917F914C
:102000006F915F914F913F912F910F900FBE0F9065
:102010001F9018959C91892361F7A389B4899C919D
:102020008589809589238C93868997890197F1F713
:10203000608D718DA685B785558538E020E0CB0190
:102040000197F1F7822F90E095958795282F4C9175
:10205000452309F02068315091F7868D81FD209548
:102060008091BB0390E001968F7399273091BC0358
:10207000381799F0A091BB03B0E0A558BC4F2C9342
:102080008093BB03828D938D0197F1F7A389B48967
:102090008C919589892B8C93ACCF868D8160868FAE
:1020A000F1CF0F931F93CF93DF93EC01162F042FE3
:1020B0001B821A8288EE93E0A0E0B0E08C839D83BF
:1020C000AE83BF838EE091E0998388831F8A1E8A46
:1020D000198E188E1B8E1A8E1D8E1C8E6E8D6E7F25
:1020E0006D7F6E8F6695617081E06827842F0E94F6
:1020F000B80261E0802F0E94E602802F90E0FC0190
:10210000EB54FE4FE491E88BFC01EF55FE4FE49158
:10211000F0E0EE0FFF1FE956FE4F859194919A8BE8
:10212000898B60E0812F0E94E6028E8D81FD04C0C4
:1021300061E0812F0E94B8021C87812F90E0FC0192
:10214000EB54FE4FE491ED87FC01EF55FE4FE49117
:10215000F0E0EE0FFF1FE357FE4F859194919F87AC
:102160008E87DF91CF911F910F9108950F931F9349
:10217000CF93DF9304EF11E0D0E0C0E080918205BF
:1021800090918305DC01ED91FC910084F185E02DB7
:102190000995892B09F18091820590918305DC01D5
:1021A000ED91FC910284F385E02D09958D3031F39A
:1021B0008A3061F4209711F3FE01E659FB4F168631
:1021C0008C2FDF91CF911F910F910895FE01E65959
:1021D000FB4F86872196D2CF0150110969F361E048
:1021E00070E080E090E00E945C03CE3FD10530F2C9
:1021F000E3CFCF92DF92EF92FF92CF93DF931092D3
:10220000CF031092CE0388EEC82E83E0D82EE12CA7
:10221000F12CC092D003D092D103E092D203F0927D
:10222000D30380E291E09093CD038093CC0385ECBF
:1022300090E09093D9038093D80384EC90E090933E
:10224000DB038093DA0380EC90E09093DD038093CE
:10225000DC0381EC90E09093DF038093DE0382EC5B
:1022600090E09093E1038093E00386EC90E09093FC
:10227000E3038093E2031092E5031092E6031092C9
:10228000E7031092E80365E272E08CEA96E00E94B0
:10229000A00868E272E086EA96E00E94A0086CEB73
:1022A00072E080EA96E00E94A00860E372E08AE9AA
:1022B00096E00E94A00861E472E084E996E00E9442
:1022C000A0086CEB72E08EE896E00E94A0081092E5
:1022D000E1051092E2051092E4051092E3051092D8
:1022E000E5051092E6051092E7051092E8051092B8
:1022F000E9051092EB051092EA051092EC05109298
:10230000ED051092EE051092EF051092F005109277
:10231000F2051092F1051092F3051092F405109257
:10232000F5051092F6051092F7051092F905109236
:10233000F8051092FA051092FB051092FC05109218
:10234000FD051092FE0510920306109204061092ED
:1023500005061092060610920706109208061092C3
:102360001106109212061092130610921406109283
:1023700015061092160610921F0610922006109253
:102380002506109226061092270610922806109213
:102390002D0610922E0610923306109234061092DB
:1023A00035061092360610923B0610923C061092AB
:1023B0004106109242061092430610924406109273
:1023C000490610924A0610924F061092500610923B
:1023D000510610925206109257061092580610920B
:1023E0005D0610925E0610925F06109260061092D3
:1023F00065061092660682E0809376061092770654
:10240000109278061092790610927B0610927A0646
:1024100010927D0610927C0610927E0610927F0626
:102420001092800610928106109282061092830606
:1024300010928406109285061092860610928706E6
:10244000109288061092890610928A0610928B06C6
:1024500010928C0610928D06109267064AE06BE08F
:1024600082EC95E00E94511048E069E083EA95E033
:102470000E9451104AE06BE084E895E00E94511000
:1024800010926D0410926C04C0926E04D0926F048E
:10249000E0927004F092710482E391E090936B04F7
:1024A00080936A048AE0809376048DEE91E09093A5
:1024B00078058093770510927A051092790510922D
:1024C0007C0510927B051092830510928205109274
:1024D0007D0588EE91E090937F0580937E0585EEE3
:1024E00091E0909381058093800590E080E0EC017D
:1024F00021968897A8F48AE694E00E945F05892BCC
:1025000039F08AE694E00E944705D0E0C0E0F3CFBE
:1025100061E070E080E090E00E945C03CE01E7CFD4
:1025200060ED71E08CEC93E00E9435016EED71E09E
:102530008CEC93E00E94C8056EED71E080918205FD
:10254000909183050E94C8050E94B61069EC71E065
:102550008CEC93E00E94350168E774E08CEC93E02A
:102560000E94220667ED71E088E794E00E946118FE
:10257000009781F006960E941C18C82F0E94B61082
:102580008C2F80936904DF91CF91FF90EF90DF90C3
:10259000CF90089580E0F5CFCF93DF9300D000D0A7
:1025A00000D0CDB7DEB7789484B5826084BD84B5A1
:1025B000816084BD85B5826085BD85B5816085BD3E
:1025C00080916E00816080936E00109281008091F6
:1025D000810082608093810080918100816080937E
:1025E0008100809180008160809380008091B100A3
:1025F00084608093B1008091B00081608093B000CE
:1026000080917A00846080937A0080917A00826061
:1026100080937A0080917A00816080937A00809123
:102620007A00806880937A001092C10062E084E0B2
:102630000E94E60262E085E00E94E60261E08AE034
:102640000E94E60261E08CE00E94E60260E08AE01F
:102650000E94B80260E08CE00E94B80240E855E2B7
:1026600060E070E083EA95E00E94B60440E052EC3E
:1026700061E070E082EC95E00E94B60461E572E0F2
:1026800082EC95E00E94220664E670E080E090E033
:102690000E945C0382EC95E00E94770464E670E09F
:1026A00080E090E00E945C0340E855E260E070E06A
:1026B00082EC95E00E94B604E091DC03F091DD032A
:1026C00082E08083E091D803F091D9031082E091F9
:1026D000DA03F091DB038FEC80831092E403E09146
:1026E000E003F091E10386E08083E091DE03F09166
:1026F000DF03808180618083E091DE03F091DF035E
:10270000808188608083E091DE03F091DF03808127
:1027100080688083E091DE03F091DF0380818F7D0C
:10272000808368E873E180E090E00E945C036DE5DF
:1027300072E08CEC93E00E9422066CE972E082EC7D
:1027400095E00E94220665E072E0CE0101960E94AB
:10275000A008CE0101960E94EF08CE0101960E94CA
:10276000E7088CE090E00E9495050E946E056FE9F5
:1027700072E082EC95E00E94220665E072E0CE01F4
:1027800001960E94A008CE0101960E94EF08CE019A
:1027900001960E94E7088CE090E00E9495050E9457
:1027A0006E0569EA72E082EC95E00E94A5056CEA8C
:1027B00076E082EC95E00E94270163EB72E082EC08
:1027C00095E00E94A50565E072E0CE0101960E94A9
:1027D000A008CE0101960E94EF08CE0101960E944A
:1027E000E7088CE090E00E9495050E946E056DEB75
:1027F00072E082EC95E00E94220665E072E0CE0174
:1028000001960E94A008CE0101960E94EF08CE0119
:1028100001960E94E7088CE090E00E9495050E94D6
:102820006E0566EC72E082EC95E00E94A5056CEA0C
:1028300076E082EC95E00E94270169EB72E082EC81
:1028400095E00E94A50565E072E0CE0101960E9428
:10285000A008CE0101960E94EF08CE0101960E94C9
:10286000E7088CE090E00E9495050E946E056BEDF4
:1028700072E082EC95E00E94220665E072E0CE01F3
:1028800001960E94A008CE0101960E94EF08CE0199
:1028900001960E94E7088CE090E00E9495050E9456
:1028A0006E0562EF72E082EC95E00E94220665E020
:1028B00072E0CE0101960E94A008CE0101960E940E
:1028C000EF08CE0101960E94E7088CE090E00E949C
:1028D00095050E946E0568E073E082EC95E00E9429
:1028E000220665E072E0CE0101960E94A008CE01AA
:1028F00001960E94EF08CE0101960E94E7088CE045
:1029000090E00E9495050E946E0565E173E082ECFF
:1029100095E00E94220665E072E0CE0101960E94D9
:10292000A008CE0101960E94EF08CE0101960E94F8
:10293000E70861E08CE00E94B8020E946E0583EA1D
:1029400095E00E948D040E948E036093C8037093EB
:10295000C9038093CA039093CB0361E273E08CECCC
:1029600093E00E9422060E942B0A01E080E0682E7C
:1029700080E0782E92E0C92EEE24E39483EA95E07D
:102980000E943E04181619060CF0B6C283EA95E0C0
:102990000E945604182F80917E0690917F06A09188
:1029A0008006B09181060196A11DB11D80937E061F
:1029B00090937F06A0938006B0938106143209F4A9
:1029C00079C2E091780615320CF0BEC01A3019F0C9
:1029D0001D3009F07CC2EF3008F033C1F0E0E95956
:1029E000F94F108290906606992009F42CC120912D
:1029F0006706822F022E000C990B3FEB320F363008
:102A000008F0AEC0C7978295807F90916806292F05
:102A1000092E000C330B4FEB490F463008F0A8C0CD
:102A200027533109820F909165068913F7C0809171
:102A30008A0690918B06A0918C06B0918D06019626
:102A4000A11DB11D80938A0690938B06A0938C06DE
:102A5000B0938D0680917906882399F08091820643
:102A600090918306A0918406B09185060196A11DE0
:102A7000B11D8093820690938306A0938406B09341
:102A80008506B0907606BB2009F47BC021E0B21227
:102A900034C083E096E00E94B20381E196E00E9498
:102AA000B20380917906882341F187E0E1EFF5E0F8
:102AB000A3EEB5E001900D928A95E1F787E0E8EF8B
:102AC000F5E0AAEEB5E001900D928A95E1F70E943B
:102AD0008E036093FF057093000680930106909328
:102AE0000206B092E205B092E1058FE196E00E9405
:102AF0009B038DE296E00E949B03A0907C06B09021
:102B00007D06A114B10409F430C2E0917C06F09175
:102B10007D0666A177A1F50186A197A10E946C1F91
:102B2000892B09F022C2B501C50140960E94751F8C
:102B30000E948E03F50160A371A382A393A305A352
:102B400004A3A2A4B3A4DDCF1A3209F444CF1C32EB
:102B500009F0BDC1809165068127809365063BCF52
:102B60002156263018F4875591094DCFC0974BCF89
:102B70009156963018F42755310954CF2053310916
:102B800051CF81E196E00E94B203809179068823BB
:102B900021F187E0E1EFF5E0A3EEB5E001900D92C1
:102BA0008A95E1F787E0E8EFF5E0AAEEB5E001905D
:102BB0000D928A95E1F70E948E036093FF05709352
:102BC00000068093010690930206E092E205E092EF
:102BD000E1058BE396E00E949B0380915306909160
:102BE0005406A0915506B091560680934F069093D7
:102BF0005006A0935106B09352060E948E03609334
:102C00004B0670934C0680934D0690934E06E092CF
:102C10004A06E092490687E596E06DCF80918606E8
:102C200090918706A0918806B09189060196A11D12
:102C3000B11D8093860690938706A0938806B09373
:102C40008906912C92C190917706911144C063E45A
:102C500073E087E696E00E946C1F892B41F069E4DF
:102C600073E087E696E00E946C1F892BF1F4E092F6
:102C7000760680917A0690917B0690937D068093EC
:102C80007C06A0907C06B0907D06A114B104C9F228
:102C900067E676E0F50186A197A10E946C1F97FF79
:102CA0005DC1F50182A593A5E8CF6FE473E087E6E7
:102CB00096E00E946C1F892B41F065E573E087E682
:102CC00096E00E946C1F892B19F410927606D1CFE2
:102CD000C0927606CECFE0917606E23009F448C085
:102CE00080916706882309F443C020E2E29FF00147
:102CF0001124E92B3197E932F10508F039C0ED577D
:102D0000F94E0C94601DAC16ED16F416FB16FE166B
:102D10002C17331740174D17B816B816B816B81633
:102D2000B816B816B816B816B816B816B816B81633
:102D3000B816B816B816B816B816B816B816B81623
:102D4000B816B816B816AC16E716ED16F416FB163C
:102D5000FE16051712171F1787E696E00E94C20697
:102D600060931706709318068093190690931A06BD
:102D7000A0907C06B0907D0690907706A114B104D7
:102D800009F45FCFE0917C06F0917D0666A177A102
:102D9000F50186A197A10E946C1F892B09F051CFE4
:102DA000F50120A531A5892D90E0821793070CF439
:102DB00048CF2817390739F440E150E067E676E05C
:102DC000C5010E947C1FF501A2A4B3A4D5CF91E058
:102DD000813409F445C090E043C061EF75E087E6B7
:102DE00096E00E943B06C4CF91E0833509F090E065
:102DF0009093F705BDCF68EF75E0F1CF91E087358F
:102E000009F090E09093FE05B3CF87E696E00E942C
:102E1000C2066093290670932A0680932B0690932E
:102E20002C06A6CF87E696E00E94C206609337067E
:102E3000709338068093390690933A0699CF87E6C7
:102E400096E00E943A186093090670930A068093F0
:102E50000B0690930C068CCF91E081330CF4BBCF22
:102E60009093790685CF87E696E00E943A186093A2
:102E7000530670935406809355069093560678CF68
:102E800087E696E00E94C206609361067093620630
:102E900080936306909364066BCF87E696E00E946A
:102EA000C20660934506709346068093470690934A
:102EB00048065ECF1092780610927706109265064B
:102EC000C0927606109266061092790657CDEE30C3
:102ED00040F481E08E0F80937806F0E0E959F94FD5
:102EE000108380916606811149CD80916506F82E88
:102EF000F126F092650642CD0E948E038090C803B1
:102F00009090C903A090CA03B090CB0368197909C7
:102F10008A099B09613177428105910598F080917A
:102F20007E0690917F06A0918006B09181060A9757
:102F3000A105B10538F46BE573E08CEC93E00E94D9
:102F40002206FFCF6114710409F418CD0E94C30159
:102F5000882309F413CD0E94000010CD892B09F4B9
:102F600070CE10927D0610927C06809177068F5F5E
:102F7000809377061092780681E01A3209F080E09B
:102F800080936606992009F4F9CC0E942B0AF6CCAE
:102F9000CF93DF93CEE0D1E0D0938505C093840535
:102FA00084E895E00E947704D093A405C093A3051C
:102FB00083EA95E00E947704D093C305C093C205CD
:102FC00082EC95E00E9477048EE896E00E94E70884
:102FD00084E996E00E94E7088AE996E00E94E70803
:102FE00080EA96E00E94E70886EA96E00E94E708F9
:102FF0008CEA96E0DF91CF910C94E708EF920F9363
:103000001F93CF93DF93E80134E047FD34E1042EB2
:10301000000C550B57FF03C0519541955109E32E04
:10302000022F242FAE010E94EE18CE01DF91CF9126
:103030001F910F91EF900895FC0188279927E8943C
:1030400021912032E9F3293010F02E30C8F32B32D1
:1030500041F02D3239F4689404C00E94AA18820FFE
:10306000911D219120532A30C0F31EF49095819533
:103070009F4F08951F93FC0199278827BC01E8946E
:1030800011911032E9F3193010F01E30C8F31B32E1
:1030900051F01D3249F4689406C00E949518610FE2
:1030A000711D811D911D119110531A30B0F33EF422
:1030B00090958095709561957F4F8F4F9F4F1F9191
:1030C0000895FB0155915523A9F0BF01DC014D91F5
:1030D00045174111E1F759F4CD010590002049F061
:1030E0004D9140154111C9F3FB014111EFCF81E032
:1030F00090E001970895BB274A3031F4992322F4D8
:10310000BDE2909581959F4F0C94D518BB272A302E
:1031100051F4992342F4BDE29095809570956195A4
:103120007F4F8F4F9F4F0C94B318592F482F372F35
:10313000262F660F771F881F991F660F771F881F1E
:10314000991F620F731F841F951F660F771F881FBB
:10315000991F08957AE0979F902D879F802D910D5C
:1031600011240895BB27FA01A62F62177105810566
:103170009105330B30FB66F0AA27660F771F881F77
:10318000991FAA1FA21710F0A21B63953850A9F728
:10319000A05DAA3308F0A95DA19336F7B111B193F0
:1031A0001082CA010C94251BBB27FB015527AA27B7
:1031B000880F991FAA1FA41710F0A41B83955051C4
:1031C000B9F7A05DAA3308F0A95DA193009779F73C
:1031D000B111B1931192CB010C94251BA9E0B0E081
:1031E000E4EFF8E10C94FB1B6A01F22EB02E102FD5
:1031F000FBE3AF2EA01608F41BE31F5F012F27E0AF
:10320000AE014F5F5F4F0E944D1ABC018981982F1C
:103210009970913009F43FC09BE2E1FC04C09E2DFF
:103220009170E0FC3AC05E2D5071E82FE87083FF8A
:1032300046C084E0911101C083E0EF2DE81B8F159B
:1032400008F0E0E0D6018E2F20E2552351F19923BA
:1032500029F0D6019C93C60101966C0196012D5F61
:103260003F4FE2FE24C08EE4D6018C9391E4119688
:103270009C93119712968C93D9018E2F90E2811115
:103280001BC0E20FF32FF11D10828EEF9FEF2996E6
:10329000ECE00C94171C9DE2C6CF90E2C4CF2D93B6
:1032A00081508111FCCFCE0ED11CE0E0D0CF8EE654
:1032B000D6018C9391E6DBCF9D938150E0CF482FD0
:1032C000447082FF3DC084E0911101C083E08F15FE
:1032D00010F4EF2DE81BD6018E2F20E2552309F1C3
:1032E000992329F0D6019C93C60101966C019601A1
:1032F0002D5F3F4FE2FE1BC089E4D6018C938EE424
:1033000011968C93119786E412968C93D9018E2F87
:1033100090E2882309F4B5CF9D938150FACF2D9385
:1033200081508111FCCFCE0ED11CE0E0D9CF89E6CF
:10333000D6018C938EE611968C93119786E6E4CF96
:103340009B0177FF02C030E020E0A1E0B0E09111E6
:1033500002C0B0E0A0E0F9013196AE0FBF1F8B2C88
:10336000912CBB2009F461C05401EFEFAE1ABE0AE4
:10337000AA0DBB1DFA161B0619F014F04F2D4A1B9F
:10338000511188C0E3FC59C07601A42FB0E2A1110D
:103390004FC0C40ED11C992309F45BC040E0D60194
:1033A0001196F60190836D01552309F448C0012F51
:1033B000060F9A81582F507184FF03C0913309F48E
:1033C000015010160CF047C0093008F008E0EEE29A
:1033D000FE2E5B01A01AB108850191948194910899
:1033E0002F3F320729F4D601FC92F60131966F0186
:1033F0006217730794F1021713077CF5DB01A21B18
:10340000B30BAA24A394B12CAC0EBD1EAA0DBB1DF8
:1034100011968C9121503109D60111962815390544
:10342000F4F0F60180836D01DBCFB12CA12CA0CF8D
:10343000F701B1937F01A150AACF9111B0CFD6016E
:10344000942F50E302C05D9391509111FCCFC40EB4
:10345000D11C40E0ACCF01E0BACF80E3DBCF6217F4
:10346000730731F4963388F4953311F4552369F0DA
:10347000F6018083FD01842F90E2811108C0A40F22
:10348000B11D1C9290E080E002CF81E3F1CF9193D7
:103490008150F3CF911183CF8ACF283008F027E0F5
:1034A0003327DA01990F311D87FD91600096610580
:1034B000710539F432602E5F3D9330E32A95E1F7D0
:1034C00008959F3F30F080387105610509F03C5F39
:1034D0003C5F3D93913008F08068911DDF93CF935E
:1034E0001F930F93FF92EF92192F987F9695E92FD4
:1034F00096959695E90FFF27EE53FF4F99273327AF
:10350000EE24FF24A701E70105900894079428F40E
:10351000360FE71EF81E491F511D660F771F881FC3
:10352000991F0694A1F70590079428F4E70EF81E5A
:10353000491F561FC11D770F881F991F661F0694CC
:10354000A1F70590079428F4F80E491F561FC71FCE
:10355000D11D880F991F661F771F0694A1F705904C
:10356000079420F4490F561FC71FD81F990F661FD5
:10357000771F881F0694A9F784911095177041F062
:10358000D695C79557954795F794E7941A95C1F73F
:10359000E8E6F0E068941590159135916591959164
:1035A00005907FE27395E118F10A430B560BC90BA6
:1035B000D009C0F7E10CF11E431F561FC91FD01DD3
:1035C0007EF4703311F48A95E6CFE894015030F020
:1035D000080F0AF40027021708F4202F2395022F62
:1035E0007A3328F079E37D932A95E9F710C07D932B
:1035F0002A9589F6069497956795379517951794A8
:10360000E118F10A430B560BC90BD00998F023952A
:103610007E9173957A3308F070E37C932013B8F7AA
:103620007E9170617D9330F0839571E37D9370E3BB
:103630002A95E1F71124EF90FF900F911F91CF9100
:10364000DF91992787FD90950895DC01FC01672F94
:1036500071917723E1F7329704C07C916D93708369
:103660006291AE17BF07C8F30895E89409C097FBAD
:103670003EF490958095709561957F4F8F4F9F4F49
:103680009923A9F0F92F96E9BB279395F69587958D
:1036900077956795B795F111F8CFFAF4BB0F11F450
:1036A00060FF1BC06F5F7F4F8F4F9F4F16C08823F7
:1036B00011F096E911C0772321F09EE8872F762F2D
:1036C00005C0662371F096E8862F70E060E02AF06E
:1036D0009A95660F771F881FDAF7880F969587955A
:1036E00097F9089597F99F6780E870E060E0089582
:1036F0009FEF80EC089500240A941616170618060A
:103700000906089500240A941216130614060506E5
:103710000895092E0394000C11F4882352F0BB0F76
:1037200040F4BF2B11F460FF04C06F5F7F4F8F4FD9
:103730009F4F089557FD9058440F551F59F05F3F14
:1037400071F04795880F97FB991F61F09F3F79F0C3
:1037500087950895121613061406551FF2CF469545
:10376000F1DF08C0161617061806991FF1CF8695C7
:103770007105610508940895E894BB2766277727AB
:10378000CB0197F90895052E97FB1EF400940E9433
:10379000DA1B57FD07D00E942C1C07FC03D04EF407
:1037A0000C94DA1B50954095309521953F4F4F4F23
:1037B0005F4F089590958095709561957F4F8F4FDD
:1037C0009F4F08950E944E1CA59F900DB49F900D91
:1037D000A49F800D911D11240895B7FF0C94E21B46
:1037E0000E94E21B821B930B08952F923F924F92EF
:1037F0005F926F927F928F929F92AF92BF92CF9281
:10380000DF92EF92FF920F931F93CF93DF93CDB789
:10381000DEB7CA1BDB0B0FB6F894DEBF0FBECDBF01
:1038200009942A88398848885F846E847D848C84D2
:103830009B84AA84B984C884DF80EE80FD800C81DB
:103840001B81AA81B981CE0FD11D0FB6F894DEBFBE
:103850000FBECDBFED010895A1E21A2EAA1BBB1B1E
:10386000FD010DC0AA1FBB1FEE1FFF1FA217B3074C
:10387000E407F50720F0A21BB30BE40BF50B661F62
:10388000771F881F991F1A9469F760957095809526
:1038900090959B01AC01BD01CF010895A29FB0019D
:1038A000B39FC001A39F700D811D1124911DB29F74
:1038B000700D811D1124911D08955058BB27AA2712
:1038C0000E94751C0C94891B0E947B1B38F00E947F
:1038D000821B20F039F49F3F19F426F40C94781BD6
:1038E0000EF4E095E7FB0C94721BE92F0E949A1BE3
:1038F00058F3BA17620773078407950720F079F425
:10390000A6F50C94BC1B0EF4E0950B2EBA2FA02D3F
:103910000B01B90190010C01CA01A0011124FF277C
:10392000591B99F0593F50F4503E68F11A16F04077
:10393000A22F232F342F4427585FF3CF4695379576
:103940002795A795F0405395C9F77EF41F16BA0B3B
:10395000620B730B840BBAF09150A1F0FF0FBB1FE9
:10396000661F771F881FC2F70EC0BA0F621F731F32
:10397000841F48F4879577956795B795F7959E3F8F
:1039800008F0B0CF9395880F08F09927EE0F979520
:10399000879508950E94DE1C0C94891B0E94821B4F
:1039A00058F00E947B1B40F029F45F3F29F00C94F3
:1039B000721B51110C94BD1B0C94781B0E949A1B16
:1039C00068F39923B1F3552391F3951B550BBB274E
:1039D000AA2762177307840738F09F5F5F4F220F93
:1039E000331F441FAA1FA9F335D00E2E3AF0E0E88A
:1039F00032D091505040E695001CCAF72BD0FE2FD4
:103A000029D0660F771F881FBB1F26173707480767
:103A1000AB07B0E809F0BB0B802DBF01FF2793581F
:103A20005F4F3AF09E3F510578F00C94721B0C9456
:103A3000BD1B5F3FE4F3983ED4F386957795679579
:103A4000B795F7959F5FC9F7880F911D9695879554
:103A500097F90895E1E0660F771F881FBB1F621773
:103A600073078407BA0720F0621B730B840BBA0B31
:103A7000EE1F88F7E0950895DB018F939F930E94D6
:103A8000E21BBF91AF91A29F800D911DA39F900D4E
:103A9000B29F900D1124089597FB072E16F4009401
:103AA00007D077FD09D00E946D1D07FC05D03EF4BC
:103AB000909581959F4F0895709561957F4F0895DA
:103AC000EE0FFF1F0590F491E02D09940E944E1C0B
:103AD000B7FF0895821B930B0895AA1BBB1B51E1EE
:103AE00007C0AA1FBB1FA617B70710F0A61BB70B6E
:103AF000881F991F5A95A9F780959095BC01CD0113
:103B000008950F931F93CF93DF938230910510F4A4
:103B100082E090E0E091B406F091B50630E020E05C
:103B2000B0E0A0E0309799F42115310509F44AC0BE
:103B3000281B390B24303105D8F58A819B8161150A
:103B4000710589F1FB0193838283FE0111C04081DD
:103B500051810281138148175907E0F0481759072E
:103B600099F4109761F012960C93129713961C9388
:103B70003296CF01DF91CF911F910F91089500935D
:103B8000B4061093B506F4CF2115310551F0421754
:103B9000530738F0A901DB019A01BD01DF01F801EB
:103BA000C1CFEF01F9CF9093B5068093B406CDCF86
:103BB000FE01E20FF31F8193919322503109398363
:103BC0002883D7CF2091B2063091B306232B41F43E
:103BD00020910601309107013093B3062093B2067D
:103BE00020910401309105012115310541F42DB7D3
:103BF0003EB74091080150910901241B350BE0911B
:103C0000B206F091B306E217F307A0F42E1B3F0BA8
:103C10002817390778F0AC014E5F5F4F241735073E
:103C200048F04E0F5F1F5093B3064093B206819346
:103C300091939FCFF0E0E0E09CCFCF93DF9300978C
:103C4000E9F0FC01329713821282A091B406B09180
:103C5000B506ED0130E020E01097A1F4208131811C
:103C6000820F931F2091B2063091B30628173907AF
:103C700009F061C0F093B306E093B206DF91CF91F3
:103C80000895EA01CE17DF07E8F54A815B819E01BE
:103C900041155105B1F7E901FB83EA834991599137
:103CA000C40FD51FEC17FD0761F480819181029646
:103CB000840F951FE90199838883828193819B8377
:103CC0008A83F0E0E0E012968D919C911397009723
:103CD000B9F52D913C911197CD010296820F931F5A
:103CE0002091B2063091B3062817390739F630977C
:103CF00051F51092B5061092B406B093B306A09396
:103D0000B206BCCFD383C28340815181840F951FFB
:103D1000C817D90761F44E5F5F4F88819981480FBA
:103D2000591F518340838A819B819383828321150C
:103D3000310509F0B0CFF093B506E093B4069ECFFD
:103D4000FD01DC01C0CF13821282D7CFB0E0A0E02A
:103D5000ECEAFEE10C94F71B8C01009751F4CB01C7
:103D60000E94811D8C01C801CDB7DEB7E0E10C9443
:103D7000131CFC01E60FF71F9C0122503109E217CA
:103D8000F30708F49DC0D901CD91DC911197C617B6
:103D9000D70798F0C530D10530F3CE0104978617C8
:103DA000970708F3C61BD70B2297C193D1936D9346
:103DB0007C93CF010E941D1ED6CF5B01AC1ABD0AB9
:103DC0004C018C0E9D1EA091B406B091B506512CED
:103DD000412CF12CE12C109731F58091B206909195
:103DE000B3068815990509F05CC04616570608F019
:103DF00058C08091040190910501009741F48DB75E
:103E00009EB74091080150910901841B950BE8175A
:103E1000F90708F055C0F093B306E093B206F90134
:103E200071836083A0CF8D919C91119712966C90B5
:103E3000129713967C901397A815B90559F56C0144
:103E400042E0C40ED11CCA14DB0420F1AC014A19B3
:103E50005B09DA011296159780F0628273825183B2
:103E60004083D9016D937C93E114F10471F0D70183
:103E70001396FC93EE93129776CF22968C0F9D1F8C
:103E8000F90191838083F301EFCFF093B506E093BE
:103E9000B40669CF4816590608F42C017D01D301F8
:103EA0009ACFCB010E94811D7C01009749F0AE01A1
:103EB000B8010E94631FC8010E941D1E870153CFD5
:103EC00010E000E050CFFB01DC0102C001900D9238
:103ED00041505040D8F70895FB01DC018D910190CD
:103EE00080190110D9F3990B0895FB01DC010190B1
:103EF0000D920020E1F70895FB01DC014150504094
:103F000048F001900D920020C9F701C01D92415068
:103F10005040E0F70895FB0151915523A9F0BF01EE
:103F2000DC014D9145174111E1F759F4CD010190A4
:103F3000002049F04D9140154111C9F3FB01411199
:103F4000EFCF81E090E00197089510E0CCEFD0E052
:103F500004C0FE010E94601D2196CD3FD107C9F724
:043F6000F894FFCF03
:103F64009A039A030000B606800000000000E203F2
:103F740059016B05E1033E045604C9030000000027
:103F8400F901590186014602B7019501A901000012
:103F94000000530559016B052F055F0547053B05D7
:103FA4004E6F2068617920726573707565737461F2
:103FB4002064656C206D6F64756C6F2E205265767D
:103FC4006973617220636F6E6578696F6E65732CB7
:103FD400207461726A6574612053494D207920769A
:103FE4006F6C74616A6521005265737075657374D2
:103FF4006120696E65737065726164612064656CCB
:10400400206D6F64756C6F0055626963616369C389
:10401400B36E20696E76616C6964612E206573707D
:104024006572616E646F20706F7220636F6E657865
:1040340069C3B36E20736174656C6974616C2E001E
:104044003A200041542B48545450504152413D228F
:1040540055524C222C22003A3131393034002F3F52
:10406400002C002D004F4B0041542B485454504118
:104074004354494F4E3D30002B485454504143540F
:10408400494F4E3A00656D00687474703A2F2F00E2
:104094006770732E6F727573732E636F6D2E6D78E8
:1040A40000383632363433303333313736373535FA
:1040B4000041542B4950523D3936303000496E6925
:1040C4006369616E646F2E2E2E2065737065726154
:1040D4006E646F2068617374612071756520656C0E
:1040E400206D6F64756C6F20736520636F6E6563FC
:1040F40074652061206C6120726564004154004144
:10410400542B4346554E3D310041542B4353545494
:104114003D2200222C22222C22220D0A0041542B63
:1041240043494943520041542B53415042523D3379
:104134002C312C2241504E222C220041542B53412D
:104144005042523D332C312C2255534552222C22BD
:10415400220041542B53415042523D332C312C22E6
:10416400505744222C22220041542B534150425296
:104174003D312C310041542B48545450494E49543C
:1041840000496E696369616E646F20436F6D756E7B
:104194006963616369C3B36E20536174656C697448
:1041A400616C004750524D4300474E524D43004707
:1041B4005047474100474E474741006572726F724E
:1041C40020646520636F6E656369C3B36E206465A4
:0641D400204750532100BA
:00000001FF
