:100000000C9470010C9498010C9498010C94980134
:100010000C9498010C9498010C9498010C949801FC
:100020000C9498010C948B160C9481120C94F01281
:100030000C9498010C9498010C9498010C949801DC
:100040000C9498010C9498010C9498010C949801CC
:100050000C9498010C9498010C9498010C9422151E
:100060000C9498010C9498010C9498010C949801AC
:100070000C9498010C9498010C9498010C9498019C
:100080000C9498010C9498010C9498010C9498018C
:100090000C946C150C9498010C9498010C94980194
:1000A0000C9498010C9498010C949801084AD73B41
:1000B0003BCE016E84BCBFFDC12F3D6C74319ABD37
:1000C00056833DDA3D00C77F11BED9E4BB4C3E915B
:1000D0006BAAAABE000000803F0000407A10F35ACD
:1000E00000A0724E18090010A5D4E80000E8764878
:1000F000170000E40B54020000CA9A3B000000E124
:10010000F505000080969800000040420F000000B6
:10011000A08601000000102700000000E803000096
:1001200000006400000000000A0000000000010060
:10013000000000002C76D888DC674F0823DFC1DF81
:10014000AE59E1B1B796E5E3E453C63AE651997684
:1001500096E8E6C28426EB898C9B62ED407C6FFCBE
:10016000EFBC9C9F40F2BAA56FA5F490055A2AF700
:100170005C936B6CF9676DC11BFCE0E40D47FEF509
:1001800020E6B500D0ED902E030094357705008071
:10019000841E080000204E0A000000C80C333333D0
:1001A000330F986E12831141EF8D2114893BE65570
:1001B00016CFFEE6DB18D1844B381BF77C1D901D53
:1001C000A4BBE424203284725E228100C9F124ECB5
:1001D000A1E53D27070605040100080A0B0C0D09DF
:1001E00000000000240027002A002D00300000003D
:1001F000000200090F0000030401000C00000000D1
:1002000000000000000000000000000000080B00DB
:10021000020202000009040000010202000005249D
:100220000010010524010101042402060524060032
:10023000010705810310004009040100020A0000C3
:100240000007050202400000070583024000000489
:1002500003090412010002EF02014041233680002D
:10026000010102030141726475696E6F204C4C43B9
:100270000041726475696E6F204C656F6E617264C7
:100280006F00000000002300260029002C002F0032
:1002900000000000250028002B002E00310004047F
:1002A000040404030405020202020403020202021F
:1002B00006060606060604040202020404040802F6
:1002C00001104080401020408040800802040180DE
:1002D0004020100201108010204040209B178D1FED
:1002E00011241FBECFEFDAE0DEBFCDBF13E0A0E0E8
:1002F000B1E0E2EBF0E502C005900D92AE37B10738
:10030000D9F726E0AEE7B3E001C01D92A134B207F1
:10031000E1F711E0CFE6D1E004C02197FE010E9491
:100320000726CE36D107C9F70E948B180C944C28AB
:100330000C940000982F2091C20481E0213208F033
:1003400043C080919E048111FCCF8091C10432E0B2
:1003500030939E0490939D049FEF90939C04109281
:100360009B0420939A04A1EAB4E0EAE7F4E090E069
:10037000291331C01092790490917904880F892B48
:100380008093790480917804813049F51092780443
:10039000809179048093BB008091BC0083FDF8CFED
:1003A00085EC8093BC0080919E048230E1F38091C3
:1003B0009C048F3FB1F080919C048032A1F0809129
:1003C0009C04803391F084E01092A0041092C20447
:1003D00010929F0408953D9131939F5FC9CF85EEA0
:1003E000E0CF80E0F1CF82E0EFCF83E0EDCFFC0102
:1003F00080917704882311F13FB7F89482E08093CD
:10040000E9002091F200822F90E01816190614F4EA
:1004100081E090E0882339F0289844E64093760400
:100420004091F1004083222339F02091F200211104
:1004300003C02BE62093E8003FBF08958FEF9FEFA6
:1004400008952FB7F89483E08093E9009091E80035
:10045000892F807295FF04C09091F20080E4891B7F
:100460002FBF089580916E0481110DC082E08093AA
:100470006A0484E080936B0410926D0410926C0403
:1004800081E080936E048AE694E0089508950895CB
:100490004091360450913704209134043091350452
:1004A00042175307B4F49091E8009570E1F39091EE
:1004B000E80092FD19C08093F1008091360490917C
:1004C000370401968F739927892B19F48EEF809347
:1004D000E800809136049091370401969093370498
:1004E0008093360481E0089580E00895DF92EF92D2
:1004F000FF920F931F93CF93DF93D82E8A01EB01C6
:100500007B01E40EF51ECE15DF0559F0D7FE12C0B3
:10051000FE0184910E94480221968111F4CF0FEFD1
:100520001FEFC801DF91CF911F910F91FF90EF90C6
:10053000DF9008958881EECF0F931F93CF93DF93C1
:100540001F92CDB7DEB782E0898342E450E06DE0D0
:1005500072E080E80E9476020E943202DC0112966C
:100560000D911C910115110589F0D801ED91FC91B7
:100570000280F381E02DBE016F5F7F4FC8010995B6
:1005800097FD04C0F80100851185ECCF89810F909B
:10059000DF91CF911F910F910895615030F020911C
:1005A000F100FC0120830196F8CF289884E680931F
:1005B00076040895DB0114964D915C9115976D9129
:1005C0007C91DC01ED91FC910280F381E02D099496
:1005D000AF92BF92CF92DF92EF92FF920F931F9351
:1005E000CF93DF936C017B018B01040F151FEB018F
:1005F0005E01AE18BF08C017D10759F06991D60146
:10060000ED91FC910190F081E02DC6010995892BB7
:1006100079F7C501DF91CF911F910F91FF90EF9076
:10062000DF90CF90BF90AF900895CF93DF931F924C
:10063000CDB7DEB76983DC01ED91FC910280F381D7
:10064000E02D41E050E0BE016F5F7F4F09950F90B4
:10065000DF91CF91089583E08093E9008091F200CB
:10066000882319F08AE38093E80008950E9421020C
:1006700090E00895CF93DF931F92CDB7DEB7FC01D2
:100680008485958597FD08C02FEF3FEF3587248738
:100690000F90DF91CF910895CE0101960E94F7014E
:1006A000019719F4898190E0F3CF8FEF9FEFF0CF9E
:1006B0000F931F93CF93DF931F92CDB7DEB78C01BB
:1006C000FC018485958597FF0BC0CE0101960E94A1
:1006D000F701019771F4898190E0F801958784878B
:1006E000F801848595850F90DF91CF911F910F912F
:1006F00008958FEF9FEFF1CFFC018485958597FDDD
:100700000BC09FB7F89482E08093E9008091F200DB
:100710009FBF90E0019608959FB7F89482E0809380
:10072000E9008091F2009FBF90E0089581508F30E2
:1007300008F047C0E82FF0E0E056FC4F0C94072685
:10074000BD03C103AF03B503B903E103E103E10353
:10075000C403CA03CE03D203D803E103DC038091B0
:1007600080008F77809380000895809180008F7D36
:10077000F9CF80918000877FF5CF84B58F7784BDD6
:10078000089584B58F7DFBCF809190008F77809303
:1007900090000895809190008F7DF9CF8091900016
:1007A000877FF5CF8091C0008F778093C000089538
:1007B0008091C0008F7DF9CF8091C200877F8093A8
:1007C000C2000895CF93DF93282F30E0F901E25162
:1007D000FE4F8491F901E354FD4FD491F901E256A3
:1007E000FD4FC491CC23A1F081110E949603EC2F00
:1007F000F0E0EE0FFF1FEE57FD4FA591B491EC9185
:10080000ED2381E090E009F480E0DF91CF9108953D
:1008100080E090E0FACF1F93CF93DF93282F30E052
:10082000F901E251FE4F8491F901E354FD4FD49157
:10083000F901E256FD4FC491CC23A9F0162F811186
:100840000E949603EC2FF0E0EE0FFF1FE057FD4FE4
:10085000A591B4918FB7F894EC91111108C0D0957F
:10086000DE23DC938FBFDF91CF911F910895DE2BA4
:10087000F8CFCF93DF9390E0FC01E354FD4F249138
:1008800082569D4FFC0184918823C9F090E0880F27
:10089000991FFC01E052FE4FA591B491FC01E05775
:1008A000FD4FC591D49161110DC09FB7F8948C9103
:1008B000209582238C938881282328839FBFDF91F2
:1008C000CF910895623051F49FB7F8943C91822FF4
:1008D000809583238C93E8812E2BEFCF8FB7F894EC
:1008E000EC912E2B2C938FBFEACF823108F08251EE
:1008F000E82FF0E0EC52FE4FE49190917B008E2FB8
:10090000880F880F80729F7D892B80937B00E77012
:10091000E064E0937C0080917A00806480937A00A8
:1009200080917A0086FDFCCF8091780090917900CB
:1009300008953FB7F8948091300490913104A091CC
:100940003204B091330426B5A89B05C02F3F19F09F
:100950000196A11DB11D3FBFBA2FA92F982F88273F
:10096000BC01CD01620F711D811D911D42E0660F1A
:10097000771F881F991F4A95D1F708958F929F92EC
:10098000AF92BF92CF92DF92EF92FF924B015C0148
:100990000E9499046B017C010E9499046C197D09E5
:1009A0008E099F09683E734081059105A8F321E0F7
:1009B000821A9108A108B10888EEC80E83E0D81EFB
:1009C000E11CF11C81149104A104B10429F7FF90EA
:1009D000EF90DF90CF90BF90AF909F908F90089551
:1009E0008F929F92AF92BF92CF92DF92EF92FF923F
:1009F0000F931F93CF93DF936C017B018A0180914A
:100A00000B01882309F45CC080917704882309F4E2
:100A100057C080913A0480FF05C08091E000826059
:100A20008093E000E801B12C8AEFA82E93E0892E94
:100A30002AE3922E209711F4BB20D9F10E942102C3
:100A400081110AC0AA94AA20D9F161E070E080E087
:100A500090E00E94BE04EECF8C171D0611F00CF042
:100A60008C2F9FB7F8948092E9002091E80025FD33
:100A700002C09FBFDFCF282F30E0C21BD30BF7018E
:100A8000815020F041914093F100FACFE20EF31E25
:100A9000BB2021F09092E800B12CEBCF8091E800D0
:100AA00085FDE7CF9092E800BB24B394209709F32B
:100AB000F3CF5D9884E680933904101611063CF05C
:100AC00081E090E0F6019383828310E000E0C801AA
:100AD000DF91CF911F910F91FF90EF90DF90CF901A
:100AE000BF90AF909F908F9008952FB7F89460912A
:100AF0002C0470912D0480912E0490912F042FBF0F
:100B0000089585ED8093BC008091BC0084FDFCCFEE
:100B100010929E04089520910804260F3327331F56
:100B200021323105ECF420919E04FC0190E080E03C
:100B3000243069F082E00895A09108042191AC016D
:100B400048515C4FA40FB52FB11D2C930196861709
:100B500098F380910804680F6093080480E008957A
:100B600081E008950895E091410480914004E817E0
:100B700030F4F0E0E853FC4F808190E008958FEF6F
:100B80009FEF089590914104809140042FEF3FEF33
:100B9000981748F4E92FF0E0E853FC4F208130E04B
:100BA0009F5F90934104C901089580914004909102
:100BB0004104891B990B0895CF92DF92EF92FF9227
:100BC0000F931F93CF93DF937C01CB018A01209178
:100BD0009F04222389F0EB016B01C40ED51ECC15B6
:100BE000DD0569F06991D701ED91FC910190F081EB
:100BF000E02DC7010995F3CF642F0E948B05C80132
:100C0000DF91CF911F910F91FF90EF90DF90CF90E8
:100C10000895CF93DF931F92CDB7DEB769832091FC
:100C20009F042223F9F02091C204203258F021E0E1
:100C300030E0FC013383228390E080E00F90DF916D
:100C4000CF9108958091A004E82FF0E0EF55FB4F7D
:100C5000998190838F5F8093A0048093C20481E088
:100C600090E0ECCF61E0CE0101960E948B05F7CFBA
:100C7000CF93DF93EA0191E090939F048093C104A6
:100C80001092A0041092C20483E195E00E9409062C
:100C9000688183E195E00E94090681E00E949A0143
:100CA00091E0811190E0892FDF91CF910895CF934A
:100CB000DF93EC018A859B85AC85BD858E839F8300
:100CC000A887B9870E9475056A837B838C839D837F
:100CD00081E089838883DF91CF910895CF93DF935B
:100CE000EC018E819F81A885B9858A839B83AC8323
:100CF000BD830E9475056A877B878C879D8781E00D
:100D000089838883DF91CF9108952091C603309124
:100D1000C7032817390771F49091C5038091C40364
:100D2000981741F0E091C503F0E0EC57FC4F80814B
:100D300090E008958FEF9FEF0895EF92FF920F9349
:100D40001F93CF93DF93DC015C96ED90FC905D9751
:100D5000E114F10479F481E090E013969C938E9372
:100D6000129790E080E0DF91CF911F910F91FF905B
:100D7000EF9008955196ED91FC91529750968C9179
:100D80005097982F90950FB75E962C915E97122FE3
:100D9000127021FD6095F8942081112319F1282B00
:100DA0002083E7012197F1F728E0462F50E03081BA
:100DB00060FF1AC0382B3083E7012197F1F7BA01A1
:100DC00075956795215089F7112381F080818923DA
:100DD00080830FBF5C968D919C910197F1F781E024
:100DE00090E0C1CF2923DCCF3923E5CF9081892B37
:100DF000EFCF2091C6033091C7032817390771F44C
:100E00008091C4032091C50390E0805C9F4F821BBA
:100E1000910960E470E00E94F325089590E080E07D
:100E200008952091C6033091C70328173907B9F4F4
:100E30009091C5038091C403981789F0E091C50390
:100E4000F0E0EC57FC4F80812091C50330E02F5F2C
:100E50003F4F2F7333272093C50390E008958FEF02
:100E60009FEF0895E091C603F091C703E817F907D3
:100E700069F4A389B4899C918589809589238C9391
:100E80001092C7031092C60381E0089580E0089590
:100E9000CF93DF93EC018A8D9B8D892B01F180919B
:100EA000C6039091C7038C179D07C9F0009711F0F6
:100EB0000E9432078E8D8E7F8E8F1092C403109207
:100EC000C503D093C703C093C603EB89FC89808117
:100ED0009D89892B808381E0DF91CF91089580E007
:100EE000FBCFCF93DF93EC019A01AB011B8E1A8EDF
:100EF000198E188E1F8A1E8A60E079E08DE390E0DB
:100F00000E94AD23C90103979D8F8C8F8C8568EF5C
:100F1000680F643048F092EF980F943028F096EE06
:100F2000980F933008F058C0F901F695E795E43131
:100F3000F10508F456C07397FF8BEE8BF9013597D6
:100F4000F98FE88FF901EE0FFF1F2E0F3F1F369527
:100F50002795369527952C5031093B8F2A8F643081
:100F600050F092EF980F943030F096EE980FF0E03A
:100F7000E0E0933010F4E8E6F0E09081643048F06F
:100F800022EF280F243028F08A51F0E0E0E083308F
:100F900010F4E8E6F0E0916090832C8538EF320F92
:100FA000343040F082EF820F843020F086EE820FE2
:100FB0008330D0F48BE690E09C8B8B8B3430B8F48C
:100FC0002450330B81E001C0880F2A95EAF78D8BFE
:100FD0008C8D9D8D0197F1F7CE01DF91CF910C940F
:100FE0004807E1E0F0E0A8CF90E080E0E5CF88E0BE
:100FF0002E3069F382E02F3051F384E0203139F351
:1010000081E0213121F32651330BDCCF90E080E0E9
:10101000089564EF71E080E090E00E94BE0483ECEC
:1010200094E00E947C03892B51F083EC94E00E94B1
:101030003A03682F8EE395E00E949D06F0CF8EE381
:1010400095E00E94F906892B51F08EE395E00E940D
:101050001107682F83EC94E00E941503F0CF0895E8
:10106000CF93C82F61E00E940B0464E170E080E040
:1010700090E00E94BE0460E08C2FCF910C940B0492
:101080002F923F924F925F926F927F928F929F9298
:10109000AF92BF92CF92DF92EF92FF920F931F9386
:1010A000CF93DF9300D000D000D01F92CDB7DEB732
:1010B000C82E762E4F833D832C830E9475054B01ED
:1010C0005C012C2D220F2B83DF80612C1E82FF24DC
:1010D000F3948D2D90E09A8389831801512C412C33
:1010E000F0929F04C092C1041092A0041092C20416
:1010F000672D83E195E00E94090681E00E949A0134
:10110000F0929F041092A0041092C20480919E0459
:101110008111FCCF8D2D20E22D1508F480E2F09294
:101120009E04F0929D043FEF30939C0410929B0428
:101130009FEF980F90939A04F0927904909179041C
:101140002B81922B90937904909178049130C1F582
:1011500010927804909179049093BB009091BC0018
:1011600093FDF8CF35EC3093BC0090919E04913004
:10117000E1F390919B04981710F480919B04EAE7A7
:10118000F4E0A8ECB3E0E12CE8121EC01092410498
:10119000E092400480914104E81629F101151105FF
:1011A000B9F483E195E00E94C205EC81FD812E81B6
:1011B000E20FF11D27FDFA9580832F5F2E83EACF82
:1011C00095EE9093BC00D1CF91919D93E394DCCFA9
:1011D0000E947505681979098A099B0962157305CA
:1011E00084059505F0F23F81630ED31A631608F467
:1011F00077CF01151105C1F00E94750568197909AD
:101200008A099B0930E020E0601771078207930785
:1012100058F02E81822F220F990B29813A81821753
:10122000930714F43FEF3E838E8127960FB6F89410
:10123000DEBF0FBECDBFDF91CF911F910F91FF9009
:10124000EF90DF90CF90BF90AF909F908F907F9066
:101250006F905F904F903F902F900895BF92CF92E4
:10126000DF92EF92FF920F931F93CF93DF9300D003
:10127000CDB7DEB7F82EE62EC42EB22ED02E08EE55
:1012800013E09E012E5F3F4F41E00E9440088823FB
:1012900099F18C2D8B19990BAC014F5F5F4F81E059
:1012A00090E002C0880F991FBA94E2F70197042ECC
:1012B00001C0880F0A94EAF70D2D01C0000F4A956E
:1012C000EAF7982F90952A8192238023892B8A838D
:1012D0008983AE014F5F5F4F6E2D8F2D0E943806C0
:1012E0000F900F90DF91CF911F910F91FF90EF9092
:1012F000DF90CF90BF90089580E0F2CF2F923F9281
:101300004F925F926F927F928F929F92AF92BF9215
:10131000CF92DF92EF92FF920F931F93CF93DF93C1
:10132000D82FC92F8B010E94D91F24E630E040E05E
:1013300050E00E94162449019B01AC0160E876E967
:1013400088E990E00E94E3256B017C01F80191821D
:101350008082ED2FFC2F2191822F022E000C990B01
:10136000C0970A97C0F32E3239F51F0180E8882E06
:1013700086E9982E88E9A82EB12C9AE0492E512CA6
:10138000612C712CF101C1911F010C2E000CDD0BA1
:10139000E097CA30D10580F4C501B401A3019201E0
:1013A0000E94162449015A01DE010E94D723C60E6D
:1013B000D71EE81EF91EE6CFA5E0B0E0A701960112
:1013C0000E94CC236F5F7F4F8F4F9F4F23E030E011
:1013D00040E050E00E941624F801228333834483C6
:1013E00055831682DF91CF911F910F91FF90EF905F
:1013F000DF90CF90BF90AF909F908F907F906F9035
:101400005F904F903F902F9008951F93CF93DF935D
:10141000EC0118811D3209F42196CE010E94D91FDA
:101420009B01AC01A4E6B0E00E94CC23AB01BC015F
:10143000FE012991822F022E000C990BC0970A976A
:10144000B8F32E3231F58181082E000C990BC0972C
:101450008A309105F0F4AAE0A89F9001A99F300D71
:101460001124C901330FAA0BBB0B480F591F6A1F68
:101470007B1F8281082E000C990BC0978A30910542
:1014800040F4092E000CAA0BBB0B480F591F6A1F12
:101490007B1F1D3239F470956095509541955F4FD3
:1014A0006F4F7F4FCB01BA01DF91CF911F9108950C
:1014B000FB0101900020E9F73197AF01461B570B64
:1014C000DC01ED91FC910280F381E02D09940F93F2
:1014D0001F93CF93DF93EC010E94DA028C016BEC37
:1014E00072E0CE010E94580A800F911FDF91CF91C8
:1014F0001F910F9108950F931F93CF93DF93EC01EA
:101500000E94580A8C016BEC72E0CE010E94580ACE
:10151000800F911FDF91CF911F910F9108950F932D
:101520001F93CF93DF93EC0188819981009759F045
:101530002A813B812617370730F081E0DF91CF9178
:101540001F910F9108958B016F5F7F4F0E944D2770
:10155000009759F0998388831B830A832C813D81EE
:10156000232B59F7FC011082E8CF80E0E7CFEF9200
:10157000FF920F931F93CF93DF936115710541F491
:1015800080E0DF91CF911F910F91FF90EF90089530
:1015900041155105B1F07B01EC010C811D81040F57
:1015A000151FB8010E948F0A882351F328813981C1
:1015B0008C819D81B701820F931F0E941C281D837F
:1015C0000C8381E0DECFEF92FF920F931F93CF93B6
:1015D000DF93CDB7DEB764970FB6F894DEBF0FBECA
:1015E000CDBF7C01CB01BA018E010F5F1F4F22E0FE
:1015F00044E00E94BB1FFC0101900020E9F73197F5
:10160000AF01481B590BBC01C7010E94B70A649681
:101610000FB6F894DEBF0FBECDBFDF91CF911F9103
:101620000F91FF90EF900895EF92FF920F931F9309
:10163000CF93DF93CDB7DEB72E970FB6F894DEBF0A
:101640000FBECDBF7C01CB01BA012AE08E010F5F36
:101650001F4FA8010E940B20F80101900020E9F71C
:101660003197AF01401B510BB801C7010E94B70A67
:101670002E960FB6F894DEBF0FBECDBFDF91CF918F
:101680001F910F91FF90EF900895EF92FF920F93AB
:101690001F93CF93DF93CDB7DEB728970FB6F8949B
:1016A000DEBF0FBECDBF7C01CB014AE08E010F5FD4
:1016B0001F4FB8010E940020F80101900020E9F7B7
:1016C0003197AF01401B510BB801C7010E94B70A07
:1016D00028960FB6F894DEBF0FBECDBFDF91CF9135
:1016E0001F910F91FF90EF900895EF92FF920F934B
:1016F0001F93CF93DF9300D000D0CDB7DEB77C012E
:10170000862F4AE08E010F5F1F4FB80190E00E94C4
:101710000020F80101900020E9F73197AF01401B4C
:10172000510BB801C7010E94B70A0F900F900F909C
:101730000F90DF91CF911F910F91FF90EF9008953F
:10174000FB0101900020E9F73197AF01461B570BD1
:101750000C94B70AFB0144815581608171810C941E
:10176000B70ACF93DF93EC0188819981009711F03C
:101770000E94C426198218821D821C821B821A8232
:10178000DF91CF910895EF92FF920F931F93CF9324
:10179000DF93EC017B018A01BA010E948F0A81115B
:1017A0000BC0CE010E94B10BCE01DF91CF911F91F2
:1017B0000F91FF90EF9008951D830C83B7018881EE
:1017C00099810E941C28F0CFFB0101900020E9F7CD
:1017D0003197AF01461B570B0C94C30B0F931F930C
:1017E000CF93DF93CDB7DEB762970FB6F894DEBF25
:1017F0000FBECDBF8C01CB01F80111821082138284
:101800001282158214824AE0BE016F5F7F4F0E94F0
:101810000020BE016F5F7F4FC8010E94E40B6296FB
:101820000FB6F894DEBF0FBECDBFDF91CF911F91F1
:101830000F910895EF92FF920F931F93CF93DF9331
:10184000CDB7DEB7A1970FB6F894DEBF0FBECDBF00
:101850007C01CB01BA01F70111821082138212823E
:10186000158214828E010F5F1F4F2AE04CE00E9408
:10187000BB1F009789F0BC01C7010E94E40BA19631
:101880000FB6F894DEBF0FBECDBFDF91CF911F9191
:101890000F91FF90EF900895C7010E94B10BEFCF19
:1018A000FC01118210821382128215821482FB01C4
:1018B00001900020E9F73197AF01461B570B0C94BC
:1018C000C30BFC0180819181009711F00C94C42618
:1018D0000895EF92FF920F931F93CF93DF93CDB7AD
:1018E000DEB72C970FB6F894DEBF0FBECDBF7C01DC
:1018F0000E94750560937E0370937F03809380033D
:10190000909381036DEC72E08AE096E00E94E40B14
:101910006DEC72E0CE0107960E94500C80910E068D
:1019200090910F06892B81F000910A0610910B0609
:10193000F70160817181C8010E943228009721F06F
:10194000801B910B97FFB4C00E94750500917E0328
:1019500010917F032091800330918103601B710BF4
:10196000820B930B60347C498105910508F0A0C07F
:101970006DEC72E08AE096E00E94E40B80910E0626
:1019800090910F06892B51F16CEC72E0CE0101961B
:101990000E94500C20910E0630910F064D815E8101
:1019A0002417350788F180910A0690910B0600975D
:1019B00059F169817A816115710531F1241B350B6B
:1019C000820F931F0E94132811E0892B09F410E065
:1019D000CE0101960E94610C112361F18EE395E026
:1019E0000E94F906892B91F08EE395E00E94110781
:1019F00089831A8241E050E0BE016F5F7F4F8AE029
:101A000096E00E94B70AEACF11E0E2CF0E94750586
:101A100000917E0310917F03209180033091810318
:101A2000601B710B820B930B61347C49810591051E
:101A300008F4A4CF1A8219821C821B821E821D8286
:101A40006F8178856115710531F04B855C85CE011C
:101A500001960E94C30B40910E0650910F066091B3
:101A60000A0670910B06CE0101960E94B70A8111F9
:101A700004C0CE0101960E94B10B69817A81611583
:101A8000710589F04D815E81CE0107960E94C30BDE
:101A9000CE0101960E94610C6AE076E083EC94E04E
:101AA0000E94670A3BCFCE0107960E94B10BF0CF90
:101AB0008B859C85892BA1F46FE471E083EC94E025
:101AC0000E947B0A61E08AE00E940B0460E375E7F4
:101AD00080E090E00E94BE0490E080E00E944C28EC
:101AE00080910E0690910F06892B81F000910A06D5
:101AF00010910B06F70160817181C8010E943228A4
:101B0000009721F0801B910B97FF0EC06EE871E0EB
:101B100083EC94E00E947B0ABE01695F7F4F83ECF7
:101B200094E00E94670ACECFCE0107960E94610C16
:101B30002C960FB6F894DEBF0FBECDBFDF91CF91CC
:101B40001F910F91FF90EF9008952F923F924F9227
:101B50005F926F927F928F929F92AF92BF92CF923D
:101B6000DF92EF92FF920F931F93CF93DF93CDB746
:101B7000DEB7C656D1090FB6F894DEBF0FBECDBF93
:101B8000109280058091810590918205A091830536
:101B9000B091840569968CAF9DAFAEAFBFAF69972A
:101BA00010928E0580908F0590909005A0909105E1
:101BB000B09092051092B8058091BD059091BE0538
:101BC000A091BF05B091C005A3968CAF9DAFAEAFFD
:101BD000BFAFA39784E00E94E2036C0185E00E94FE
:101BE000E2037C0183E10E9475046B969FAF8EAF88
:101BF0006B9784E10E9475041C0185E10E947504C5
:101C00008C0180915D05811124C062EB71E083EC51
:101C100094E00E947B0A8AE090E00E943008CA5952
:101C2000DF4F0FB6F894DEBF0FBECDBFDF91CF916F
:101C30001F910F91FF90EF90DF90CF90BF90AF90EA
:101C40009F908F907F906F905F904F903F902F90DC
:101C5000089510925E056091610570916205809112
:101C60006305909164050E94B22228E23BE64EE6AD
:101C70005EE40E94E3242B013C0160915F057091BA
:101C8000600590E080E00E94B2229B01AC01C3019C
:101C9000B2010E944824AB01BC018091650581110D
:101CA0007058CE010D960E941A0C10925E0560913C
:101CB00068057091690580916A0590916B050E9495
:101CC000B22228E23BE64EE65EE40E94E3242B01CA
:101CD0003C01609166057091670590E080E00E948C
:101CE000B2229B01AC01C301B2010E944824AB01A6
:101CF000BC0180916C0581117058CE0143960E9401
:101D00001A0C1092B8056091BD057091BE058091C6
:101D1000BF059091C0050E94B42220E030E048EC5D
:101D200052E40E94E324AB01BC01CE0149960E941B
:101D30001A0C10929C058091A1059091A205A0918A
:101D4000A305B091A405A7968CAF9DAFAEAFBFAF72
:101D5000A797B601CE014F960E94EE0BB701CE01B8
:101D600085960E94EE0B70E060E0CE018B960E949B
:101D7000EE0B70E060E0CE01C1960E94EE0B6DECC0
:101D800072E0CE01C7960E94500C6DEC72E0CE015D
:101D9000CD960E94500C6DEC72E0CE018D5B9F4F92
:101DA0000E94500C6DEC72E0CE01875B9F4F0E9449
:101DB000500C6DEC72E0CE01815B9F4F0E94500C85
:101DC0000E947505C0906604D0906704E090680496
:101DD000F09069046C197D098E099F0961367A4E6D
:101DE0008105910508F40EC320E931E0D8010E9475
:101DF0000D262FEF33E040E050E00E94AD23CA01F2
:101E0000B9010E94B42220E030E048EC52E40E9484
:101E1000E3246F966CAF7DAF8EAF9FAF6F9710923C
:101E20008E0560918F05709190058091910590913C
:101E3000920520E432E44FE050E00E9416246CE664
:101E400072E02A3010F06DEC72E0CE01C7960E946D
:101E5000E40B10928E0560918F0570919005809132
:101E600091059091920520E137E240E050E00E9418
:101E70001624CA01B90124E630E040E050E00E9497
:101E800016246A3008F0F2C26CE672E0CE01CD96FC
:101E90000E94E40B10928E0560918F057091900561
:101EA000809191059091920544E6C42ED12CE12CAD
:101EB000F12CA70196010E941624CA01B901A701BD
:101EC00096010E9416246A3008F0D3C26CE672E0D4
:101ED000CE018D5B9F4F0E94E40B109280056091B4
:101EE000810570918205809183059091840534E687
:101EF000C32ED12CE12CF12CA70196010E941624AF
:101F0000CA01B901A70196010E9416246A3008F09F
:101F1000B3C26CE672E0CE01875B9F4F0E94E40B78
:101F200010928005609181057091820580918305F2
:101F30009091840520E137E240E050E00E941624B1
:101F40006CE672E02A3010F06DEC72E0CE01815B3D
:101F50009F4F0E94E40B8EE395E00E9448070E9489
:101F6000750560936604709367048093680490938A
:101F700069046AEE71E08EE395E00E947B0A64EFEB
:101F800071E080E090E00E94BE0410E000E00E945A
:101F900075056093460570934705809348059093B7
:101FA00049058EE395E00E94110797FF84C20E94C5
:101FB0007505C0904605D0904705E0904805F09023
:101FC00049056C197D098E099F09C0904205D09082
:101FD0004305E0904405F09045056C157D058E05A0
:101FE0009F05F8F261EF71E0CE0101960E94500C5E
:101FF00061E376E0CE0101960E94AA0B65E276E0ED
:10200000CE0101960E94AA0B65E072E0CE01019616
:102010000E94A00B6CE072E0CE0101960E94A00B22
:102020006FE176E0CE0101960E94AA0B6FE072E0AC
:10203000CE0101960E94A00B84E6C82ED12CE12C83
:10204000F12C69966CAD7DAD8EAD9FAD6997A70102
:1020500096010E94162429013A016053784FAB0182
:1020600070E060E0CE0101960E94140B61E172E025
:10207000CE0101960E94A00BBE01675B7F4FCE018F
:1020800001960E94AA0BC301B201A70196010E940A
:102090001624CE0101960E94450B61E172E0CE014B
:1020A00001960E94A00BBE01615B7F4FCE0101969D
:1020B0000E94AA0B90E1492E97E2592E612C712CB7
:1020C00069966CAD7DAD8EAD9FAD6997A301920110
:1020D0000E941624622F70E0CE0101960E94450BEB
:1020E00064E372E0CE0101960E94A00BBE01695C20
:1020F0007F4FCE0101960E94AA0BC501B40120E4D6
:1021000032E44FE050E00E941624622FCE01019687
:102110000E94750B61E372E0CE0101960E94A00B54
:10212000BE01635C7F4FCE0101960E94AA0BC501E0
:10213000B401A30192010E941624CA01B901A701AA
:1021400096010E941624CE0101960E94750B61E350
:1021500072E0CE0101960E94A00BBE016D5B7F4F25
:10216000CE0101960E94AA0BC501B401A7019601F8
:102170000E941624CA01B901A70196010E941624E3
:10218000CE0101960E94750B6FE072E0CE010196C0
:102190000E94A00BBE01635F7F4FCE0101960E949B
:1021A000AA0B6FE072E0CE0101960E94A00BBE0167
:1021B0006D5E7F4FCE0101960E94AA0B6FE072E028
:1021C000CE0101960E94A00BA3966CAD7DAD8EADA5
:1021D0009FADA3970E94B42220E030E048EC52E487
:1021E0000E94E324AB01BC01CE0101960E94E30AE8
:1021F0006FE072E0CE0101960E94A00BA7966CAD35
:102200007DAD8EAD9FADA7970E94B42226E53EE03E
:102210004DEE5FE30E94EF2220E030E048EC52E414
:102220000E94E324AB01BC01CE0101960E94E30AA7
:102230006FE072E0CE0101960E94A00B409146042F
:10224000509147046091480470914904CE01019671
:102250000E94E30A6FE072E0CE0101960E94A00B9B
:10226000BE01615E7F4FCE0101960E94AA0B6FE016
:1022700072E0CE0101960E94A00BBE016B5D7F4F04
:10228000CE0101960E94AA0B6FE072E0CE0101968A
:102290000E94A00B25E030E06B96AEADBFAD6B9712
:1022A0000E940D26CC24CA9423E0D22EE12CF12CDE
:1022B000A70196010E94AD23BA01A901CE010196A2
:1022C0000E94140B6FE072E0CE0101960E94A00BF9
:1022D00025E030E0D1010E940D26A70196010E9461
:1022E000AD23BA01A901CE0101960E94140B6FE043
:1022F00072E0CE0101960E94A00B809182038F8331
:10230000188641E050E0BE01695F7F4FCE01019623
:102310000E94B70A6FE072E0CE0101960E94A00B06
:102320006F964CAD5DAD6EAD7FAD6F97CE010196F2
:102330000E94E30A6FE072E0CE0101960E94A00BBA
:10234000BE016F5C7F4FCE0101960E94AA0B6FE029
:1023500072E0CE0101960E94A00B6091440470913E
:102360004504CE0101960E94450B6FE072E0CE015C
:1023700001960E94A00B6091420470914304CE012B
:1023800001960E94450B67E173E0CE0101960E9421
:10239000A00BBE016F5F7F4F8EE395E00E94670A3E
:1023A00063E172E0CE0107960E94500CCE010796C1
:1023B0000E94690CCE0107960E94610C60E08CE0DF
:1023C0000E940B0466E172E08EE395E00E947B0AB6
:1023D00066E272E0CE0107960E94500CCE0107968D
:1023E0000E94690CCE0107960E94610C61E08CE0AE
:1023F0000E940B048FE195E00E944807CE010196F0
:102400000E94610CCE01815B9F4F0E94610CCE0146
:10241000875B9F4F0E94610CCE018D5B9F4F0E9496
:10242000610CCE01CD960E94610CCE01C7960E9430
:10243000610CCE01C1960E94610CCE018B960E9468
:10244000610CCE0185960E94610CCE014F960E94D0
:10245000610CCE0149960E94610CCE0143960E9408
:10246000610CCE010D960E94610CD9CB6DEC72E02F
:102470000DCD6DEC72E02CCD6DEC72E04CCD01E039
:1024800010E085CD0115110509F481CD319720812A
:10249000022E000C330B51E040E02817390709F0F9
:1024A00050E0052F142F73CD64E873E080E090E0D6
:1024B0000E94BE0497CDF801ED5CFD4F2081022EF5
:1024C000000C330B82179307E9F601301105B9F6BA
:1024D0008EE395E00E94F906892B31F38EE395E0B7
:1024E0000E941107182F809383038C32E9F28A30FF
:1024F00079F3682F8EE395E00E949D061093820386
:10250000E7CF1F920F920FB60F9211248F939F93D4
:102510008091E1009091E100937F9093E10083FF2F
:102520000FC01092E90091E09093EB001092EC0044
:1025300092E39093ED001092770498E09093F0006E
:1025400082FF22C093E09093E9009091F2009923DA
:1025500019F09AE39093E80090913904992341F09F
:1025600090913904915090933904911101C05D9A72
:1025700090917604992341F0909176049150909334
:102580007604911101C0289A84FF18C08091E2005E
:102590008E7E81608093E2008091E1008F7E809347
:1025A000E10080913A048E7E806180933A049F918D
:1025B0008F910F900FBE0F901F90189580FFF7CF4F
:1025C0008091E2008E7E80618093E2008091E10044
:1025D0008E7E8093E10080913A048E7E8160E5CF0B
:1025E0001F920F920FB60F921124CF92DF92EF92AB
:1025F000FF920F931F932F933F934F935F936F938C
:102600007F938F939F93AF93BF93EF93FF93CF935A
:10261000DF93CDB7DEB76C97DEBFCDBF1092E90078
:102620008091E80083FF25C068E0CE0145960E94B6
:10263000CD0282EF8093E8008D8987FF39C09091A9
:10264000E80090FFFCCF982F907609F034C19E8966
:102650004F89588D2F89F88C911131C0803861F5E0
:1026600080913B048093F1001092F1008EEF8093F3
:10267000E8006C960FB6F894DEBF0FBECDBFDF91B9
:10268000CF91FF91EF91BF91AF919F918F917F91EA
:102690006F915F914F913F912F911F910F91FF90FB
:1026A000EF90DF90CF900F900FBE0F901F90189576
:1026B0009EEF9093E800C7CF1092F100D5CF9130F4
:1026C00059F48111D3CF4130510581F680913B04FB
:1026D0008D7F80933B04CACF933049F48111C6CFDC
:1026E0004130510519F680913B048260F2CF95305C
:1026F00041F48091E80080FFFCCF20682093E30044
:10270000B5CF963009F0A9C00B8D1C8D22E0109238
:10271000E9001092370410923604F2122EC0109283
:102720003504109234040E949C021F8299E0998320
:10273000FA8291E09E8390EA98879AEF9987209198
:10274000360430913704275F3F4F3C832B838D83C2
:102750001092E90010923704109236041093350459
:102760000093340449E050E0BE016F5F7F4F80E08A
:102770000E9476020E949C0279CF10933504009348
:1027800034040E943202DC0112960D911C91011555
:10279000110509F451C1D801ED91FC910480F58136
:1027A000E02DBE016B5E7F4FC8010995009709F0CF
:1027B0003EC1F80100851185EACFF3E0FF120EC09B
:1027C0008F89882309F440C0823061F440E860E1D9
:1027D00081E792E00E940317811148CF81E2809344
:1027E000EB0047CF813029F440E86BE085E692E0CA
:1027F000F1CF833099F70E943202DC011296ED90FE
:10280000FC908E010F5F1F4F6801E114F10479F015
:10281000D701ED91FC910680F781E02DB801C70149
:102820000995080F111DF701E084F184EECFD8015E
:102830001C92F60101900020E9F73197BF016C1955
:102840007D0940E0C601C6CF6FE472E0FB01449110
:1028500050E080E80E94760209CF973009F4BECF9D
:10286000983021F481E08093F10000CF993009F095
:10287000FDCE837009F0B2CFE3E1F1E081E031E019
:1028800096E32191222371F08093E9003093EB00CD
:10289000DF0111972C912093EC009093ED008F5F56
:1028A000873079F78EE78093EA001092EA008F89EB
:1028B00080937704DBCE8B8D9C8D1092E900109273
:1028C0003704109236049093350480933404898D34
:1028D000811192C08E899D89913A49F4813209F023
:1028E0007DCF47E050E064E071E080E0B3CF91320B
:1028F00009F074CF833269F48F89988DB0E0A0E03D
:102900008093000190930101A0930201B093030111
:10291000ADCE803269F48091E80082FFFCCF67E0A1
:1029200084E091E00E94CD028BEF8093E8009ECE80
:10293000823209F09BCE8F8980930B01EEEFFFE787
:10294000859194918B3F9C4D51F1E0E0F8E08091AE
:10295000040190910501A0910601B0910701803B0F
:102960009440A105B105F1F480910B0180FD1AC0DE
:10297000EE3F8AE0F80789F587E797E79183808340
:10298000809160008093380488E19BE00FB6F89452
:10299000A895809360000FBE9093600067CEEEEF25
:1029A000FAE0D5CF808191818737974709F05ECED5
:1029B000A8958091600088618093600080913804C0
:1029C00080936000EE3F2AE0F20789F08091FE0AD2
:1029D0009091FF0A9183808349CE808191818737CE
:1029E000980751F29093FF0A8093FE0AC5CF109288
:1029F000FF0A1092FE0A3ACE0E943202DC011296C1
:102A00000D911C910115110509F4E8CED801ED9145
:102A1000FC910190F081E02DBE016B5E7F4FC801FB
:102A20000995811123CEF80100851185EBCF181689
:102A300019060CF41BCED2CEF1E0FF12BECE63E538
:102A400072E004CF1F920F920FB60F9211242F93B2
:102A50003F938F939F93AF93BF9380912C0490915A
:102A60002D04A0912E04B0912F0430912B0423E06B
:102A7000230F2D3758F50196A11DB11D20932B046E
:102A800080932C0490932D04A0932E04B0932F04D4
:102A90008091300490913104A0913204B0913304BC
:102AA0000196A11DB11D8093300490933104A09331
:102AB0003204B0933304BF91AF919F918F913F91B6
:102AC0002F910F900FBE0F901F90189526E8230F9F
:102AD0000296A11DB11DD2CF1F920F920FB60F9279
:102AE00011242F933F934F935F936F937F938F9313
:102AF0009F93AF93BF93EF93FF938091B900887F2B
:102B0000803609F44AC0F0F5883209F4A7C018F5F8
:102B1000803109F49BC0B8F4882309F4F9C08830E7
:102B200009F494C0FF91EF91BF91AF919F918F9164
:102B30007F916F915F914F913F912F910F900FBEB9
:102B40000F901F901895883109F488C0803251F792
:102B500080939C0414C0803409F49DC040F48033F9
:102B6000B9F38833F9F680939C0485ECB0C08035C6
:102B700009F485C0883509F496C0883499F60E9416
:102B80008105D0CF883909F48CC038F5883729F011
:102B900050F4883611F0803729F683E080939E0444
:102BA00010922A0457C0883809F47BC0803919F084
:102BB000803809F0B7CF80912A04803208F071C0C4
:102BC000E0912A0481E08E0F80932A048091BB005B
:102BD000F0E0E65FFB4F80833DC0803B39F0E0F4DE
:102BE000803A09F479C0883A09F09CCF84E0809358
:102BF0009E041092090410920804E0913E04F091A2
:102C00003F0409958091080481110FC081E08093F1
:102C100008041092E80309C0803C09F4A6CF883C60
:102C200009F4A3CF883B09F07DCFE091090481E04E
:102C30008E0F80930904F0E0E851FC4F808180936F
:102C4000BB00909109048091080429C08091790407
:102C50008093BB0085EC8093BC0064CF90919B0473
:102C600080919A04981758F5E0919B0481E08E0FAB
:102C700080939B04F0E0E658FB4F8081E9CFE09120
:102C80009B0481E08E0F80939B048091BB00F0E059
:102C9000E658FB4F808390919B0480919A0498178B
:102CA000C8F285E8D8CFE0919B0481E08E0F809335
:102CB0009B048091BB00F0E0E658FB4F808380913D
:102CC0009D0481115CCF81E08093780484EA809335
:102CD000BC0010929E0426CF85EC8093BC0010921D
:102CE0009E0480912A04803230F4E0912A04F0E0BE
:102CF000E65FFB4F108260912A0470E0E0913C0493
:102D0000F0913D048AE094E0099510922A040ACFDC
:102D100010929C0434CF1F920F920FB60F92112481
:102D20002F933F934F935F936F937F938F939F93D3
:102D3000AF93BF93EF93FF93E091C603F091C70366
:102D4000309749F0A685B7858585968D91FF14C08B
:102D50009C918923A1F4FF91EF91BF91AF919F9135
:102D60008F917F916F915F914F913F912F910F9034
:102D70000FBE0F901F9018959C91892361F7A3892E
:102D8000B4899C918589809589238C9386899789BC
:102D90000197F1F7608D718DA685B785558538E06F
:102DA00020E0CB010197F1F7822F90E09595879570
:102DB000282F4C91452309F02068315091F7868DDA
:102DC00081FD20958091C40390E001968F7399272F
:102DD0003091C503381799F0A091C403B0E0AC5707
:102DE000BC4F2C938093C403828D938D0197F1F790
:102DF000A389B4898C919589892B8C93ACCF868DCE
:102E00008160868FF1CFEF92FF920F931F93CF9344
:102E1000DF93F82E192FE62E042F81E0860F880FFE
:102E20000E94480283E00E944802CF2DD12FEC0E71
:102E3000FD2EF11CCE15DF05B9F007FF13C0FE0112
:102E400084910E944802182F80E00E94480281234A
:102E500021968111EFCFDF91CF911F910F91FF90BC
:102E6000EF9008958881EDCF81E0F5CF0F931F9308
:102E7000CF93DF93EC01162F042F1B821A8288EE6A
:102E800093E0A0E0B0E08C839D83AE83BF838DE1AF
:102E900091E0998388831F8A1E8A198E188E1B8E53
:102EA0001A8E1D8E1C8E6E8D6E7F6D7F6E8F669559
:102EB000617081E06827842F0E940B0461E0802FFD
:102EC0000E943904802F90E0FC01E354FD4FE4910F
:102ED000E88BFC01E256FD4FE491F0E0EE0FFF1F9E
:102EE000E057FD4F859194919A8B898B60E0812FFB
:102EF0000E9439048E8D81FD04C061E0812F0E9403
:102F00000B041C87812F90E0FC01E354FD4FE491FA
:102F1000ED87FC01E256FD4FE491F0E0EE0FFF1F5C
:102F2000EE57FD4F859194919F878E87DF91CF91CA
:102F30001F910F910895E3ECF4E01382128288EE62
:102F400093E0A0E0B0E084839583A683B7832FE26B
:102F500031E0318320832FEF3FEF35872487E3E192
:102F6000F5E01382128284839583A683B78381E47C
:102F700091E09183808366E372E087E396E00E94AC
:102F8000500C69E372E081E396E00E94500C6DEC16
:102F900072E08BE296E00E94500C61E472E085E200
:102FA00096E00E94500C62E572E08FE196E00E948C
:102FB000500C88E6809310066DEC72E08AE096E093
:102FC0000E94500CEDE5F5E010821182138212820E
:102FD0001482158216821782108612861186138635
:102FE0001486158616861786118A108A128A138A05
:102FF000148A158A168A108E178A118E128E138ED5
:10300000148E158E12A213A214A215A216A217A234
:1030100010AA11AA12AA13AA14AA15AA16AE17AEBC
:103020001092A1051092A2051092A3051092A4057A
:103030001092A9051092AA051092AF051092B00542
:103040001092B1051092B2051092B7051092B80512
:103050001092BD051092BE051092BF051092C005DA
:103060001092C5051092C6051092CB051092CC05A2
:103070001092CD051092CE051092D3051092D40572
:103080001092D9051092DA051092DB051092DC053A
:103090001092E1051092E20582E08093F205109211
:1030A000F3051092F4051092F5051092F7051092B1
:1030B000F6051092F9051092F8051092FA05109293
:1030C000FB051092FC051092FD051092FE05109272
:1030D000FF0510920006109201061092020610924F
:1030E000030610920406109205061092060610922E
:1030F000070610920806109209061092E3054EE0AA
:103100006FE08EE395E00E94361748E069E08FE1BA
:1031100095E00C943617CF93DF93CDB7DEB72F979A
:103120000FB6F894DEBF0FBECDBF789484B5826031
:1031300084BD84B5816084BD85B5826085BD85B55B
:10314000816085BD80916E00816080936E001092D9
:103150008100809181008260809381008091810054
:1031600081608093810080918000816080938000E5
:1031700080919100826080939100809191008160A4
:103180008093910080919000816080939000809165
:10319000C10084608093C1008091C10082608093EF
:1031A000C1008091C10081608093C1008091C30003
:1031B00081608093C3008091C00082608093C000D2
:1031C0008091C20081608093C20080917A00846007
:1031D00080937A0080917A00826080937A00809157
:1031E0007A00816080937A0080917A008068809371
:1031F0007A001092770410923B0410923A04809166
:10320000D70081608093D70080EA8093D80089B589
:10321000806189BD89B5826089BD09B400FEFDCF9A
:1032200061E070E080E090E00E94BE048091D800F0
:103230008F7C80618093D8008091E000807F8093B4
:10324000E0008091E1008E7E8093E1008DE080932C
:10325000E200559A209A62E084E00E94390462E01C
:1032600085E00E94390461E08AE00E94390461E04F
:103270008CE00E94390460E08AE00E940B0460E068
:103280008CE00E940B0440E855E260E070E08FE1C2
:1032900095E00E94710740E052EC61E070E08EE33F
:1032A00095E00E94710762E672E08EE395E00E946D
:1032B0007B0A64E670E080E090E00E94BE048EE34A
:1032C00095E00E94320764E670E080E090E00E94A2
:1032D000BE0440E855E260E070E08EE395E00E94B5
:1032E00071078FEF9FEF9093D0048093CF041092DB
:1032F0004104109240041092A0041092C204109253
:103300009E0481E080939D041092780461E082E045
:103310000E940B0461E083E00E940B048091B900DD
:103320008E7F8093B9008091B9008D7F8093B90022
:1033300088E48093B80085E48093BC0086E492E042
:1033400090933F0480933E0487E492E090933D0481
:1033500080933C0401E023E042E06BE6809110069C
:103360000E942E0900E022E044E06BE1809110060B
:103370000E942E0922E044E06CE1809110060E9438
:103380002E09F090100608EE13E09E012F5F3F4FCC
:1033900041E06BE68F2D0E94400889818F7B8983F5
:1033A0008F83AE01495F5F4F6BE68F2D0E94380619
:1033B00068E873E180E090E00E94BE046EE672E08F
:1033C00083EC94E00E947B0A6DEA72E08EE395E064
:1033D0000E947B0A63E172E0CE0101960E94500CCC
:1033E000CE0101960E94690CCE0101960E94610CEB
:1033F0008CE090E00E9430080E94090860EB72E0C7
:103400008EE395E00E947B0A63E172E0CE010196B3
:103410000E94500CCE0101960E94690CCE010196CB
:103420000E94610C8CE090E00E9430080E94090824
:103430006AEB72E08EE395E00E94580A67E376E05B
:103440008EE395E00E94DA0264EC72E08EE395E090
:103450000E94580A63E172E0CE0101960E94500C6E
:10346000CE0101960E94690CCE0101960E94610C6A
:103470008CE090E00E9430080E9409086EEC72E037
:103480008EE395E00E947B0A63E172E0CE01019633
:103490000E94500CCE0101960E94690CCE0101964B
:1034A0000E94610C8CE090E00E9430080E940908A4
:1034B00067ED72E08EE395E00E94580A67E376E0DC
:1034C0008EE395E00E94DA026AEC72E08EE395E00A
:1034D0000E94580A63E172E0CE0101960E94500CEE
:1034E000CE0101960E94690CCE0101960E94610CEA
:1034F0008CE090E00E9430080E9409086CEE72E0B7
:103500008EE395E00E947B0A63E172E0CE010196B2
:103510000E94500CCE0101960E94690CCE010196CA
:103520000E94610C8CE090E00E9430080E94090823
:1035300063E073E08EE395E00E947B0A63E172E052
:10354000CE0101960E94500CCE0101960E94690C9A
:10355000CE0101960E94610C8CE090E00E94300840
:103560000E94090869E173E08EE395E00E947B0AFE
:1035700063E172E0CE0101960E94500CCE010196EB
:103580000E94690CCE0101960E94610C8CE090E0D3
:103590000E9430080E94090866E273E08EE395E01D
:1035A0000E947B0A63E172E0CE0101960E94500CFA
:1035B000CE0101960E94690CCE0101960E94610C19
:1035C00061E08CE00E940B040E9409088FE195E005
:1035D0000E9448070E947505609366047093670413
:1035E000809368049093690462E373E083EC94E051
:1035F0000E947B0A0E94A50D82E0282E332433947A
:103600008FE195E00E94F906181619060CF0B8C271
:103610008FE195E00E941107F82E8091FA059091B4
:10362000FB05A091FC05B091FD050196A11DB11D02
:103630008093FA059093FB05A093FC05B093FD05DC
:1036400024E2F21609F47BC2E091F4052F150CF484
:10365000BFC08AE0F81619F09DE0F9127DC2EF3084
:1036600008F034C1F0E0ED51FA4F1082E090E2052D
:10367000EE2009F42DC12091E305822F022E000CCB
:10368000990B3FEB320F363008F0AFC0C7978295E9
:10369000807F9091E405292F092E000C330B4FEB0E
:1036A000490F463008F0A9C027533109820F909185
:1036B000E1058913F8C08091060690910706A09154
:1036C0000806B09109060196A11DB11D809306065A
:1036D00090930706A0930806B09309068091F5051C
:1036E000882399F08091FE059091FF05A091000636
:1036F000B09101060196A11DB11D8093FE05909326
:10370000FF05A0930006B09301061091F205112366
:1037100009F47CC01130A1F58FE795E00E946E0698
:103720008DE895E00E946E068091F505882341F1B1
:1037300087E0EDE6F5E0AFE5B5E001900D928A9502
:10374000E1F787E0E4E7F5E0A6E6B5E001900D9249
:103750008A95E1F70E94750560937B0570937C055F
:1037600080937D0590937E0510935E0510935D0513
:103770008BE995E00E94570689EA95E00E9457067A
:103780000091F8051091F9050115110509F4B2C36E
:10379000E091F805F091F90566A177A1F80186A1FD
:1037A00097A10E941328892B09F0A4C3B801C8016E
:1037B00040960E941C280E947505F80160A371A321
:1037C00082A393A321E025A324A302A513A5DCCF04
:1037D000FAE2FF1609F443CF2CE2F212BDC1809148
:1037E000E1058F258093E1053ACF2156263018F464
:1037F000875591094CCFC0974ACF9156963018F40F
:103800002755310953CF2053310950CF8DE895E02A
:103810000E946E068091F505882321F187E0EDE690
:10382000F5E0AFE5B5E001900D928A95E1F787E00C
:10383000E4E7F5E0A6E6B5E001900D928A95E1F7A0
:103840000E94750560937B0570937C0580937D05D0
:1038500090937E0530925E0530925D0587EB95E092
:103860000E9457068091CF059091D005A091D10577
:10387000B091D2058093CB059093CC05A093CD0554
:10388000B093CE050E9475056093C7057093C80577
:103890008093C9059093CA053092C6053092C5053C
:1038A00083ED95E06BCF8091020690910306A09185
:1038B0000406B09105060196A11DB11D8093020674
:1038C00090930306A0930406B0930506E12C12C35F
:1038D0009091F305911144C064E573E083EE95E0A7
:1038E0000E941328892B41F06AE573E083EE95E08E
:1038F0000E941328892BF1F43092F2058091F6058D
:103900009091F7059093F9058093F8050091F805DB
:103910001091F90501151105C9F263EE75E0F80182
:1039200086A197A10E94132897FFDDC2F80182A506
:1039300093A5E8CF60E673E083EE95E00E9413283C
:10394000892B41F066E673E083EE95E00E94132830
:10395000892B19F41092F205D1CF2092F205CECF27
:10396000E091F205E23009F448C08091E305882334
:1039700009F443C020E2E29FF0011124E92B3197C2
:10398000E932F10508F039C0E853F34E0C940726EC
:10399000F11C321D391D401D431D711D781D851DF3
:1039A000921DFD1CFD1CFD1CFD1CFD1CFD1CFD1CB9
:1039B000FD1CFD1CFD1CFD1CFD1CFD1CFD1CFD1C3F
:1039C000FD1CFD1CFD1CFD1CFD1CFD1CFD1CFD1C2F
:1039D000F11C2C1D321D391D401D431D4A1D571D54
:1039E000641D83EE95E00E94050A60939305709331
:1039F000940580939505909396050091F805109194
:103A0000F905E090F3050115110509F45FCFE09188
:103A1000F805F091F90566A177A1F80186A197A1B3
:103A20000E941328892B09F051CFF80120A531A558
:103A30008E2D90E0821793070CF448CF2817390792
:103A400039F440E150E063EE75E0C8010E9423289C
:103A5000F80102A513A5D5CF91E0813409F445C042
:103A600090E043C06DE675E083EE95E00E947E092C
:103A7000C4CF91E0833509F090E090937305BDCFFA
:103A800064E775E0F1CF91E0873509F090E090931D
:103A90007A05B3CF83EE95E00E94050A6093A505F1
:103AA0007093A6058093A7059093A805A6CF83EEF3
:103AB00095E00E94050A6093B3057093B405809366
:103AC000B5059093B60599CF83EE95E00E94D91F76
:103AD000609385057093860580938705909388058C
:103AE0008CCF91E081330CF4BBCF9093F50585CF5B
:103AF00083EE95E00E94D91F6093CF057093D005A7
:103B00008093D1059093D20578CF83EE95E00E9403
:103B1000050A6093DD057093DE058093DF059093C1
:103B2000E0056BCF83EE95E00E94050A6093C10526
:103B30007093C2058093C3059093C4055ECF109225
:103B4000F4051092F3051092E1052092F20510920F
:103B5000E2051092F50554CDEE3040F481E08E0F71
:103B60008093F405F0E0ED51FA4FF0828091E20588
:103B7000811146CD8091E105F826F092E10540CD16
:103B80000E947505009166041091670420916804F5
:103B900030916904601B710B820B930B613177428A
:103BA0008105910598F08091FA059091FB05A0910F
:103BB000FC05B091FD050A97A105B10538F46CE646
:103BC00073E083EC94E00E947B0AFFCF08EE13E0E1
:103BD00021E136E046E06BE3809110060E94400848
:103BE0008091110690911206982789279827909323
:103BF00065048093640480911306909114069827BD
:103C00008927982790936304809362048091150616
:103C1000909116069827892798279093610480939E
:103C2000600421E136E046E063E4809110060E94E2
:103C300040088091110690911206982789279827AD
:103C400090935F0480935E04809113069091140614
:103C500098278927982790935D0480935C0480912E
:103C600015069091160698278927982790935B044C
:103C700080935A040E9475050091560410915704D0
:103C80002091580430915904601B710B820B930BE7
:103C90000E94B22220E030E04AE754E40E94E3248C
:103CA0002B013C0140925204509253046092540400
:103CB000709255040E9475056093560470935704E2
:103CC0008093580490935904609162047091630446
:103CD000072E000C880B990B0E94B4226B017C010B
:103CE0000091640410916504B801012E000C880B4A
:103CF000990B0E94B4224B015C01609160047091A9
:103D00006104072E000C880B990B0E94B4229B01C2
:103D1000AC010E94EF22688779878A879B87A5017B
:103D20009401C501B4010E94EF22288539854A8596
:103D30005B850E9448240E948A259B01AC01C70133
:103D4000B6010E94E3240E94B4246C877D878E878D
:103D50009F87A7019601C701B6010E94EF2228851F
:103D600039854A855B850E9448240E948A256B011B
:103D70007C0166277727601B710B072E000C880BD0
:103D8000990B0E94B422A70196010E94E3240E948D
:103D9000B4246B017C0180915E0490915F0463E820
:103DA00070E00E94F325072E000C880B990B0E94EF
:103DB000B422A30192010E94EF2220914E0430917F
:103DC0004F0440915004509151040E94482428E42B
:103DD00031EE4AE75FE30E94EF224B015C0123EAE8
:103DE0003CE445E652E46C857D858E859F850E9486
:103DF000EF222AE037ED43EA5CE30E94EF229B01C9
:103E0000AC01C501B4010E9448244B015C018091C2
:103E10005C0490915D0463E870E00E94F325072E36
:103E2000000C880B990B0E94B422A30192010E94FE
:103E3000EF2220914A0430914B0440914C04509160
:103E40004D040E94482428E431EE4AE75FE30E94D3
:103E5000EF222B013C0123EA3CE445E652E4C70192
:103E6000B6010E94EF222AE037ED43EA5CE30E94AC
:103E7000EF229B01AC01C301B2010E944824609370
:103E800046047093470480934804909349048092B9
:103E90004E0490924F04A0925004B092510460934B
:103EA0004A0470934B0480934C0490934D041092F9
:103EB000C6058091CB059091CC05909345048093E5
:103EC00044041092D4058091D9059091DA0590931D
:103ED00043048093420480E090E0892B09F490CB66
:103EE0000E9400008DCB892B09F4F0CC1092F905CB
:103EF0001092F8058091F3058F5F8093F30510927F
:103F0000F40581E0FAE2FF1280E08093E205EE2002
:103F100009F476CB0E94A50D73CBCF93DF93CDE14F
:103F2000D1E0D0932005C0931F058FE195E00E945A
:103F30003207D0933F05C0933E058EE395E00E9483
:103F400032078AE096E00E94610C8FE196E00E94C1
:103F5000610C85E296E00E94610C8BE296E00E9483
:103F6000610C81E396E00E94610C87E396E0DF91AB
:103F7000CF910C94610CEF920F931F93CF93DF932B
:103F8000E80134E047FD34E1042E000C550B57FFE7
:103F900003C0519541955109E32E022F242FAE0104
:103FA0000E946B20CE01DF91CF911F910F91EF9076
:103FB00008951F93FC0199278827BC01E89411916B
:103FC0001032E9F3193010F01E30C8F31B3251F0F3
:103FD0001D3249F4689406C00E941A20610F711DB9
:103FE000811D911D119110531A30B0F33EF490953C
:103FF0008095709561957F4F8F4F9F4F1F910895CA
:10400000BB274A3031F4992322F4BDE29095819583
:104010009F4F0C945220BB272A3051F4992342F42D
:10402000BDE290958095709561957F4F8F4F9F4F22
:104030000C943020592F482F372F262F660F771FCB
:10404000881F991F660F771F881F991F620F731FA4
:10405000841F951F660F771F881F991F0895BB2720
:10406000FA01A62F6217710581059105330B30FB0C
:1040700066F0AA27660F771F881F991FAA1FA2172D
:1040800010F0A21B63953850A9F7A05DAA3308F081
:10409000A95DA19336F7B111B1931082CA010C94B6
:1040A000A222BB27FB015527AA27880F991FAA1F09
:1040B000A41710F0A41B83955051B9F7A05DAA3343
:1040C00008F0A95DA193009779F7B111B19311920E
:1040D000CB010C94A222A9E0B0E0E1E7F0E20C945D
:1040E000E5236A01F22EB02E102FFBE3AF2EA016AF
:1040F00008F41BE31F5F012F27E0AE014F5F5F4F06
:104100000E94CA21BC018981982F9970913009F4CD
:104110003FC09BE2E1FC04C09E2D9170E0FC3AC0E0
:104120005E2D5071E82FE87083FF46C084E0911146
:1041300001C083E0EF2DE81B8F1508F0E0E0D60109
:104140008E2F20E2552351F1992329F0D6019C931B
:10415000C60101966C0196012D5F3F4FE2FE24C01F
:104160008EE4D6018C9391E411969C93119712964C
:104170008C93D9018E2F90E281111BC0E20FF32F97
:10418000F11D10828EEF9FEF2996ECE00C94012434
:104190009DE2C6CF90E2C4CF2D9381508111FCCF18
:1041A000CE0ED11CE0E0D0CF8EE6D6018C9391E606
:1041B000DBCF9D938150E0CF482F447082FF3DC0FC
:1041C00084E0911101C083E08F1510F4EF2DE81BFE
:1041D000D6018E2F20E2552309F1992329F0D6012B
:1041E0009C93C60101966C0196012D5F3F4FE2FE44
:1041F0001BC089E4D6018C938EE411968C931197A1
:1042000086E412968C93D9018E2F90E2882309F4CC
:10421000B5CF9D938150FACF2D9381508111FCCF62
:10422000CE0ED11CE0E0D9CF89E6D6018C938EE684
:1042300011968C93119786E6E4CF9B0177FF02C01D
:1042400030E020E0A1E0B0E0911102C0B0E0A0E0D9
:10425000F9013196AE0FBF1F8B2C912CBB2009F4B6
:1042600061C05401EFEFAE1ABE0AAA0DBB1DFA16CB
:104270001B0619F014F04F2D4A1B511188C0E3FCA6
:1042800059C07601A42FB0E2A1114FC0C40ED11CB9
:10429000992309F45BC040E0D6011196F6019083A2
:1042A0006D01552309F448C0012F060F9A81582F3C
:1042B000507184FF03C0913309F4015010160CF0C3
:1042C00047C0093008F008E0EEE2FE2E5B01A01ABC
:1042D000B10885019194819491082F3F320729F408
:1042E000D601FC92F60131966F016217730794F1C3
:1042F000021713077CF5DB01A21BB30BAA24A394BE
:10430000B12CAC0EBD1EAA0DBB1D11968C91215077
:104310003109D601119628153905F4F0F60180838C
:104320006D01DBCFB12CA12CA0CFF701B1937F01A0
:10433000A150AACF9111B0CFD601942F50E302C063
:104340005D9391509111FCCFC40ED11C40E0ACCFD5
:1043500001E0BACF80E3DBCF6217730731F4963305
:1043600088F4953311F4552369F0F6018083FD013B
:10437000842F90E2811108C0A40FB11D1C9290E01F
:1043800080E002CF81E3F1CF91938150F3CF91117F
:1043900083CF8ACF283008F027E03327DA01990F3E
:1043A000311D87FD916000966105710539F4326019
:1043B0002E5F3D9330E32A95E1F708959F3F30F05B
:1043C00080387105610509F03C5F3C5F3D93913099
:1043D00008F08068911DDF93CF931F930F93FF9296
:1043E000EF92192F987F9695E92F96959695E90F5C
:1043F000FF27EC5CFE4F99273327EE24FF24A7010B
:10440000E70105900894079428F4360FE71EF81E7C
:10441000491F511D660F771F881F991F0694A1F72A
:104420000590079428F4E70EF81E491F561FC11D7A
:10443000770F881F991F661F0694A1F705900794B0
:1044400028F4F80E491F561FC71FD11D880F991F4A
:10445000661F771F0694A1F70590079420F4490F73
:10446000561FC71FD81F990F661F771F881F0694F6
:10447000A9F784911095177041F0D695C795579577
:104480004795F794E7941A95C1F7EAEDF0E0689440
:104490001590159135916591959105907FE27395F1
:1044A000E118F10A430B560BC90BD009C0F7E10C18
:1044B000F11E431F561FC91FD01D7EF4703311F427
:1044C0008A95E6CFE894015030F0080F0AF40027EF
:1044D000021708F4202F2395022F7A3328F079E36E
:1044E0007D932A95E9F710C07D932A9589F6069465
:1044F00097956795379517951794E118F10A430B2F
:10450000560BC90BD00998F023957E9173957A3399
:1045100008F070E37C932013B8F77E9170617D936F
:1045200030F0839571E37D9370E32A95E1F71124D0
:10453000EF90FF900F911F91CF91DF91992787FD09
:1045400090950895DC01FC01672F71917723E1F7C5
:10455000329704C07C916D9370836291AE17BF0750
:10456000C8F30895E89409C097FB3EF490958095B0
:10457000709561957F4F8F4F9F4F9923A9F0F92F29
:1045800096E9BB279395F695879577956795B795A7
:10459000F111F8CFFAF4BB0F11F460FF1BC06F5F8D
:1045A0007F4F8F4F9F4F16C0882311F096E911C09F
:1045B000772321F09EE8872F762F05C0662371F0C0
:1045C00096E8862F70E060E02AF09A95660F771FD4
:1045D000881FDAF7880F9695879597F908950E94B6
:1045E00002230C9473230E94652338F00E946C23ED
:1045F00020F0952311F00C945C230C946223112479
:104600000C94A7230E94842370F3959FC1F3950F08
:1046100050E0551F629FF001729FBB27F00DB11D46
:10462000639FAA27F00DB11DAA1F649F6627B00DD6
:10463000A11D661F829F2227B00DA11D621F739FBF
:10464000B00DA11D621F839FA00D611D221F749FCD
:104650003327A00D611D231F849F600D211D822F14
:10466000762F6A2F11249F5750409AF0F1F088233B
:104670004AF0EE0FFF1FBB1F661F771F881F915068
:104680005040A9F79E3F510580F00C945C230C9498
:10469000A7235F3FE4F3983ED4F38695779567951B
:1046A000B795F795E7959F5FC1F7FE2B880F911D92
:1046B0009695879597F9089597F99F6780E870E038
:1046C00060E008959FEF80EC089500240A94161688
:1046D000170618060906089500240A9412161306F0
:1046E000140605060895092E0394000C11F488237E
:1046F00052F0BB0F40F4BF2B11F460FF04C06F5F9A
:104700007F4F8F4F9F4F089557FD9058440F551F6F
:1047100059F05F3F71F04795880F97FB991F61F043
:104720009F3F79F087950895121613061406551FBA
:10473000F2CF4695F1DF08C0161617061806991F26
:10474000F1CF86957105610508940895E894BB271B
:1047500066277727CB0197F90895052E97FB1EF45E
:1047600000940E94C42357FD07D00E94162407FC22
:1047700003D04EF40C94C423509540953095219568
:104780003F4F4F4F5F4F089590958095709561957D
:104790007F4F8F4F9F4F08950E943824A59F900D03
:1047A000B49F900DA49F800D911D11240895B7FF13
:1047B0000C94CC230E94CC23821B930B08952F9240
:1047C0003F924F925F926F927F928F929F92AF92A1
:1047D000BF92CF92DF92EF92FF920F931F93CF93EE
:1047E000DF93CDB7DEB7CA1BDB0B0FB6F894DEBF85
:1047F0000FBECDBF09942A88398848885F846E84AB
:104800007D848C849B84AA84B984C884DF80EE80F4
:10481000FD800C811B81AA81B981CE0FD11D0FB6FD
:10482000F894DEBF0FBECDBFED010895A1E21A2EB0
:10483000AA1BBB1BFD010DC0AA1FBB1FEE1FFF1F44
:10484000A217B307E407F50720F0A21BB30BE40B94
:10485000F50B661F771F881F991F1A9469F76095DB
:104860007095809590959B01AC01BD01CF01089595
:10487000A29FB001B39FC001A39F700D811D1124A1
:10488000911DB29F700D811D1124911D08955058E6
:10489000BB27AA270E945F240C9473230E946523E0
:1048A00038F00E946C2320F039F49F3F19F426F46D
:1048B0000C9462230EF4E095E7FB0C945C23E92F43
:1048C0000E94842358F3BA17620773078407950779
:1048D00020F079F4A6F50C94A6230EF4E0950B2EA7
:1048E000BA2FA02D0B01B90190010C01CA01A00142
:1048F0001124FF27591B99F0593F50F4503E68F19D
:104900001A16F040A22F232F342F4427585FF3CFDD
:10491000469537952795A795F0405395C9F77EF4AE
:104920001F16BA0B620B730B840BBAF09150A1F0F7
:10493000FF0FBB1F661F771F881FC2F70EC0BA0F7D
:10494000621F731F841F48F4879577956795B79505
:10495000F7959E3F08F0B0CF9395880F08F0992700
:10496000EE0F979587950895DF93DD27B92FBF77D1
:1049700040E85FE31616170648075B0718F4D92FBF
:104980000E947C259F938F937F936F930E94CA25EB
:10499000ECEAF0E00E9455250E9473232F913F918D
:1049A0004F915F910E940223DD2351F09058A2EABB
:1049B0002AED3FE049EC5FE3D0785D270E945F2459
:1049C000DF910C9473230E94F7240C9473230E94AC
:1049D0006C2358F00E94652340F029F45F3F29F0D2
:1049E0000C945C2351110C94A7230C9462230E9415
:1049F000842368F39923B1F3552391F3951B550B49
:104A0000BB27AA2762177307840738F09F5F5F4FA1
:104A1000220F331F441FAA1FA9F335D00E2E3AF0E0
:104A2000E0E832D091505040E695001CCAF72BD0F8
:104A3000FE2F29D0660F771F881FBB1F2617370749
:104A40004807AB07B0E809F0BB0B802DBF01FF277B
:104A500093585F4F3AF09E3F510578F00C945C23D9
:104A60000C94A7235F3FE4F3983ED4F386957795A3
:104A70006795B795F7959F5FC9F7880F911D969534
:104A8000879597F90895E1E0660F771F881FBB1F90
:104A9000621773078407BA0720F0621B730B840B3D
:104AA000BA0BEE1F88F7E0950895DF93CF931F931D
:104AB0000F93FF92EF92DF927B018C01689406C006
:104AC000DA2EEF010E940223FE01E894A5912591C0
:104AD000359145915591A6F3EF010E945F24FE01A7
:104AE0009701A801DA9469F7DF90EF90FF900F919A
:104AF0001F91CF91DF9108959B01AC0160E070E0C0
:104B000080E89FE30C94E32419F416F40C946223D8
:104B10000C94CE250E948C23B8F39923C9F3B6F3E5
:104B20009F57550B87FF0E94DC250024A0E640EA32
:104B3000900180585695979528F4805C660F771FF2
:104B4000881F20F026173707480730F4621B730BC5
:104B5000840B202931294A2BA695179407942025E8
:104B600031254A2758F7660F771F881F20F0261730
:104B70003707480730F4620B730B840B200D311D8F
:104B8000411DA09581F7B901842F9158880F969502
:104B9000879508959B01AC010C94EF229F3F31F063
:104BA000915020F4879577956795B795880F911D5B
:104BB0009695879597F9089591505040660F771F05
:104BC000881FD2F70895DB018F939F930E94CC2317
:104BD000BF91AF91A29F800D911DA39F900DB29F99
:104BE000900D1124089597FB072E16F4009407D01A
:104BF00077FD09D00E94142607FC05D03EF490955D
:104C000081959F4F0895709561957F4F0895EE0FA0
:104C1000FF1F0590F491E02D09940E943824B7FFFE
:104C20000895821B930B0895AA1BBB1B51E107C07B
:104C3000AA1FBB1FA617B70710F0A61BB70B881F2C
:104C4000991F5A95A9F780959095BC01CD010895BB
:104C50000F931F93CF93DF938230910510F482E07E
:104C600090E0E0913F06F091400630E020E0B0E0B7
:104C7000A0E0309799F42115310509F44AC0281BAA
:104C8000390B24303105D8F58A819B816115710576
:104C900089F1FB0193838283FE0111C04081518120
:104CA0000281138148175907E0F04817590799F412
:104CB000109761F012960C93129713961C933296EC
:104CC000CF01DF91CF911F910F91089500933F067F
:104CD00010934006F4CF2115310551F042175307C8
:104CE00038F0A901DB019A01BD01DF01F801C1CF54
:104CF000EF01F9CF9093400680933F06CDCFFE01A0
:104D0000E20FF31F81939193225031093983288355
:104D1000D7CF20913D0630913E06232B41F42091C0
:104D20000E0130910F0130933E0620933D062091F5
:104D30000C0130910D012115310541F42DB73EB71D
:104D40004091100150911101241B350BE0913D065B
:104D5000F0913E06E217F307A0F42E1B3F0B281735
:104D6000390778F0AC014E5F5F4F2417350748F0E4
:104D70004E0F5F1F50933E0640933D0681939193E3
:104D80009FCFF0E0E0E09CCFCF93DF930097E9F076
:104D9000FC01329713821282A0913F06B091400627
:104DA000ED0130E020E01097A1F420813181820FE5
:104DB000931F20913D0630913E062817390709F0D0
:104DC00061C0F0933E06E0933D06DF91CF910895D8
:104DD000EA01CE17DF07E8F54A815B819E014115A4
:104DE0005105B1F7E901FB83EA8349915991C40F59
:104DF000D51FEC17FD0761F4808191810296840F25
:104E0000951FE90199838883828193819B838A839B
:104E1000F0E0E0E012968D919C9113970097B9F520
:104E20002D913C911197CD010296820F931F2091F5
:104E30003D0630913E062817390739F6309751F56F
:104E40001092400610923F06B0933E06A0933D0696
:104E5000BCCFD383C28340815181840F951FC81773
:104E6000D90761F44E5F5F4F88819981480F591FC0
:104E7000518340838A819B819383828321153105ED
:104E800009F0B0CFF0934006E0933F069ECFFD01BE
:104E9000DC01C0CF13821282D7CFB0E0A0E0E3E5FF
:104EA000F7E20C94E1238C01009751F4CB010E94AE
:104EB00028268C01C801CDB7DEB7E0E10C94FD23B4
:104EC000FC01E60FF71F9C0122503109E217F3079E
:104ED00008F49DC0D901CD91DC911197C617D70771
:104EE00098F0C530D10530F3CE01049786179707A7
:104EF00008F3C61BD70B2297C193D1936D937C9374
:104F0000CF010E94C426D6CF5B01AC1ABD0A4C016A
:104F10008C0E9D1EA0913F06B0914006512C412C55
:104F2000F12CE12C109731F580913D0690913E06D1
:104F30008815990509F05CC04616570608F058C058
:104F400080910C0190910D01009741F48DB79EB7AF
:104F50004091100150911101841B950BE817F9073E
:104F600008F055C0F0933E06E0933D06F9017183C9
:104F70006083A0CF8D919C91119712966C9012979F
:104F800013967C901397A815B90559F56C0142E06A
:104F9000C40ED11CCA14DB0420F1AC014A195B0910
:104FA000DA011296159780F06282738251834083F2
:104FB000D9016D937C93E114F10471F0D70113963C
:104FC000FC93EE93129776CF22968C0F9D1FF901DA
:104FD00091838083F301EFCFF0934006E0933F0687
:104FE00069CF4816590608F42C017D01D3019ACFE8
:104FF000CB010E9428267C01009749F0AE01B80140
:105000000E940A28C8010E94C426870153CF10E0DD
:1050100000E050CFFB01DC0102C001900D92415035
:105020005040D8F70895FB01DC018D910190801963
:105030000110D9F3990B0895FB01DC0101900D9249
:105040000020E1F70895FB01DC014150504048F099
:1050500001900D920020C9F701C01D9241505040AF
:10506000E0F70895FB0151915523A9F0BF01DC0140
:105070004D9145174111E1F759F4CD010190002000
:1050800049F04D9140154111C9F3FB014111EFCF9A
:1050900081E090E00197089511E0CFE6D1E004C0EF
:1050A000FE010E9407262196C037D107C9F7F89460
:0250B000FFCF30
:1050B200FFFFFFFF00E100000000000000004106CA
:1050C200800000C18081000000000000009D06E811
:1050D200020608B205F90611078506000000001550
:1050E20003F00436032B037C033A03580300000049
:1050F200000906DC050608B205D505C205B3054E52
:105102006F20726573706F6E73652066726F6D20AB
:10511200746865206D6F64756C652E2043686563E5
:105122006B20776972696E672C2053494D2D63613C
:10513200726420616E6420706F7765722100556E13
:10514200657870656374656420726573706F6E73E1
:10515200652066726F6D20746865206D6F64756C72
:10516200650055626963616369C3B36E20696E76D7
:10517200616C6964612E206573706572616E646F23
:1051820020706F7220636F6E657869C3B36E20738F
:105192006174656C6974616C2E0041542B435351E8
:1051A2000041542B48545450504152413D225552D3
:1051B2004C222C22003A3131393034002F3F002C5E
:1051C200002D004F4B0041542B485454504143543E
:1051D200494F4E3D30002B48545450414354494F9F
:1051E2004E3A003A2000656D00687474703A2F2FB1
:1051F200006770732E6F727573732E636F6D2E6DF1
:105202007800383632363433303333313736373547
:10521200350041542B4950523D3936303000496EE9
:10522200696369616E646F2E2E2E206573706572DC
:10523200616E646F206861737461207175652065A9
:105242006C206D6F64756C6F20736520636F6E6583
:105252006374652061206C612072656400415400B2
:1052620041542B4346554E3D310041542B43535438
:10527200543D2200222C22222C22220D0A004154CB
:105282002B43494943520041542B53415042523D12
:10529200332C312C2241504E222C220041542B53CC
:1052A200415042523D332C312C2255534552222C2F
:1052B20022220041542B53415042523D332C312C77
:1052C20022505744222C22220041542B5341504257
:1052D200523D312C310041542B48545450494E49CF
:1052E2005400496E696369616E646F20436F6D7526
:1052F2006E6963616369C3B36E20536174656C69DF
:1053020074616C004750524D4300474E524D43006A
:10531200475047474100474E4747410047505320B7
:0E532200776972696E67206572726F72210082
:00000001FF
